{
  "address": "0xDaDe9C297a440aFB2a1B1D5d6364c196Eb16256b",
  "abi": [
    {
      "inputs": [
        {
          "internalType": "address",
          "name": "tokenAddress",
          "type": "address"
        },
        {
          "internalType": "string",
          "name": "idoName",
          "type": "string"
        }
      ],
      "stateMutability": "nonpayable",
      "type": "constructor"
    },
    {
      "anonymous": false,
      "inputs": [
        {
          "indexed": true,
          "internalType": "bytes32",
          "name": "role",
          "type": "bytes32"
        },
        {
          "indexed": true,
          "internalType": "bytes32",
          "name": "previousAdminRole",
          "type": "bytes32"
        },
        {
          "indexed": true,
          "internalType": "bytes32",
          "name": "newAdminRole",
          "type": "bytes32"
        }
      ],
      "name": "RoleAdminChanged",
      "type": "event"
    },
    {
      "anonymous": false,
      "inputs": [
        {
          "indexed": true,
          "internalType": "bytes32",
          "name": "role",
          "type": "bytes32"
        },
        {
          "indexed": true,
          "internalType": "address",
          "name": "account",
          "type": "address"
        },
        {
          "indexed": true,
          "internalType": "address",
          "name": "sender",
          "type": "address"
        }
      ],
      "name": "RoleGranted",
      "type": "event"
    },
    {
      "anonymous": false,
      "inputs": [
        {
          "indexed": true,
          "internalType": "bytes32",
          "name": "role",
          "type": "bytes32"
        },
        {
          "indexed": true,
          "internalType": "address",
          "name": "account",
          "type": "address"
        },
        {
          "indexed": true,
          "internalType": "address",
          "name": "sender",
          "type": "address"
        }
      ],
      "name": "RoleRevoked",
      "type": "event"
    },
    {
      "anonymous": false,
      "inputs": [
        {
          "indexed": true,
          "internalType": "address",
          "name": "account",
          "type": "address"
        },
        {
          "indexed": false,
          "internalType": "uint256",
          "name": "amount",
          "type": "uint256"
        }
      ],
      "name": "TokenReleased",
      "type": "event"
    },
    {
      "inputs": [],
      "name": "BACKEND_ROLE",
      "outputs": [
        {
          "internalType": "bytes32",
          "name": "",
          "type": "bytes32"
        }
      ],
      "stateMutability": "view",
      "type": "function"
    },
    {
      "inputs": [],
      "name": "DEFAULT_ADMIN_ROLE",
      "outputs": [
        {
          "internalType": "bytes32",
          "name": "",
          "type": "bytes32"
        }
      ],
      "stateMutability": "view",
      "type": "function"
    },
    {
      "inputs": [
        {
          "internalType": "uint128",
          "name": "time",
          "type": "uint128"
        },
        {
          "internalType": "uint128",
          "name": "percentage",
          "type": "uint128"
        }
      ],
      "name": "addReleaseInfo",
      "outputs": [],
      "stateMutability": "nonpayable",
      "type": "function"
    },
    {
      "inputs": [
        {
          "internalType": "uint256",
          "name": "totalAmount",
          "type": "uint256"
        }
      ],
      "name": "getHash",
      "outputs": [
        {
          "internalType": "bytes32",
          "name": "",
          "type": "bytes32"
        }
      ],
      "stateMutability": "view",
      "type": "function"
    },
    {
      "inputs": [
        {
          "internalType": "address",
          "name": "participant",
          "type": "address"
        },
        {
          "internalType": "uint256",
          "name": "totalAmount",
          "type": "uint256"
        }
      ],
      "name": "getParticipantUnclaimedAmount",
      "outputs": [
        {
          "internalType": "uint256",
          "name": "",
          "type": "uint256"
        }
      ],
      "stateMutability": "view",
      "type": "function"
    },
    {
      "inputs": [
        {
          "internalType": "uint256",
          "name": "totalAmount",
          "type": "uint256"
        }
      ],
      "name": "getParticipantUnlockedAmount",
      "outputs": [
        {
          "internalType": "uint256",
          "name": "",
          "type": "uint256"
        }
      ],
      "stateMutability": "view",
      "type": "function"
    },
    {
      "inputs": [
        {
          "internalType": "bytes32",
          "name": "role",
          "type": "bytes32"
        }
      ],
      "name": "getRoleAdmin",
      "outputs": [
        {
          "internalType": "bytes32",
          "name": "",
          "type": "bytes32"
        }
      ],
      "stateMutability": "view",
      "type": "function"
    },
    {
      "inputs": [
        {
          "internalType": "uint256",
          "name": "totalAmount",
          "type": "uint256"
        },
        {
          "internalType": "bytes",
          "name": "signature",
          "type": "bytes"
        }
      ],
      "name": "getSigner",
      "outputs": [
        {
          "internalType": "address",
          "name": "",
          "type": "address"
        }
      ],
      "stateMutability": "view",
      "type": "function"
    },
    {
      "inputs": [
        {
          "internalType": "address",
          "name": "account",
          "type": "address"
        },
        {
          "internalType": "uint256",
          "name": "totalAmount",
          "type": "uint256"
        },
        {
          "internalType": "bytes",
          "name": "signature",
          "type": "bytes"
        }
      ],
      "name": "getSignerAcc",
      "outputs": [
        {
          "internalType": "address",
          "name": "",
          "type": "address"
        }
      ],
      "stateMutability": "view",
      "type": "function"
    },
    {
      "inputs": [
        {
          "internalType": "bytes32",
          "name": "role",
          "type": "bytes32"
        },
        {
          "internalType": "address",
          "name": "account",
          "type": "address"
        }
      ],
      "name": "grantRole",
      "outputs": [],
      "stateMutability": "nonpayable",
      "type": "function"
    },
    {
      "inputs": [
        {
          "internalType": "bytes32",
          "name": "role",
          "type": "bytes32"
        },
        {
          "internalType": "address",
          "name": "account",
          "type": "address"
        }
      ],
      "name": "hasRole",
      "outputs": [
        {
          "internalType": "bool",
          "name": "",
          "type": "bool"
        }
      ],
      "stateMutability": "view",
      "type": "function"
    },
    {
      "inputs": [],
      "name": "idoId",
      "outputs": [
        {
          "internalType": "bytes32",
          "name": "",
          "type": "bytes32"
        }
      ],
      "stateMutability": "view",
      "type": "function"
    },
    {
      "inputs": [
        {
          "internalType": "uint256",
          "name": "totalAmount",
          "type": "uint256"
        },
        {
          "internalType": "bytes",
          "name": "signature",
          "type": "bytes"
        }
      ],
      "name": "release",
      "outputs": [],
      "stateMutability": "nonpayable",
      "type": "function"
    },
    {
      "inputs": [
        {
          "internalType": "uint256",
          "name": "totalAmount",
          "type": "uint256"
        },
        {
          "internalType": "uint256",
          "name": "amount",
          "type": "uint256"
        },
        {
          "internalType": "bytes",
          "name": "signature",
          "type": "bytes"
        }
      ],
      "name": "releaseAmount",
      "outputs": [],
      "stateMutability": "nonpayable",
      "type": "function"
    },
    {
      "inputs": [
        {
          "internalType": "uint256",
          "name": "",
          "type": "uint256"
        }
      ],
      "name": "releaseInfos",
      "outputs": [
        {
          "internalType": "uint128",
          "name": "time",
          "type": "uint128"
        },
        {
          "internalType": "uint128",
          "name": "percentage",
          "type": "uint128"
        }
      ],
      "stateMutability": "view",
      "type": "function"
    },
    {
      "inputs": [
        {
          "internalType": "address",
          "name": "",
          "type": "address"
        }
      ],
      "name": "released",
      "outputs": [
        {
          "internalType": "uint256",
          "name": "",
          "type": "uint256"
        }
      ],
      "stateMutability": "view",
      "type": "function"
    },
    {
      "inputs": [
        {
          "internalType": "bytes32",
          "name": "role",
          "type": "bytes32"
        },
        {
          "internalType": "address",
          "name": "account",
          "type": "address"
        }
      ],
      "name": "renounceRole",
      "outputs": [],
      "stateMutability": "nonpayable",
      "type": "function"
    },
    {
      "inputs": [
        {
          "internalType": "bytes32",
          "name": "role",
          "type": "bytes32"
        },
        {
          "internalType": "address",
          "name": "account",
          "type": "address"
        }
      ],
      "name": "revokeRole",
      "outputs": [],
      "stateMutability": "nonpayable",
      "type": "function"
    },
    {
      "inputs": [
        {
          "internalType": "uint256",
          "name": "index",
          "type": "uint256"
        },
        {
          "internalType": "uint128",
          "name": "time",
          "type": "uint128"
        },
        {
          "internalType": "uint128",
          "name": "percentage",
          "type": "uint128"
        }
      ],
      "name": "setReleaseInfo",
      "outputs": [],
      "stateMutability": "nonpayable",
      "type": "function"
    },
    {
      "inputs": [
        {
          "internalType": "bytes4",
          "name": "interfaceId",
          "type": "bytes4"
        }
      ],
      "name": "supportsInterface",
      "outputs": [
        {
          "internalType": "bool",
          "name": "",
          "type": "bool"
        }
      ],
      "stateMutability": "view",
      "type": "function"
    },
    {
      "inputs": [],
      "name": "token",
      "outputs": [
        {
          "internalType": "address",
          "name": "",
          "type": "address"
        }
      ],
      "stateMutability": "view",
      "type": "function"
    }
  ],
  "transactionHash": "0xcec1403acaab87c0176cfb4743e029b0ca7eee5fb3d48e18e23acf94b53507f0",
  "args": [
    "0x87F1E00d6bcD3712031e5edD26DFcdB0FEd35D20",
    "SimpleVestingAcme"
  ],
  "numDeployments": 1,
  "solcInputHash": "c577df0f38629766f28774f49bbe0504",
  "bytecode": "0x60a06040523480156200001157600080fd5b50604051620026d1380380620026d1833981016040819052620000349162000203565b6001600160a01b0382166200008f5760405162461bcd60e51b815260206004820152601560248201527f696e76616c696420746f6b656e20616464726573730000000000000000000000604482015260640160405180910390fd5b600180546001600160a01b0319166001600160a01b038416179055604051620000bd908290602001620002de565b60408051601f198184030181529190528051602090910120608052620000e560003362000119565b620001117f25cf2b509f2a7f322675b2a5322b182f44ad2c03ac941a0af17c9b178f5d5d5f3362000119565b505062000313565b6000828152602081815260408083206001600160a01b038516845290915290205460ff16620001b6576000828152602081815260408083206001600160a01b03851684529091529020805460ff19166001179055620001753390565b6001600160a01b0316816001600160a01b0316837f2f8788117e7eff1d82e926ec794901d17c78024a50270940304540a733656f0d60405160405180910390a45b5050565b634e487b7160e01b600052604160045260246000fd5b60005b83811015620001ed578181015183820152602001620001d3565b83811115620001fd576000848401525b50505050565b600080604083850312156200021757600080fd5b82516001600160a01b03811681146200022f57600080fd5b60208401519092506001600160401b03808211156200024d57600080fd5b818501915085601f8301126200026257600080fd5b815181811115620002775762000277620001ba565b604051601f8201601f19908116603f01168101908382118183101715620002a257620002a2620001ba565b81604052828152886020848701011115620002bc57600080fd5b620002cf836020830160208801620001d0565b80955050505050509250929050565b6020815260008251806020840152620002ff816040850160208701620001d0565b601f01601f19169190910160400192915050565b60805161237f620003526000396000818161036501528181610495015281816105690152818161072401528181610b880152610c4c015261237f6000f3fe608060405234801561001057600080fd5b50600436106101775760003560e01c80637ef4052c116100d85780639852595c1161008c578063d547741f11610066578063d547741f14610387578063eb6905e21461039a578063fc0c546a146103d657600080fd5b80639852595c14610338578063a217fddf14610358578063b4f0e4a71461036057600080fd5b806391d14854116100bd57806391d14854146102ba57806392c2becc146102fe57806395458ab11461032557600080fd5b80637ef4052c1461029457806390910e9a146102a757600080fd5b806336568abe1161012f578063534db92d11610114578063534db92d1461025b5780636b2fafa91461026e57806374fed1471461028157600080fd5b806336568abe14610235578063427a740c1461024857600080fd5b8063248a9ca311610160578063248a9ca3146101dc578063283856d61461020d5780632f2ff15d1461022057600080fd5b806301ffc9a71461017c5780630b6a920c146101a4575b600080fd5b61018f61018a366004611d73565b6103f6565b60405190151581526020015b60405180910390f35b6101b76101b2366004611e8f565b61048f565b60405173ffffffffffffffffffffffffffffffffffffffff909116815260200161019b565b6101ff6101ea366004611ed6565b60009081526020819052604090206001015490565b60405190815260200161019b565b6101b761021b366004611f18565b610563565b61023361022e366004611f6f565b61063b565b005b610233610243366004611f6f565b610666565b610233610256366004611f9b565b61071e565b610233610269366004611ff5565b610af5565b6101ff61027c366004611ed6565b610b82565b61023361028f366004611e8f565b610c46565b6102336102a236600461201f565b610ec1565b6101ff6102b536600461205b565b610f61565b61018f6102c8366004611f6f565b60009182526020828152604080842073ffffffffffffffffffffffffffffffffffffffff93909316845291905290205460ff1690565b6101ff7f25cf2b509f2a7f322675b2a5322b182f44ad2c03ac941a0af17c9b178f5d5d5f81565b6101ff610333366004611ed6565b610f9a565b6101ff610346366004612085565b60036020526000908152604090205481565b6101ff600081565b6101ff7f000000000000000000000000000000000000000000000000000000000000000081565b610233610395366004611f6f565b611055565b6103ad6103a8366004611ed6565b61107b565b604080516fffffffffffffffffffffffffffffffff93841681529290911660208301520161019b565b6001546101b79073ffffffffffffffffffffffffffffffffffffffff1681565b60007fffffffff0000000000000000000000000000000000000000000000000000000082167f7965db0b00000000000000000000000000000000000000000000000000000000148061048957507f01ffc9a7000000000000000000000000000000000000000000000000000000007fffffffff000000000000000000000000000000000000000000000000000000008316145b92915050565b604080517f00000000000000000000000000000000000000000000000000000000000000006020808301919091523360601b7fffffffffffffffffffffffffffffffffffffffff00000000000000000000000016828401526054808301869052835180840390910181526074830184528051908201207f19457468657265756d205369676e6564204d6573736167653a0a333200000000609484015260b08084018290528451808503909101815260d0909301909352815191012060009150600061055a82856110c6565b95945050505050565b604080517f0000000000000000000000000000000000000000000000000000000000000000602080830191909152606086901b7fffffffffffffffffffffffffffffffffffffffff00000000000000000000000016828401526054808301869052835180840390910181526074830184528051908201207f19457468657265756d205369676e6564204d6573736167653a0a333200000000609484015260b08084018290528451808503909101815260d0909301909352815191012060009150600061062f82856110c6565b925050505b9392505050565b60008281526020819052604090206001015461065781336110ea565b61066183836111ba565b505050565b73ffffffffffffffffffffffffffffffffffffffff81163314610710576040517f08c379a000000000000000000000000000000000000000000000000000000000815260206004820152602f60248201527f416363657373436f6e74726f6c3a2063616e206f6e6c792072656e6f756e636560448201527f20726f6c657320666f722073656c66000000000000000000000000000000000060648201526084015b60405180910390fd5b61071a82826112aa565b5050565b604080517f00000000000000000000000000000000000000000000000000000000000000006020808301919091527fffffffffffffffffffffffffffffffffffffffff0000000000000000000000003360601b16828401526054808301879052835180840390910181526074830184528051908201207f19457468657265756d205369676e6564204d6573736167653a0a333200000000609484015260b0808401919091528351808403909101815260d090920190925280519101208390829060006107ea82846110c6565b73ffffffffffffffffffffffffffffffffffffffff811660009081527f48c7bdbf6e737fbd4f28e9ac2ee21ca1cecfc20cb008a302f41dcc98ef949678602052604090205490915060ff1661089b576040517f08c379a000000000000000000000000000000000000000000000000000000000815260206004820152601760248201527f596f7520617265206e6f742077686974656c69737465640000000000000000006044820152606401610707565b60006108a73389610f61565b905060008111610913576040517f08c379a000000000000000000000000000000000000000000000000000000000815260206004820152601460248201527f4e6f2072656c65617361626c6520616d6f756e740000000000000000000000006044820152606401610707565b6000871161097d576040517f08c379a000000000000000000000000000000000000000000000000000000000815260206004820152600a60248201527f616d6f756e74203e2030000000000000000000000000000000000000000000006044820152606401610707565b808711156109e7576040517f08c379a000000000000000000000000000000000000000000000000000000000815260206004820152601460248201527f616d6f756e74203c3d2072656c65617361626c650000000000000000000000006044820152606401610707565b3360009081526003602052604081208054899290610a069084906120cf565b909155505060405187815233907f9cf9e3ab58b33f06d81842ea0ad850b6640c6430d6396973312e1715792e7a919060200160405180910390a26001546040517fa9059cbb0000000000000000000000000000000000000000000000000000000081523360048201526024810189905273ffffffffffffffffffffffffffffffffffffffff9091169063a9059cbb90604401602060405180830381600087803b158015610ab257600080fd5b505af1158015610ac6573d6000803e3d6000fd5b505050506040513d601f19601f82011682018060405250810190610aea91906120e7565b505050505050505050565b6000610b0181336110ea565b50604080518082019091526fffffffffffffffffffffffffffffffff92831681529082166020820190815260028054600181018255600091909152915190518316700100000000000000000000000000000000029216919091177f405787fa12a823e0f2b7631cc41b3ba8828b3321ca811111fa75cd3aa3bb5ace90910155565b604080517f00000000000000000000000000000000000000000000000000000000000000006020808301919091523360601b7fffffffffffffffffffffffffffffffffffffffff00000000000000000000000016828401526054808301859052835180840390910181526074830184528051908201207f19457468657265756d205369676e6564204d6573736167653a0a333200000000609484015260b08084018290528451808503909101815260d0909301909352815191012060009190610634565b604080517f00000000000000000000000000000000000000000000000000000000000000006020808301919091527fffffffffffffffffffffffffffffffffffffffff0000000000000000000000003360601b16828401526054808301869052835180840390910181526074830184528051908201207f19457468657265756d205369676e6564204d6573736167653a0a333200000000609484015260b0808401919091528351808403909101815260d09092019092528051910120829082906000610d1282846110c6565b73ffffffffffffffffffffffffffffffffffffffff811660009081527f48c7bdbf6e737fbd4f28e9ac2ee21ca1cecfc20cb008a302f41dcc98ef949678602052604090205490915060ff16610dc3576040517f08c379a000000000000000000000000000000000000000000000000000000000815260206004820152601760248201527f596f7520617265206e6f742077686974656c69737465640000000000000000006044820152606401610707565b6000610dcf3388610f61565b905060008111610e3b576040517f08c379a000000000000000000000000000000000000000000000000000000000815260206004820152601460248201527f4e6f2072656c65617361626c6520616d6f756e740000000000000000000000006044820152606401610707565b3360009081526003602052604081208054839290610e5a9084906120cf565b909155505060405181815233907f9cf9e3ab58b33f06d81842ea0ad850b6640c6430d6396973312e1715792e7a919060200160405180910390a2600154610eb89073ffffffffffffffffffffffffffffffffffffffff163383611361565b50505050505050565b6000610ecd81336110ea565b6040518060400160405280846fffffffffffffffffffffffffffffffff168152602001836fffffffffffffffffffffffffffffffff1681525060028581548110610f1957610f19612109565b6000918252602091829020835193909201516fffffffffffffffffffffffffffffffff9081167001000000000000000000000000000000000293169290921791015550505050565b73ffffffffffffffffffffffffffffffffffffffff8216600090815260036020526040812054610f9083610f9a565b6106349190612138565b6002546000908190610fae90600190612138565b90505b4260028281548110610fc557610fc5612109565b6000918252602090912001546fffffffffffffffffffffffffffffffff161161104357606460028281548110610ffd57610ffd612109565b6000918252602090912001546110399070010000000000000000000000000000000090046fffffffffffffffffffffffffffffffff168561214f565b610634919061218c565b8061104d816121c7565b915050610fb1565b60008281526020819052604090206001015461107181336110ea565b61066183836112aa565b6002818154811061108b57600080fd5b6000918252602090912001546fffffffffffffffffffffffffffffffff80821692507001000000000000000000000000000000009091041682565b60008060006110d585856113ee565b915091506110e28161145e565b509392505050565b60008281526020818152604080832073ffffffffffffffffffffffffffffffffffffffff8516845290915290205460ff1661071a576111408173ffffffffffffffffffffffffffffffffffffffff1660146116ba565b61114b8360206116ba565b60405160200161115c92919061222c565b604080517fffffffffffffffffffffffffffffffffffffffffffffffffffffffffffffffe0818403018152908290527f08c379a0000000000000000000000000000000000000000000000000000000008252610707916004016122ad565b60008281526020818152604080832073ffffffffffffffffffffffffffffffffffffffff8516845290915290205460ff1661071a5760008281526020818152604080832073ffffffffffffffffffffffffffffffffffffffff85168452909152902080547fffffffffffffffffffffffffffffffffffffffffffffffffffffffffffffff0016600117905561124c3390565b73ffffffffffffffffffffffffffffffffffffffff168173ffffffffffffffffffffffffffffffffffffffff16837f2f8788117e7eff1d82e926ec794901d17c78024a50270940304540a733656f0d60405160405180910390a45050565b60008281526020818152604080832073ffffffffffffffffffffffffffffffffffffffff8516845290915290205460ff161561071a5760008281526020818152604080832073ffffffffffffffffffffffffffffffffffffffff8516808552925280832080547fffffffffffffffffffffffffffffffffffffffffffffffffffffffffffffff0016905551339285917ff6391f5c32d9c69d2a47ea670b442974b53935d1edc7fd64eb21e047a839171b9190a45050565b6040805173ffffffffffffffffffffffffffffffffffffffff8416602482015260448082018490528251808303909101815260649091019091526020810180517bffffffffffffffffffffffffffffffffffffffffffffffffffffffff167fa9059cbb000000000000000000000000000000000000000000000000000000001790526106619084906118fd565b6000808251604114156114255760208301516040840151606085015160001a61141987828585611a09565b94509450505050611457565b82516040141561144f5760208301516040840151611444868383611b21565b935093505050611457565b506000905060025b9250929050565b6000816004811115611472576114726122fe565b141561147b5750565b600181600481111561148f5761148f6122fe565b14156114f7576040517f08c379a000000000000000000000000000000000000000000000000000000000815260206004820152601860248201527f45434453413a20696e76616c6964207369676e617475726500000000000000006044820152606401610707565b600281600481111561150b5761150b6122fe565b1415611573576040517f08c379a000000000000000000000000000000000000000000000000000000000815260206004820152601f60248201527f45434453413a20696e76616c6964207369676e6174757265206c656e677468006044820152606401610707565b6003816004811115611587576115876122fe565b1415611615576040517f08c379a000000000000000000000000000000000000000000000000000000000815260206004820152602260248201527f45434453413a20696e76616c6964207369676e6174757265202773272076616c60448201527f75650000000000000000000000000000000000000000000000000000000000006064820152608401610707565b6004816004811115611629576116296122fe565b14156116b7576040517f08c379a000000000000000000000000000000000000000000000000000000000815260206004820152602260248201527f45434453413a20696e76616c6964207369676e6174757265202776272076616c60448201527f75650000000000000000000000000000000000000000000000000000000000006064820152608401610707565b50565b606060006116c983600261214f565b6116d49060026120cf565b67ffffffffffffffff8111156116ec576116ec611db5565b6040519080825280601f01601f191660200182016040528015611716576020820181803683370190505b5090507f30000000000000000000000000000000000000000000000000000000000000008160008151811061174d5761174d612109565b60200101907effffffffffffffffffffffffffffffffffffffffffffffffffffffffffffff1916908160001a9053507f7800000000000000000000000000000000000000000000000000000000000000816001815181106117b0576117b0612109565b60200101907effffffffffffffffffffffffffffffffffffffffffffffffffffffffffffff1916908160001a90535060006117ec84600261214f565b6117f79060016120cf565b90505b6001811115611894577f303132333435363738396162636465660000000000000000000000000000000085600f166010811061183857611838612109565b1a60f81b82828151811061184e5761184e612109565b60200101907effffffffffffffffffffffffffffffffffffffffffffffffffffffffffffff1916908160001a90535060049490941c9361188d816121c7565b90506117fa565b508315610634576040517f08c379a000000000000000000000000000000000000000000000000000000000815260206004820181905260248201527f537472696e67733a20686578206c656e67746820696e73756666696369656e746044820152606401610707565b600061195f826040518060400160405280602081526020017f5361666545524332303a206c6f772d6c6576656c2063616c6c206661696c65648152508573ffffffffffffffffffffffffffffffffffffffff16611b739092919063ffffffff16565b805190915015610661578080602001905181019061197d91906120e7565b610661576040517f08c379a000000000000000000000000000000000000000000000000000000000815260206004820152602a60248201527f5361666545524332303a204552433230206f7065726174696f6e20646964206e60448201527f6f742073756363656564000000000000000000000000000000000000000000006064820152608401610707565b6000807f7fffffffffffffffffffffffffffffff5d576e7357a4501ddfe92f46681b20a0831115611a405750600090506003611b18565b8460ff16601b14158015611a5857508460ff16601c14155b15611a695750600090506004611b18565b6040805160008082526020820180845289905260ff881692820192909252606081018690526080810185905260019060a0016020604051602081039080840390855afa158015611abd573d6000803e3d6000fd5b50506040517fffffffffffffffffffffffffffffffffffffffffffffffffffffffffffffffe0015191505073ffffffffffffffffffffffffffffffffffffffff8116611b1157600060019250925050611b18565b9150600090505b94509492505050565b6000807f7fffffffffffffffffffffffffffffffffffffffffffffffffffffffffffffff831681611b5760ff86901c601b6120cf565b9050611b6587828885611a09565b935093505050935093915050565b6060611b828484600085611b8a565b949350505050565b606082471015611c1c576040517f08c379a000000000000000000000000000000000000000000000000000000000815260206004820152602660248201527f416464726573733a20696e73756666696369656e742062616c616e636520666f60448201527f722063616c6c00000000000000000000000000000000000000000000000000006064820152608401610707565b73ffffffffffffffffffffffffffffffffffffffff85163b611c9a576040517f08c379a000000000000000000000000000000000000000000000000000000000815260206004820152601d60248201527f416464726573733a2063616c6c20746f206e6f6e2d636f6e74726163740000006044820152606401610707565b6000808673ffffffffffffffffffffffffffffffffffffffff168587604051611cc3919061232d565b60006040518083038185875af1925050503d8060008114611d00576040519150601f19603f3d011682016040523d82523d6000602084013e611d05565b606091505b5091509150611d15828286611d20565b979650505050505050565b60608315611d2f575081610634565b825115611d3f5782518084602001fd5b816040517f08c379a000000000000000000000000000000000000000000000000000000000815260040161070791906122ad565b600060208284031215611d8557600080fd5b81357fffffffff000000000000000000000000000000000000000000000000000000008116811461063457600080fd5b7f4e487b7100000000000000000000000000000000000000000000000000000000600052604160045260246000fd5b600082601f830112611df557600080fd5b813567ffffffffffffffff80821115611e1057611e10611db5565b604051601f83017fffffffffffffffffffffffffffffffffffffffffffffffffffffffffffffffe0908116603f01168101908282118183101715611e5657611e56611db5565b81604052838152866020858801011115611e6f57600080fd5b836020870160208301376000602085830101528094505050505092915050565b60008060408385031215611ea257600080fd5b82359150602083013567ffffffffffffffff811115611ec057600080fd5b611ecc85828601611de4565b9150509250929050565b600060208284031215611ee857600080fd5b5035919050565b803573ffffffffffffffffffffffffffffffffffffffff81168114611f1357600080fd5b919050565b600080600060608486031215611f2d57600080fd5b611f3684611eef565b925060208401359150604084013567ffffffffffffffff811115611f5957600080fd5b611f6586828701611de4565b9150509250925092565b60008060408385031215611f8257600080fd5b82359150611f9260208401611eef565b90509250929050565b600080600060608486031215611fb057600080fd5b8335925060208401359150604084013567ffffffffffffffff811115611f5957600080fd5b80356fffffffffffffffffffffffffffffffff81168114611f1357600080fd5b6000806040838503121561200857600080fd5b61201183611fd5565b9150611f9260208401611fd5565b60008060006060848603121561203457600080fd5b8335925061204460208501611fd5565b915061205260408501611fd5565b90509250925092565b6000806040838503121561206e57600080fd5b61207783611eef565b946020939093013593505050565b60006020828403121561209757600080fd5b61063482611eef565b7f4e487b7100000000000000000000000000000000000000000000000000000000600052601160045260246000fd5b600082198211156120e2576120e26120a0565b500190565b6000602082840312156120f957600080fd5b8151801515811461063457600080fd5b7f4e487b7100000000000000000000000000000000000000000000000000000000600052603260045260246000fd5b60008282101561214a5761214a6120a0565b500390565b6000817fffffffffffffffffffffffffffffffffffffffffffffffffffffffffffffffff0483118215151615612187576121876120a0565b500290565b6000826121c2577f4e487b7100000000000000000000000000000000000000000000000000000000600052601260045260246000fd5b500490565b6000816121d6576121d66120a0565b507fffffffffffffffffffffffffffffffffffffffffffffffffffffffffffffffff0190565b60005b838110156122175781810151838201526020016121ff565b83811115612226576000848401525b50505050565b7f416363657373436f6e74726f6c3a206163636f756e74200000000000000000008152600083516122648160178501602088016121fc565b7f206973206d697373696e6720726f6c652000000000000000000000000000000060179184019182015283516122a18160288401602088016121fc565b01602801949350505050565b60208152600082518060208401526122cc8160408501602087016121fc565b601f017fffffffffffffffffffffffffffffffffffffffffffffffffffffffffffffffe0169190910160400192915050565b7f4e487b7100000000000000000000000000000000000000000000000000000000600052602160045260246000fd5b6000825161233f8184602087016121fc565b919091019291505056fea26469706673582212202c2cea45c407226e3cf95d5276ebea3e448ce67b0d64675e91910071ef129afe64736f6c63430008090033",
  "devdoc": {
    "kind": "dev",
    "methods": {
      "getRoleAdmin(bytes32)": {
        "details": "Returns the admin role that controls `role`. See {grantRole} and {revokeRole}. To change a role's admin, use {_setRoleAdmin}."
      },
      "grantRole(bytes32,address)": {
        "details": "Grants `role` to `account`. If `account` had not been already granted `role`, emits a {RoleGranted} event. Requirements: - the caller must have ``role``'s admin role."
      },
      "hasRole(bytes32,address)": {
        "details": "Returns `true` if `account` has been granted `role`."
      },
      "renounceRole(bytes32,address)": {
        "details": "Revokes `role` from the calling account. Roles are often managed via {grantRole} and {revokeRole}: this function's purpose is to provide a mechanism for accounts to lose their privileges if they are compromised (such as when a trusted device is misplaced). If the calling account had been revoked `role`, emits a {RoleRevoked} event. Requirements: - the caller must be `account`."
      },
      "revokeRole(bytes32,address)": {
        "details": "Revokes `role` from `account`. If `account` had been granted `role`, emits a {RoleRevoked} event. Requirements: - the caller must have ``role``'s admin role."
      },
      "supportsInterface(bytes4)": {
        "details": "See {IERC165-supportsInterface}."
      }
    },
    "version": 1
  },
  "userdoc": {
    "kind": "user",
    "methods": {},
    "version": 1
  },
  "storageLayout": {
    "storage": [
      {
        "astId": 24,
        "contract": "contracts/ido/SimpleVesting.sol:SimpleVesting",
        "label": "_roles",
        "offset": 0,
        "slot": "0",
        "type": "t_mapping(t_bytes32,t_struct(RoleData)19_storage)"
      },
      {
        "astId": 3049,
        "contract": "contracts/ido/SimpleVesting.sol:SimpleVesting",
        "label": "token",
        "offset": 0,
        "slot": "1",
        "type": "t_address"
      },
      {
        "astId": 3058,
        "contract": "contracts/ido/SimpleVesting.sol:SimpleVesting",
        "label": "releaseInfos",
        "offset": 0,
        "slot": "2",
        "type": "t_array(t_struct(ReleaseInfo)3054_storage)dyn_storage"
      },
      {
        "astId": 3062,
        "contract": "contracts/ido/SimpleVesting.sol:SimpleVesting",
        "label": "released",
        "offset": 0,
        "slot": "3",
        "type": "t_mapping(t_address,t_uint256)"
      }
    ],
    "types": {
      "t_address": {
        "encoding": "inplace",
        "label": "address",
        "numberOfBytes": "20"
      },
      "t_array(t_struct(ReleaseInfo)3054_storage)dyn_storage": {
        "base": "t_struct(ReleaseInfo)3054_storage",
        "encoding": "dynamic_array",
        "label": "struct SimpleVesting.ReleaseInfo[]",
        "numberOfBytes": "32"
      },
      "t_bool": {
        "encoding": "inplace",
        "label": "bool",
        "numberOfBytes": "1"
      },
      "t_bytes32": {
        "encoding": "inplace",
        "label": "bytes32",
        "numberOfBytes": "32"
      },
      "t_mapping(t_address,t_bool)": {
        "encoding": "mapping",
        "key": "t_address",
        "label": "mapping(address => bool)",
        "numberOfBytes": "32",
        "value": "t_bool"
      },
      "t_mapping(t_address,t_uint256)": {
        "encoding": "mapping",
        "key": "t_address",
        "label": "mapping(address => uint256)",
        "numberOfBytes": "32",
        "value": "t_uint256"
      },
      "t_mapping(t_bytes32,t_struct(RoleData)19_storage)": {
        "encoding": "mapping",
        "key": "t_bytes32",
        "label": "mapping(bytes32 => struct AccessControl.RoleData)",
        "numberOfBytes": "32",
        "value": "t_struct(RoleData)19_storage"
      },
      "t_struct(ReleaseInfo)3054_storage": {
        "encoding": "inplace",
        "label": "struct SimpleVesting.ReleaseInfo",
        "members": [
          {
            "astId": 3051,
            "contract": "contracts/ido/SimpleVesting.sol:SimpleVesting",
            "label": "time",
            "offset": 0,
            "slot": "0",
            "type": "t_uint128"
          },
          {
            "astId": 3053,
            "contract": "contracts/ido/SimpleVesting.sol:SimpleVesting",
            "label": "percentage",
            "offset": 16,
            "slot": "0",
            "type": "t_uint128"
          }
        ],
        "numberOfBytes": "32"
      },
      "t_struct(RoleData)19_storage": {
        "encoding": "inplace",
        "label": "struct AccessControl.RoleData",
        "members": [
          {
            "astId": 16,
            "contract": "contracts/ido/SimpleVesting.sol:SimpleVesting",
            "label": "members",
            "offset": 0,
            "slot": "0",
            "type": "t_mapping(t_address,t_bool)"
          },
          {
            "astId": 18,
            "contract": "contracts/ido/SimpleVesting.sol:SimpleVesting",
            "label": "adminRole",
            "offset": 0,
            "slot": "1",
            "type": "t_bytes32"
          }
        ],
        "numberOfBytes": "64"
      },
      "t_uint128": {
        "encoding": "inplace",
        "label": "uint128",
        "numberOfBytes": "16"
      },
      "t_uint256": {
        "encoding": "inplace",
        "label": "uint256",
        "numberOfBytes": "32"
      }
    }
  }
}