{
  "address": "0x4615ab8aCbFDB5E3DeC2EF190F3E378Ca75C742E",
  "abi": [
    {
      "inputs": [
        {
          "internalType": "address",
          "name": "tokenAddress",
          "type": "address"
        },
        {
          "internalType": "string",
          "name": "idoName",
          "type": "string"
        }
      ],
      "stateMutability": "nonpayable",
      "type": "constructor"
    },
    {
      "anonymous": false,
      "inputs": [
        {
          "indexed": true,
          "internalType": "bytes32",
          "name": "role",
          "type": "bytes32"
        },
        {
          "indexed": true,
          "internalType": "bytes32",
          "name": "previousAdminRole",
          "type": "bytes32"
        },
        {
          "indexed": true,
          "internalType": "bytes32",
          "name": "newAdminRole",
          "type": "bytes32"
        }
      ],
      "name": "RoleAdminChanged",
      "type": "event"
    },
    {
      "anonymous": false,
      "inputs": [
        {
          "indexed": true,
          "internalType": "bytes32",
          "name": "role",
          "type": "bytes32"
        },
        {
          "indexed": true,
          "internalType": "address",
          "name": "account",
          "type": "address"
        },
        {
          "indexed": true,
          "internalType": "address",
          "name": "sender",
          "type": "address"
        }
      ],
      "name": "RoleGranted",
      "type": "event"
    },
    {
      "anonymous": false,
      "inputs": [
        {
          "indexed": true,
          "internalType": "bytes32",
          "name": "role",
          "type": "bytes32"
        },
        {
          "indexed": true,
          "internalType": "address",
          "name": "account",
          "type": "address"
        },
        {
          "indexed": true,
          "internalType": "address",
          "name": "sender",
          "type": "address"
        }
      ],
      "name": "RoleRevoked",
      "type": "event"
    },
    {
      "anonymous": false,
      "inputs": [
        {
          "indexed": true,
          "internalType": "address",
          "name": "account",
          "type": "address"
        },
        {
          "indexed": false,
          "internalType": "uint256",
          "name": "amount",
          "type": "uint256"
        }
      ],
      "name": "TokenReleased",
      "type": "event"
    },
    {
      "inputs": [],
      "name": "BACKEND_ROLE",
      "outputs": [
        {
          "internalType": "bytes32",
          "name": "",
          "type": "bytes32"
        }
      ],
      "stateMutability": "view",
      "type": "function"
    },
    {
      "inputs": [],
      "name": "DEFAULT_ADMIN_ROLE",
      "outputs": [
        {
          "internalType": "bytes32",
          "name": "",
          "type": "bytes32"
        }
      ],
      "stateMutability": "view",
      "type": "function"
    },
    {
      "inputs": [
        {
          "internalType": "uint128",
          "name": "time",
          "type": "uint128"
        },
        {
          "internalType": "uint128",
          "name": "percentage",
          "type": "uint128"
        }
      ],
      "name": "addReleaseInfo",
      "outputs": [],
      "stateMutability": "nonpayable",
      "type": "function"
    },
    {
      "inputs": [
        {
          "internalType": "uint256",
          "name": "totalAmount",
          "type": "uint256"
        }
      ],
      "name": "getHash",
      "outputs": [
        {
          "internalType": "bytes32",
          "name": "",
          "type": "bytes32"
        }
      ],
      "stateMutability": "view",
      "type": "function"
    },
    {
      "inputs": [],
      "name": "getNextReleaseTime",
      "outputs": [
        {
          "internalType": "uint256",
          "name": "",
          "type": "uint256"
        }
      ],
      "stateMutability": "view",
      "type": "function"
    },
    {
      "inputs": [
        {
          "internalType": "address",
          "name": "participant",
          "type": "address"
        },
        {
          "internalType": "uint256",
          "name": "totalAmount",
          "type": "uint256"
        }
      ],
      "name": "getParticipantUnclaimedAmount",
      "outputs": [
        {
          "internalType": "uint256",
          "name": "",
          "type": "uint256"
        }
      ],
      "stateMutability": "view",
      "type": "function"
    },
    {
      "inputs": [
        {
          "internalType": "uint256",
          "name": "totalAmount",
          "type": "uint256"
        }
      ],
      "name": "getParticipantUnlockedAmount",
      "outputs": [
        {
          "internalType": "uint256",
          "name": "",
          "type": "uint256"
        }
      ],
      "stateMutability": "view",
      "type": "function"
    },
    {
      "inputs": [
        {
          "internalType": "bytes32",
          "name": "role",
          "type": "bytes32"
        }
      ],
      "name": "getRoleAdmin",
      "outputs": [
        {
          "internalType": "bytes32",
          "name": "",
          "type": "bytes32"
        }
      ],
      "stateMutability": "view",
      "type": "function"
    },
    {
      "inputs": [
        {
          "internalType": "uint256",
          "name": "totalAmount",
          "type": "uint256"
        },
        {
          "internalType": "bytes",
          "name": "signature",
          "type": "bytes"
        }
      ],
      "name": "getSigner",
      "outputs": [
        {
          "internalType": "address",
          "name": "",
          "type": "address"
        }
      ],
      "stateMutability": "view",
      "type": "function"
    },
    {
      "inputs": [
        {
          "internalType": "address",
          "name": "account",
          "type": "address"
        },
        {
          "internalType": "uint256",
          "name": "totalAmount",
          "type": "uint256"
        },
        {
          "internalType": "bytes",
          "name": "signature",
          "type": "bytes"
        }
      ],
      "name": "getSignerAcc",
      "outputs": [
        {
          "internalType": "address",
          "name": "",
          "type": "address"
        }
      ],
      "stateMutability": "view",
      "type": "function"
    },
    {
      "inputs": [
        {
          "internalType": "bytes32",
          "name": "role",
          "type": "bytes32"
        },
        {
          "internalType": "address",
          "name": "account",
          "type": "address"
        }
      ],
      "name": "grantRole",
      "outputs": [],
      "stateMutability": "nonpayable",
      "type": "function"
    },
    {
      "inputs": [
        {
          "internalType": "bytes32",
          "name": "role",
          "type": "bytes32"
        },
        {
          "internalType": "address",
          "name": "account",
          "type": "address"
        }
      ],
      "name": "hasRole",
      "outputs": [
        {
          "internalType": "bool",
          "name": "",
          "type": "bool"
        }
      ],
      "stateMutability": "view",
      "type": "function"
    },
    {
      "inputs": [],
      "name": "idoId",
      "outputs": [
        {
          "internalType": "bytes32",
          "name": "",
          "type": "bytes32"
        }
      ],
      "stateMutability": "view",
      "type": "function"
    },
    {
      "inputs": [
        {
          "internalType": "uint256",
          "name": "totalAmount",
          "type": "uint256"
        },
        {
          "internalType": "bytes",
          "name": "signature",
          "type": "bytes"
        }
      ],
      "name": "release",
      "outputs": [],
      "stateMutability": "nonpayable",
      "type": "function"
    },
    {
      "inputs": [
        {
          "internalType": "uint256",
          "name": "totalAmount",
          "type": "uint256"
        },
        {
          "internalType": "uint256",
          "name": "amount",
          "type": "uint256"
        },
        {
          "internalType": "bytes",
          "name": "signature",
          "type": "bytes"
        }
      ],
      "name": "releaseAmount",
      "outputs": [],
      "stateMutability": "nonpayable",
      "type": "function"
    },
    {
      "inputs": [
        {
          "internalType": "uint256",
          "name": "",
          "type": "uint256"
        }
      ],
      "name": "releaseInfos",
      "outputs": [
        {
          "internalType": "uint128",
          "name": "time",
          "type": "uint128"
        },
        {
          "internalType": "uint128",
          "name": "percentage",
          "type": "uint128"
        }
      ],
      "stateMutability": "view",
      "type": "function"
    },
    {
      "inputs": [
        {
          "internalType": "address",
          "name": "",
          "type": "address"
        }
      ],
      "name": "released",
      "outputs": [
        {
          "internalType": "uint256",
          "name": "",
          "type": "uint256"
        }
      ],
      "stateMutability": "view",
      "type": "function"
    },
    {
      "inputs": [
        {
          "internalType": "bytes32",
          "name": "role",
          "type": "bytes32"
        },
        {
          "internalType": "address",
          "name": "account",
          "type": "address"
        }
      ],
      "name": "renounceRole",
      "outputs": [],
      "stateMutability": "nonpayable",
      "type": "function"
    },
    {
      "inputs": [
        {
          "internalType": "bytes32",
          "name": "role",
          "type": "bytes32"
        },
        {
          "internalType": "address",
          "name": "account",
          "type": "address"
        }
      ],
      "name": "revokeRole",
      "outputs": [],
      "stateMutability": "nonpayable",
      "type": "function"
    },
    {
      "inputs": [
        {
          "internalType": "uint256",
          "name": "index",
          "type": "uint256"
        },
        {
          "internalType": "uint128",
          "name": "time",
          "type": "uint128"
        },
        {
          "internalType": "uint128",
          "name": "percentage",
          "type": "uint128"
        }
      ],
      "name": "setReleaseInfo",
      "outputs": [],
      "stateMutability": "nonpayable",
      "type": "function"
    },
    {
      "inputs": [
        {
          "internalType": "bytes4",
          "name": "interfaceId",
          "type": "bytes4"
        }
      ],
      "name": "supportsInterface",
      "outputs": [
        {
          "internalType": "bool",
          "name": "",
          "type": "bool"
        }
      ],
      "stateMutability": "view",
      "type": "function"
    },
    {
      "inputs": [],
      "name": "token",
      "outputs": [
        {
          "internalType": "address",
          "name": "",
          "type": "address"
        }
      ],
      "stateMutability": "view",
      "type": "function"
    }
  ],
  "transactionHash": "0xab070c9d27224bea26883a8295afb7aa2a085a337c4c42f2d5e5410a3f867f83",
  "args": [
    "0x87F1E00d6bcD3712031e5edD26DFcdB0FEd35D20",
    "SimpleVestingAltava2"
  ],
  "numDeployments": 2,
  "solcInputHash": "549eab361dc809de29dd0684dccde940",
  "bytecode": "0x60a06040523480156200001157600080fd5b5060405162001e7738038062001e77833981016040819052620000349162000203565b6001600160a01b0382166200008f5760405162461bcd60e51b815260206004820152601560248201527f696e76616c696420746f6b656e20616464726573730000000000000000000000604482015260640160405180910390fd5b600180546001600160a01b0319166001600160a01b038416179055604051620000bd908290602001620002de565b60408051601f198184030181529190528051602090910120608052620000e560003362000119565b620001117f25cf2b509f2a7f322675b2a5322b182f44ad2c03ac941a0af17c9b178f5d5d5f3362000119565b505062000313565b6000828152602081815260408083206001600160a01b038516845290915290205460ff16620001b6576000828152602081815260408083206001600160a01b03851684529091529020805460ff19166001179055620001753390565b6001600160a01b0316816001600160a01b0316837f2f8788117e7eff1d82e926ec794901d17c78024a50270940304540a733656f0d60405160405180910390a45b5050565b634e487b7160e01b600052604160045260246000fd5b60005b83811015620001ed578181015183820152602001620001d3565b83811115620001fd576000848401525b50505050565b600080604083850312156200021757600080fd5b82516001600160a01b03811681146200022f57600080fd5b60208401519092506001600160401b03808211156200024d57600080fd5b818501915085601f8301126200026257600080fd5b815181811115620002775762000277620001ba565b604051601f8201601f19908116603f01168101908382118183101715620002a257620002a2620001ba565b81604052828152886020848701011115620002bc57600080fd5b620002cf836020830160208801620001d0565b80955050505050509250929050565b6020815260008251806020840152620002ff816040850160208701620001d0565b601f01601f19169190910160400192915050565b608051611b2562000352600039600081816102fa015281816103b1015281816104a6015281816105c8015281816108d901526109330152611b256000f3fe608060405234801561001057600080fd5b50600436106101425760003560e01c80637ef4052c116100b85780639852595c1161007c5780639852595c146102cd578063a217fddf146102ed578063b4f0e4a7146102f5578063d547741f1461031c578063eb6905e21461032f578063fc0c546a1461036257600080fd5b80637ef4052c1461025a57806390910e9a1461026d57806391d148541461028057806392c2becc1461029357806395458ab1146102ba57600080fd5b80632f2ff15d1161010a5780632f2ff15d146101e657806336568abe146101fb578063427a740c1461020e578063534db92d146102215780636b2fafa91461023457806374fed1471461024757600080fd5b806301ffc9a7146101475780630b6a920c1461016f578063248a9ca31461019a57806324c39279146101cb578063283856d6146101d3575b600080fd5b61015a610155366004611605565b610375565b60405190151581526020015b60405180910390f35b61018261017d3660046116d2565b6103ac565b6040516001600160a01b039091168152602001610166565b6101bd6101a8366004611719565b60009081526020819052604090206001015490565b604051908152602001610166565b6101bd61041c565b6101826101e136600461174e565b6104a1565b6101f96101f43660046117a5565b610514565b005b6101f96102093660046117a5565b61053f565b6101f961021c3660046117d1565b6105c2565b6101f961022f366004611822565b61085d565b6101bd610242366004611719565b6108d4565b6101f96102553660046116d2565b61092d565b6101f961026836600461184c565b610ad5565b6101bd61027b366004611888565b610b4d565b61015a61028e3660046117a5565b610b79565b6101bd7f25cf2b509f2a7f322675b2a5322b182f44ad2c03ac941a0af17c9b178f5d5d5f81565b6101bd6102c8366004611719565b610ba2565b6101bd6102db3660046118b2565b60036020526000908152604090205481565b6101bd600081565b6101bd7f000000000000000000000000000000000000000000000000000000000000000081565b6101f961032a3660046117a5565b610c51565b61034261033d366004611719565b610c77565b604080516001600160801b03938416815292909116602083015201610166565b600154610182906001600160a01b031681565b60006001600160e01b03198216637965db0b60e01b14806103a657506301ffc9a760e01b6001600160e01b03198316145b92915050565b6000807f000000000000000000000000000000000000000000000000000000000000000033856040516020016103e4939291906118cd565b60405160208183030381529060405280519060200120905061040581610cac565b905060006104138285610cff565b95945050505050565b6000805b60025481101561049957426002828154811061043e5761043e6118f5565b6000918252602090912001546001600160801b03161115610487576002818154811061046c5761046c6118f5565b6000918252602090912001546001600160801b031692915050565b8061049181611921565b915050610420565b506000905090565b6000807f000000000000000000000000000000000000000000000000000000000000000085856040516020016104d9939291906118cd565b6040516020818303038152906040528051906020012090506104fa81610cac565b905060006105088285610cff565b925050505b9392505050565b6000828152602081905260409020600101546105308133610d23565b61053a8383610d87565b505050565b6001600160a01b03811633146105b45760405162461bcd60e51b815260206004820152602f60248201527f416363657373436f6e74726f6c3a2063616e206f6e6c792072656e6f756e636560448201526e103937b632b9903337b91039b2b63360891b60648201526084015b60405180910390fd5b6105be8282610e0b565b5050565b828160007f000000000000000000000000000000000000000000000000000000000000000033846040516020016105fb939291906118cd565b60405160208183030381529060405280519060200120905061061c81610cac565b9050600061062a8284610cff565b90506106567f25cf2b509f2a7f322675b2a5322b182f44ad2c03ac941a0af17c9b178f5d5d5f82610b79565b61069c5760405162461bcd60e51b8152602060048201526017602482015276165bdd48185c99481b9bdd081dda1a5d195b1a5cdd1959604a1b60448201526064016105ab565b60006106a83389610b4d565b9050600081116106f15760405162461bcd60e51b8152602060048201526014602482015273139bc81c995b19585cd8589b1948185b5bdd5b9d60621b60448201526064016105ab565b6000871161072e5760405162461bcd60e51b815260206004820152600a6024820152690616d6f756e74203e20360b41b60448201526064016105ab565b808711156107755760405162461bcd60e51b8152602060048201526014602482015273616d6f756e74203c3d2072656c65617361626c6560601b60448201526064016105ab565b336000908152600360205260408120805489929061079490849061193c565b909155505060405187815233907f9cf9e3ab58b33f06d81842ea0ad850b6640c6430d6396973312e1715792e7a919060200160405180910390a260015460405163a9059cbb60e01b8152336004820152602481018990526001600160a01b039091169063a9059cbb90604401602060405180830381600087803b15801561081a57600080fd5b505af115801561082e573d6000803e3d6000fd5b505050506040513d601f19601f820116820180604052508101906108529190611954565b505050505050505050565b60006108698133610d23565b50604080518082019091526001600160801b0392831681529082166020820190815260028054600181018255600091909152915190518316600160801b029216919091177f405787fa12a823e0f2b7631cc41b3ba8828b3321ca811111fa75cd3aa3bb5ace90910155565b6000807f0000000000000000000000000000000000000000000000000000000000000000338460405160200161090c939291906118cd565b60405160208183030381529060405280519060200120905061050d81610cac565b818160007f00000000000000000000000000000000000000000000000000000000000000003384604051602001610966939291906118cd565b60405160208183030381529060405280519060200120905061098781610cac565b905060006109958284610cff565b90506109c17f25cf2b509f2a7f322675b2a5322b182f44ad2c03ac941a0af17c9b178f5d5d5f82610b79565b610a075760405162461bcd60e51b8152602060048201526017602482015276165bdd48185c99481b9bdd081dda1a5d195b1a5cdd1959604a1b60448201526064016105ab565b6000610a133388610b4d565b905060008111610a5c5760405162461bcd60e51b8152602060048201526014602482015273139bc81c995b19585cd8589b1948185b5bdd5b9d60621b60448201526064016105ab565b3360009081526003602052604081208054839290610a7b90849061193c565b909155505060405181815233907f9cf9e3ab58b33f06d81842ea0ad850b6640c6430d6396973312e1715792e7a919060200160405180910390a2600154610acc906001600160a01b03163383610e70565b50505050505050565b6000610ae18133610d23565b6040518060400160405280846001600160801b03168152602001836001600160801b031681525060028581548110610b1b57610b1b6118f5565b6000918252602091829020835193909201516001600160801b03908116600160801b0293169290921791015550505050565b6001600160a01b038216600090815260036020526040812054610b6f83610ba2565b61050d9190611976565b6000918252602082815260408084206001600160a01b0393909316845291905290205460ff1690565b6002546000905b8015610c4857426002610bbd600184611976565b81548110610bcd57610bcd6118f5565b6000918252602090912001546001600160801b031611610c365760646002610bf6600184611976565b81548110610c0657610c066118f5565b600091825260209091200154610c2c90600160801b90046001600160801b03168561198d565b61050d91906119ac565b80610c40816119ce565b915050610ba9565b50600092915050565b600082815260208190526040902060010154610c6d8133610d23565b61053a8383610e0b565b60028181548110610c8757600080fd5b6000918252602090912001546001600160801b038082169250600160801b9091041682565b6040517f19457468657265756d205369676e6564204d6573736167653a0a3332000000006020820152603c8101829052600090605c01604051602081830303815290604052805190602001209050919050565b6000806000610d0e8585610ec2565b91509150610d1b81610f32565b509392505050565b610d2d8282610b79565b6105be57610d45816001600160a01b031660146110f0565b610d508360206110f0565b604051602001610d61929190611a15565b60408051601f198184030181529082905262461bcd60e51b82526105ab91600401611a8a565b610d918282610b79565b6105be576000828152602081815260408083206001600160a01b03851684529091529020805460ff19166001179055610dc73390565b6001600160a01b0316816001600160a01b0316837f2f8788117e7eff1d82e926ec794901d17c78024a50270940304540a733656f0d60405160405180910390a45050565b610e158282610b79565b156105be576000828152602081815260408083206001600160a01b0385168085529252808320805460ff1916905551339285917ff6391f5c32d9c69d2a47ea670b442974b53935d1edc7fd64eb21e047a839171b9190a45050565b604080516001600160a01b038416602482015260448082018490528251808303909101815260649091019091526020810180516001600160e01b031663a9059cbb60e01b17905261053a90849061128c565b600080825160411415610ef95760208301516040840151606085015160001a610eed8782858561135e565b94509450505050610f2b565b825160401415610f235760208301516040840151610f1886838361144b565b935093505050610f2b565b506000905060025b9250929050565b6000816004811115610f4657610f46611abd565b1415610f4f5750565b6001816004811115610f6357610f63611abd565b1415610fb15760405162461bcd60e51b815260206004820152601860248201527f45434453413a20696e76616c6964207369676e6174757265000000000000000060448201526064016105ab565b6002816004811115610fc557610fc5611abd565b14156110135760405162461bcd60e51b815260206004820152601f60248201527f45434453413a20696e76616c6964207369676e6174757265206c656e6774680060448201526064016105ab565b600381600481111561102757611027611abd565b14156110805760405162461bcd60e51b815260206004820152602260248201527f45434453413a20696e76616c6964207369676e6174757265202773272076616c604482015261756560f01b60648201526084016105ab565b600481600481111561109457611094611abd565b14156110ed5760405162461bcd60e51b815260206004820152602260248201527f45434453413a20696e76616c6964207369676e6174757265202776272076616c604482015261756560f01b60648201526084016105ab565b50565b606060006110ff83600261198d565b61110a90600261193c565b67ffffffffffffffff8111156111225761112261162f565b6040519080825280601f01601f19166020018201604052801561114c576020820181803683370190505b509050600360fc1b81600081518110611167576111676118f5565b60200101906001600160f81b031916908160001a905350600f60fb1b81600181518110611196576111966118f5565b60200101906001600160f81b031916908160001a90535060006111ba84600261198d565b6111c590600161193c565b90505b600181111561123d576f181899199a1a9b1b9c1cb0b131b232b360811b85600f16601081106111f9576111f96118f5565b1a60f81b82828151811061120f5761120f6118f5565b60200101906001600160f81b031916908160001a90535060049490941c93611236816119ce565b90506111c8565b50831561050d5760405162461bcd60e51b815260206004820181905260248201527f537472696e67733a20686578206c656e67746820696e73756666696369656e7460448201526064016105ab565b60006112e1826040518060400160405280602081526020017f5361666545524332303a206c6f772d6c6576656c2063616c6c206661696c6564815250856001600160a01b03166114849092919063ffffffff16565b80519091501561053a57808060200190518101906112ff9190611954565b61053a5760405162461bcd60e51b815260206004820152602a60248201527f5361666545524332303a204552433230206f7065726174696f6e20646964206e6044820152691bdd081cdd58d8d9595960b21b60648201526084016105ab565b6000807f7fffffffffffffffffffffffffffffff5d576e7357a4501ddfe92f46681b20a08311156113955750600090506003611442565b8460ff16601b141580156113ad57508460ff16601c14155b156113be5750600090506004611442565b6040805160008082526020820180845289905260ff881692820192909252606081018690526080810185905260019060a0016020604051602081039080840390855afa158015611412573d6000803e3d6000fd5b5050604051601f1901519150506001600160a01b03811661143b57600060019250925050611442565b9150600090505b94509492505050565b6000806001600160ff1b0383168161146860ff86901c601b61193c565b90506114768782888561135e565b935093505050935093915050565b6060611493848460008561149b565b949350505050565b6060824710156114fc5760405162461bcd60e51b815260206004820152602660248201527f416464726573733a20696e73756666696369656e742062616c616e636520666f6044820152651c8818d85b1b60d21b60648201526084016105ab565b6001600160a01b0385163b6115535760405162461bcd60e51b815260206004820152601d60248201527f416464726573733a2063616c6c20746f206e6f6e2d636f6e747261637400000060448201526064016105ab565b600080866001600160a01b0316858760405161156f9190611ad3565b60006040518083038185875af1925050503d80600081146115ac576040519150601f19603f3d011682016040523d82523d6000602084013e6115b1565b606091505b50915091506115c18282866115cc565b979650505050505050565b606083156115db57508161050d565b8251156115eb5782518084602001fd5b8160405162461bcd60e51b81526004016105ab9190611a8a565b60006020828403121561161757600080fd5b81356001600160e01b03198116811461050d57600080fd5b634e487b7160e01b600052604160045260246000fd5b600082601f83011261165657600080fd5b813567ffffffffffffffff808211156116715761167161162f565b604051601f8301601f19908116603f011681019082821181831017156116995761169961162f565b816040528381528660208588010111156116b257600080fd5b836020870160208301376000602085830101528094505050505092915050565b600080604083850312156116e557600080fd5b82359150602083013567ffffffffffffffff81111561170357600080fd5b61170f85828601611645565b9150509250929050565b60006020828403121561172b57600080fd5b5035919050565b80356001600160a01b038116811461174957600080fd5b919050565b60008060006060848603121561176357600080fd5b61176c84611732565b925060208401359150604084013567ffffffffffffffff81111561178f57600080fd5b61179b86828701611645565b9150509250925092565b600080604083850312156117b857600080fd5b823591506117c860208401611732565b90509250929050565b6000806000606084860312156117e657600080fd5b8335925060208401359150604084013567ffffffffffffffff81111561178f57600080fd5b80356001600160801b038116811461174957600080fd5b6000806040838503121561183557600080fd5b61183e8361180b565b91506117c86020840161180b565b60008060006060848603121561186157600080fd5b833592506118716020850161180b565b915061187f6040850161180b565b90509250925092565b6000806040838503121561189b57600080fd5b6118a483611732565b946020939093013593505050565b6000602082840312156118c457600080fd5b61050d82611732565b92835260609190911b6bffffffffffffffffffffffff19166020830152603482015260540190565b634e487b7160e01b600052603260045260246000fd5b634e487b7160e01b600052601160045260246000fd5b60006000198214156119355761193561190b565b5060010190565b6000821982111561194f5761194f61190b565b500190565b60006020828403121561196657600080fd5b8151801515811461050d57600080fd5b6000828210156119885761198861190b565b500390565b60008160001904831182151516156119a7576119a761190b565b500290565b6000826119c957634e487b7160e01b600052601260045260246000fd5b500490565b6000816119dd576119dd61190b565b506000190190565b60005b83811015611a005781810151838201526020016119e8565b83811115611a0f576000848401525b50505050565b7f416363657373436f6e74726f6c3a206163636f756e7420000000000000000000815260008351611a4d8160178501602088016119e5565b7001034b99036b4b9b9b4b733903937b6329607d1b6017918401918201528351611a7e8160288401602088016119e5565b01602801949350505050565b6020815260008251806020840152611aa98160408501602087016119e5565b601f01601f19169190910160400192915050565b634e487b7160e01b600052602160045260246000fd5b60008251611ae58184602087016119e5565b919091019291505056fea2646970667358221220d7ef71e3a24ae7754ca00da02380b221a4aa70faf322705e0a9a9650045c20ed64736f6c63430008090033",
  "devdoc": {
    "kind": "dev",
    "methods": {
      "getRoleAdmin(bytes32)": {
        "details": "Returns the admin role that controls `role`. See {grantRole} and {revokeRole}. To change a role's admin, use {_setRoleAdmin}."
      },
      "grantRole(bytes32,address)": {
        "details": "Grants `role` to `account`. If `account` had not been already granted `role`, emits a {RoleGranted} event. Requirements: - the caller must have ``role``'s admin role."
      },
      "hasRole(bytes32,address)": {
        "details": "Returns `true` if `account` has been granted `role`."
      },
      "renounceRole(bytes32,address)": {
        "details": "Revokes `role` from the calling account. Roles are often managed via {grantRole} and {revokeRole}: this function's purpose is to provide a mechanism for accounts to lose their privileges if they are compromised (such as when a trusted device is misplaced). If the calling account had been revoked `role`, emits a {RoleRevoked} event. Requirements: - the caller must be `account`."
      },
      "revokeRole(bytes32,address)": {
        "details": "Revokes `role` from `account`. If `account` had been granted `role`, emits a {RoleRevoked} event. Requirements: - the caller must have ``role``'s admin role."
      },
      "supportsInterface(bytes4)": {
        "details": "See {IERC165-supportsInterface}."
      }
    },
    "version": 1
  },
  "userdoc": {
    "kind": "user",
    "methods": {},
    "version": 1
  },
  "storageLayout": {
    "storage": [
      {
        "astId": 24,
        "contract": "contracts/ido/SimpleVesting.sol:SimpleVesting",
        "label": "_roles",
        "offset": 0,
        "slot": "0",
        "type": "t_mapping(t_bytes32,t_struct(RoleData)19_storage)"
      },
      {
        "astId": 3049,
        "contract": "contracts/ido/SimpleVesting.sol:SimpleVesting",
        "label": "token",
        "offset": 0,
        "slot": "1",
        "type": "t_address"
      },
      {
        "astId": 3058,
        "contract": "contracts/ido/SimpleVesting.sol:SimpleVesting",
        "label": "releaseInfos",
        "offset": 0,
        "slot": "2",
        "type": "t_array(t_struct(ReleaseInfo)3054_storage)dyn_storage"
      },
      {
        "astId": 3062,
        "contract": "contracts/ido/SimpleVesting.sol:SimpleVesting",
        "label": "released",
        "offset": 0,
        "slot": "3",
        "type": "t_mapping(t_address,t_uint256)"
      }
    ],
    "types": {
      "t_address": {
        "encoding": "inplace",
        "label": "address",
        "numberOfBytes": "20"
      },
      "t_array(t_struct(ReleaseInfo)3054_storage)dyn_storage": {
        "base": "t_struct(ReleaseInfo)3054_storage",
        "encoding": "dynamic_array",
        "label": "struct SimpleVesting.ReleaseInfo[]",
        "numberOfBytes": "32"
      },
      "t_bool": {
        "encoding": "inplace",
        "label": "bool",
        "numberOfBytes": "1"
      },
      "t_bytes32": {
        "encoding": "inplace",
        "label": "bytes32",
        "numberOfBytes": "32"
      },
      "t_mapping(t_address,t_bool)": {
        "encoding": "mapping",
        "key": "t_address",
        "label": "mapping(address => bool)",
        "numberOfBytes": "32",
        "value": "t_bool"
      },
      "t_mapping(t_address,t_uint256)": {
        "encoding": "mapping",
        "key": "t_address",
        "label": "mapping(address => uint256)",
        "numberOfBytes": "32",
        "value": "t_uint256"
      },
      "t_mapping(t_bytes32,t_struct(RoleData)19_storage)": {
        "encoding": "mapping",
        "key": "t_bytes32",
        "label": "mapping(bytes32 => struct AccessControl.RoleData)",
        "numberOfBytes": "32",
        "value": "t_struct(RoleData)19_storage"
      },
      "t_struct(ReleaseInfo)3054_storage": {
        "encoding": "inplace",
        "label": "struct SimpleVesting.ReleaseInfo",
        "members": [
          {
            "astId": 3051,
            "contract": "contracts/ido/SimpleVesting.sol:SimpleVesting",
            "label": "time",
            "offset": 0,
            "slot": "0",
            "type": "t_uint128"
          },
          {
            "astId": 3053,
            "contract": "contracts/ido/SimpleVesting.sol:SimpleVesting",
            "label": "percentage",
            "offset": 16,
            "slot": "0",
            "type": "t_uint128"
          }
        ],
        "numberOfBytes": "32"
      },
      "t_struct(RoleData)19_storage": {
        "encoding": "inplace",
        "label": "struct AccessControl.RoleData",
        "members": [
          {
            "astId": 16,
            "contract": "contracts/ido/SimpleVesting.sol:SimpleVesting",
            "label": "members",
            "offset": 0,
            "slot": "0",
            "type": "t_mapping(t_address,t_bool)"
          },
          {
            "astId": 18,
            "contract": "contracts/ido/SimpleVesting.sol:SimpleVesting",
            "label": "adminRole",
            "offset": 0,
            "slot": "1",
            "type": "t_bytes32"
          }
        ],
        "numberOfBytes": "64"
      },
      "t_uint128": {
        "encoding": "inplace",
        "label": "uint128",
        "numberOfBytes": "16"
      },
      "t_uint256": {
        "encoding": "inplace",
        "label": "uint256",
        "numberOfBytes": "32"
      }
    }
  }
}