{
  "address": "0xB5438B20Fb7E579c73397A9c71A85ce123BCd473",
  "abi": [
    {
      "inputs": [
        {
          "internalType": "address",
          "name": "tokenAddress",
          "type": "address"
        },
        {
          "internalType": "string",
          "name": "idoName",
          "type": "string"
        }
      ],
      "stateMutability": "nonpayable",
      "type": "constructor"
    },
    {
      "anonymous": false,
      "inputs": [
        {
          "indexed": true,
          "internalType": "bytes32",
          "name": "role",
          "type": "bytes32"
        },
        {
          "indexed": true,
          "internalType": "bytes32",
          "name": "previousAdminRole",
          "type": "bytes32"
        },
        {
          "indexed": true,
          "internalType": "bytes32",
          "name": "newAdminRole",
          "type": "bytes32"
        }
      ],
      "name": "RoleAdminChanged",
      "type": "event"
    },
    {
      "anonymous": false,
      "inputs": [
        {
          "indexed": true,
          "internalType": "bytes32",
          "name": "role",
          "type": "bytes32"
        },
        {
          "indexed": true,
          "internalType": "address",
          "name": "account",
          "type": "address"
        },
        {
          "indexed": true,
          "internalType": "address",
          "name": "sender",
          "type": "address"
        }
      ],
      "name": "RoleGranted",
      "type": "event"
    },
    {
      "anonymous": false,
      "inputs": [
        {
          "indexed": true,
          "internalType": "bytes32",
          "name": "role",
          "type": "bytes32"
        },
        {
          "indexed": true,
          "internalType": "address",
          "name": "account",
          "type": "address"
        },
        {
          "indexed": true,
          "internalType": "address",
          "name": "sender",
          "type": "address"
        }
      ],
      "name": "RoleRevoked",
      "type": "event"
    },
    {
      "anonymous": false,
      "inputs": [
        {
          "indexed": true,
          "internalType": "address",
          "name": "account",
          "type": "address"
        },
        {
          "indexed": false,
          "internalType": "uint256",
          "name": "amount",
          "type": "uint256"
        }
      ],
      "name": "TokenReleased",
      "type": "event"
    },
    {
      "inputs": [],
      "name": "BACKEND_ROLE",
      "outputs": [
        {
          "internalType": "bytes32",
          "name": "",
          "type": "bytes32"
        }
      ],
      "stateMutability": "view",
      "type": "function"
    },
    {
      "inputs": [],
      "name": "DEFAULT_ADMIN_ROLE",
      "outputs": [
        {
          "internalType": "bytes32",
          "name": "",
          "type": "bytes32"
        }
      ],
      "stateMutability": "view",
      "type": "function"
    },
    {
      "inputs": [
        {
          "internalType": "uint128",
          "name": "time",
          "type": "uint128"
        },
        {
          "internalType": "uint128",
          "name": "percentage",
          "type": "uint128"
        }
      ],
      "name": "addReleaseInfo",
      "outputs": [],
      "stateMutability": "nonpayable",
      "type": "function"
    },
    {
      "inputs": [
        {
          "internalType": "uint256",
          "name": "totalAmount",
          "type": "uint256"
        }
      ],
      "name": "getHash",
      "outputs": [
        {
          "internalType": "bytes32",
          "name": "",
          "type": "bytes32"
        }
      ],
      "stateMutability": "view",
      "type": "function"
    },
    {
      "inputs": [],
      "name": "getNextReleaseTime",
      "outputs": [
        {
          "internalType": "uint256",
          "name": "",
          "type": "uint256"
        }
      ],
      "stateMutability": "view",
      "type": "function"
    },
    {
      "inputs": [
        {
          "internalType": "address",
          "name": "participant",
          "type": "address"
        },
        {
          "internalType": "uint256",
          "name": "totalAmount",
          "type": "uint256"
        }
      ],
      "name": "getParticipantUnclaimedAmount",
      "outputs": [
        {
          "internalType": "uint256",
          "name": "",
          "type": "uint256"
        }
      ],
      "stateMutability": "view",
      "type": "function"
    },
    {
      "inputs": [
        {
          "internalType": "uint256",
          "name": "totalAmount",
          "type": "uint256"
        }
      ],
      "name": "getParticipantUnlockedAmount",
      "outputs": [
        {
          "internalType": "uint256",
          "name": "",
          "type": "uint256"
        }
      ],
      "stateMutability": "view",
      "type": "function"
    },
    {
      "inputs": [
        {
          "internalType": "bytes32",
          "name": "role",
          "type": "bytes32"
        }
      ],
      "name": "getRoleAdmin",
      "outputs": [
        {
          "internalType": "bytes32",
          "name": "",
          "type": "bytes32"
        }
      ],
      "stateMutability": "view",
      "type": "function"
    },
    {
      "inputs": [
        {
          "internalType": "uint256",
          "name": "totalAmount",
          "type": "uint256"
        },
        {
          "internalType": "bytes",
          "name": "signature",
          "type": "bytes"
        }
      ],
      "name": "getSigner",
      "outputs": [
        {
          "internalType": "address",
          "name": "",
          "type": "address"
        }
      ],
      "stateMutability": "view",
      "type": "function"
    },
    {
      "inputs": [
        {
          "internalType": "address",
          "name": "account",
          "type": "address"
        },
        {
          "internalType": "uint256",
          "name": "totalAmount",
          "type": "uint256"
        },
        {
          "internalType": "bytes",
          "name": "signature",
          "type": "bytes"
        }
      ],
      "name": "getSignerAcc",
      "outputs": [
        {
          "internalType": "address",
          "name": "",
          "type": "address"
        }
      ],
      "stateMutability": "view",
      "type": "function"
    },
    {
      "inputs": [
        {
          "internalType": "bytes32",
          "name": "role",
          "type": "bytes32"
        },
        {
          "internalType": "address",
          "name": "account",
          "type": "address"
        }
      ],
      "name": "grantRole",
      "outputs": [],
      "stateMutability": "nonpayable",
      "type": "function"
    },
    {
      "inputs": [
        {
          "internalType": "bytes32",
          "name": "role",
          "type": "bytes32"
        },
        {
          "internalType": "address",
          "name": "account",
          "type": "address"
        }
      ],
      "name": "hasRole",
      "outputs": [
        {
          "internalType": "bool",
          "name": "",
          "type": "bool"
        }
      ],
      "stateMutability": "view",
      "type": "function"
    },
    {
      "inputs": [],
      "name": "idoId",
      "outputs": [
        {
          "internalType": "bytes32",
          "name": "",
          "type": "bytes32"
        }
      ],
      "stateMutability": "view",
      "type": "function"
    },
    {
      "inputs": [
        {
          "internalType": "uint256",
          "name": "totalAmount",
          "type": "uint256"
        },
        {
          "internalType": "bytes",
          "name": "signature",
          "type": "bytes"
        }
      ],
      "name": "release",
      "outputs": [],
      "stateMutability": "nonpayable",
      "type": "function"
    },
    {
      "inputs": [
        {
          "internalType": "uint256",
          "name": "totalAmount",
          "type": "uint256"
        },
        {
          "internalType": "uint256",
          "name": "amount",
          "type": "uint256"
        },
        {
          "internalType": "bytes",
          "name": "signature",
          "type": "bytes"
        }
      ],
      "name": "releaseAmount",
      "outputs": [],
      "stateMutability": "nonpayable",
      "type": "function"
    },
    {
      "inputs": [
        {
          "internalType": "uint256",
          "name": "",
          "type": "uint256"
        }
      ],
      "name": "releaseInfos",
      "outputs": [
        {
          "internalType": "uint128",
          "name": "time",
          "type": "uint128"
        },
        {
          "internalType": "uint128",
          "name": "percentage",
          "type": "uint128"
        }
      ],
      "stateMutability": "view",
      "type": "function"
    },
    {
      "inputs": [
        {
          "internalType": "address",
          "name": "",
          "type": "address"
        }
      ],
      "name": "released",
      "outputs": [
        {
          "internalType": "uint256",
          "name": "",
          "type": "uint256"
        }
      ],
      "stateMutability": "view",
      "type": "function"
    },
    {
      "inputs": [
        {
          "internalType": "bytes32",
          "name": "role",
          "type": "bytes32"
        },
        {
          "internalType": "address",
          "name": "account",
          "type": "address"
        }
      ],
      "name": "renounceRole",
      "outputs": [],
      "stateMutability": "nonpayable",
      "type": "function"
    },
    {
      "inputs": [
        {
          "internalType": "bytes32",
          "name": "role",
          "type": "bytes32"
        },
        {
          "internalType": "address",
          "name": "account",
          "type": "address"
        }
      ],
      "name": "revokeRole",
      "outputs": [],
      "stateMutability": "nonpayable",
      "type": "function"
    },
    {
      "inputs": [
        {
          "internalType": "uint256",
          "name": "index",
          "type": "uint256"
        },
        {
          "internalType": "uint128",
          "name": "time",
          "type": "uint128"
        },
        {
          "internalType": "uint128",
          "name": "percentage",
          "type": "uint128"
        }
      ],
      "name": "setReleaseInfo",
      "outputs": [],
      "stateMutability": "nonpayable",
      "type": "function"
    },
    {
      "inputs": [
        {
          "internalType": "bytes4",
          "name": "interfaceId",
          "type": "bytes4"
        }
      ],
      "name": "supportsInterface",
      "outputs": [
        {
          "internalType": "bool",
          "name": "",
          "type": "bool"
        }
      ],
      "stateMutability": "view",
      "type": "function"
    },
    {
      "inputs": [],
      "name": "token",
      "outputs": [
        {
          "internalType": "address",
          "name": "",
          "type": "address"
        }
      ],
      "stateMutability": "view",
      "type": "function"
    }
  ],
  "transactionHash": "0x608594c31f25812898d2516ac08813c04cd466a5543b33cc3d5eb49712b5a301",
  "args": [
    "0x87F1E00d6bcD3712031e5edD26DFcdB0FEd35D20",
    "SimpleVestingAltava"
  ],
  "numDeployments": 1,
  "solcInputHash": "0f7805715a0bd17451c1d719e53ebfdd",
  "bytecode": "0x60a06040523480156200001157600080fd5b50604051620027c7380380620027c7833981016040819052620000349162000203565b6001600160a01b0382166200008f5760405162461bcd60e51b815260206004820152601560248201527f696e76616c696420746f6b656e20616464726573730000000000000000000000604482015260640160405180910390fd5b600180546001600160a01b0319166001600160a01b038416179055604051620000bd908290602001620002de565b60408051601f198184030181529190528051602090910120608052620000e560003362000119565b620001117f25cf2b509f2a7f322675b2a5322b182f44ad2c03ac941a0af17c9b178f5d5d5f3362000119565b505062000313565b6000828152602081815260408083206001600160a01b038516845290915290205460ff16620001b6576000828152602081815260408083206001600160a01b03851684529091529020805460ff19166001179055620001753390565b6001600160a01b0316816001600160a01b0316837f2f8788117e7eff1d82e926ec794901d17c78024a50270940304540a733656f0d60405160405180910390a45b5050565b634e487b7160e01b600052604160045260246000fd5b60005b83811015620001ed578181015183820152602001620001d3565b83811115620001fd576000848401525b50505050565b600080604083850312156200021757600080fd5b82516001600160a01b03811681146200022f57600080fd5b60208401519092506001600160401b03808211156200024d57600080fd5b818501915085601f8301126200026257600080fd5b815181811115620002775762000277620001ba565b604051601f8201601f19908116603f01168101908382118183101715620002a257620002a2620001ba565b81604052828152886020848701011115620002bc57600080fd5b620002cf836020830160208801620001d0565b80955050505050509250929050565b6020815260008251806020840152620002ff816040850160208701620001d0565b601f01601f19169190910160400192915050565b6080516124756200035260003960008181610378015281816104a801528181610613015281816107ce01528181610c320152610cf601526124756000f3fe608060405234801561001057600080fd5b50600436106101825760003560e01c80637ef4052c116100d85780639852595c1161008c578063d547741f11610066578063d547741f1461039a578063eb6905e2146103ad578063fc0c546a146103e957600080fd5b80639852595c1461034b578063a217fddf1461036b578063b4f0e4a71461037357600080fd5b806391d14854116100bd57806391d14854146102cd57806392c2becc1461031157806395458ab11461033857600080fd5b80637ef4052c146102a757806390910e9a146102ba57600080fd5b80632f2ff15d1161013a578063534db92d11610114578063534db92d1461026e5780636b2fafa91461028157806374fed1471461029457600080fd5b80632f2ff15d1461023357806336568abe14610248578063427a740c1461025b57600080fd5b8063248a9ca31161016b578063248a9ca3146101e757806324c3927914610218578063283856d61461022057600080fd5b806301ffc9a7146101875780630b6a920c146101af575b600080fd5b61019a610195366004611e30565b610409565b60405190151581526020015b60405180910390f35b6101c26101bd366004611f4c565b6104a2565b60405173ffffffffffffffffffffffffffffffffffffffff90911681526020016101a6565b61020a6101f5366004611f93565b60009081526020819052604090206001015490565b6040519081526020016101a6565b61020a610576565b6101c261022e366004611fd5565b61060d565b61024661024136600461202c565b6106e5565b005b61024661025636600461202c565b610710565b610246610269366004612058565b6107c8565b61024661027c3660046120b2565b610b9f565b61020a61028f366004611f93565b610c2c565b6102466102a2366004611f4c565b610cf0565b6102466102b53660046120dc565b610f6b565b61020a6102c8366004612118565b61100b565b61019a6102db36600461202c565b60009182526020828152604080842073ffffffffffffffffffffffffffffffffffffffff93909316845291905290205460ff1690565b61020a7f25cf2b509f2a7f322675b2a5322b182f44ad2c03ac941a0af17c9b178f5d5d5f81565b61020a610346366004611f93565b611044565b61020a610359366004612142565b60036020526000908152604090205481565b61020a600081565b61020a7f000000000000000000000000000000000000000000000000000000000000000081565b6102466103a836600461202c565b611112565b6103c06103bb366004611f93565b611138565b604080516fffffffffffffffffffffffffffffffff9384168152929091166020830152016101a6565b6001546101c29073ffffffffffffffffffffffffffffffffffffffff1681565b60007fffffffff0000000000000000000000000000000000000000000000000000000082167f7965db0b00000000000000000000000000000000000000000000000000000000148061049c57507f01ffc9a7000000000000000000000000000000000000000000000000000000007fffffffff000000000000000000000000000000000000000000000000000000008316145b92915050565b604080517f00000000000000000000000000000000000000000000000000000000000000006020808301919091523360601b7fffffffffffffffffffffffffffffffffffffffff00000000000000000000000016828401526054808301869052835180840390910181526074830184528051908201207f19457468657265756d205369676e6564204d6573736167653a0a333200000000609484015260b08084018290528451808503909101815260d0909301909352815191012060009150600061056d8285611183565b95945050505050565b6000805b6002548110156106055742600282815481106105985761059861215d565b6000918252602090912001546fffffffffffffffffffffffffffffffff1611156105f357600281815481106105cf576105cf61215d565b6000918252602090912001546fffffffffffffffffffffffffffffffff1692915050565b806105fd816121bb565b91505061057a565b506000905090565b604080517f0000000000000000000000000000000000000000000000000000000000000000602080830191909152606086901b7fffffffffffffffffffffffffffffffffffffffff00000000000000000000000016828401526054808301869052835180840390910181526074830184528051908201207f19457468657265756d205369676e6564204d6573736167653a0a333200000000609484015260b08084018290528451808503909101815260d090930190935281519101206000915060006106d98285611183565b925050505b9392505050565b60008281526020819052604090206001015461070181336111a7565b61070b8383611277565b505050565b73ffffffffffffffffffffffffffffffffffffffff811633146107ba576040517f08c379a000000000000000000000000000000000000000000000000000000000815260206004820152602f60248201527f416363657373436f6e74726f6c3a2063616e206f6e6c792072656e6f756e636560448201527f20726f6c657320666f722073656c66000000000000000000000000000000000060648201526084015b60405180910390fd5b6107c48282611367565b5050565b604080517f00000000000000000000000000000000000000000000000000000000000000006020808301919091527fffffffffffffffffffffffffffffffffffffffff0000000000000000000000003360601b16828401526054808301879052835180840390910181526074830184528051908201207f19457468657265756d205369676e6564204d6573736167653a0a333200000000609484015260b0808401919091528351808403909101815260d090920190925280519101208390829060006108948284611183565b73ffffffffffffffffffffffffffffffffffffffff811660009081527f48c7bdbf6e737fbd4f28e9ac2ee21ca1cecfc20cb008a302f41dcc98ef949678602052604090205490915060ff16610945576040517f08c379a000000000000000000000000000000000000000000000000000000000815260206004820152601760248201527f596f7520617265206e6f742077686974656c697374656400000000000000000060448201526064016107b1565b6000610951338961100b565b9050600081116109bd576040517f08c379a000000000000000000000000000000000000000000000000000000000815260206004820152601460248201527f4e6f2072656c65617361626c6520616d6f756e7400000000000000000000000060448201526064016107b1565b60008711610a27576040517f08c379a000000000000000000000000000000000000000000000000000000000815260206004820152600a60248201527f616d6f756e74203e20300000000000000000000000000000000000000000000060448201526064016107b1565b80871115610a91576040517f08c379a000000000000000000000000000000000000000000000000000000000815260206004820152601460248201527f616d6f756e74203c3d2072656c65617361626c6500000000000000000000000060448201526064016107b1565b3360009081526003602052604081208054899290610ab09084906121f4565b909155505060405187815233907f9cf9e3ab58b33f06d81842ea0ad850b6640c6430d6396973312e1715792e7a919060200160405180910390a26001546040517fa9059cbb0000000000000000000000000000000000000000000000000000000081523360048201526024810189905273ffffffffffffffffffffffffffffffffffffffff9091169063a9059cbb90604401602060405180830381600087803b158015610b5c57600080fd5b505af1158015610b70573d6000803e3d6000fd5b505050506040513d601f19601f82011682018060405250810190610b94919061220c565b505050505050505050565b6000610bab81336111a7565b50604080518082019091526fffffffffffffffffffffffffffffffff92831681529082166020820190815260028054600181018255600091909152915190518316700100000000000000000000000000000000029216919091177f405787fa12a823e0f2b7631cc41b3ba8828b3321ca811111fa75cd3aa3bb5ace90910155565b604080517f00000000000000000000000000000000000000000000000000000000000000006020808301919091523360601b7fffffffffffffffffffffffffffffffffffffffff00000000000000000000000016828401526054808301859052835180840390910181526074830184528051908201207f19457468657265756d205369676e6564204d6573736167653a0a333200000000609484015260b08084018290528451808503909101815260d09093019093528151910120600091906106de565b604080517f00000000000000000000000000000000000000000000000000000000000000006020808301919091527fffffffffffffffffffffffffffffffffffffffff0000000000000000000000003360601b16828401526054808301869052835180840390910181526074830184528051908201207f19457468657265756d205369676e6564204d6573736167653a0a333200000000609484015260b0808401919091528351808403909101815260d09092019092528051910120829082906000610dbc8284611183565b73ffffffffffffffffffffffffffffffffffffffff811660009081527f48c7bdbf6e737fbd4f28e9ac2ee21ca1cecfc20cb008a302f41dcc98ef949678602052604090205490915060ff16610e6d576040517f08c379a000000000000000000000000000000000000000000000000000000000815260206004820152601760248201527f596f7520617265206e6f742077686974656c697374656400000000000000000060448201526064016107b1565b6000610e79338861100b565b905060008111610ee5576040517f08c379a000000000000000000000000000000000000000000000000000000000815260206004820152601460248201527f4e6f2072656c65617361626c6520616d6f756e7400000000000000000000000060448201526064016107b1565b3360009081526003602052604081208054839290610f049084906121f4565b909155505060405181815233907f9cf9e3ab58b33f06d81842ea0ad850b6640c6430d6396973312e1715792e7a919060200160405180910390a2600154610f629073ffffffffffffffffffffffffffffffffffffffff16338361141e565b50505050505050565b6000610f7781336111a7565b6040518060400160405280846fffffffffffffffffffffffffffffffff168152602001836fffffffffffffffffffffffffffffffff1681525060028581548110610fc357610fc361215d565b6000918252602091829020835193909201516fffffffffffffffffffffffffffffffff9081167001000000000000000000000000000000000293169290921791015550505050565b73ffffffffffffffffffffffffffffffffffffffff821660009081526003602052604081205461103a83611044565b6106de919061222e565b6002546000905b80156111095742600261105f60018461222e565b8154811061106f5761106f61215d565b6000918252602090912001546fffffffffffffffffffffffffffffffff16116110f757606460026110a160018461222e565b815481106110b1576110b161215d565b6000918252602090912001546110ed9070010000000000000000000000000000000090046fffffffffffffffffffffffffffffffff1685612245565b6106de9190612282565b80611101816122bd565b91505061104b565b50600092915050565b60008281526020819052604090206001015461112e81336111a7565b61070b8383611367565b6002818154811061114857600080fd5b6000918252602090912001546fffffffffffffffffffffffffffffffff80821692507001000000000000000000000000000000009091041682565b600080600061119285856114ab565b9150915061119f8161151b565b509392505050565b60008281526020818152604080832073ffffffffffffffffffffffffffffffffffffffff8516845290915290205460ff166107c4576111fd8173ffffffffffffffffffffffffffffffffffffffff166014611777565b611208836020611777565b604051602001611219929190612322565b604080517fffffffffffffffffffffffffffffffffffffffffffffffffffffffffffffffe0818403018152908290527f08c379a00000000000000000000000000000000000000000000000000000000082526107b1916004016123a3565b60008281526020818152604080832073ffffffffffffffffffffffffffffffffffffffff8516845290915290205460ff166107c45760008281526020818152604080832073ffffffffffffffffffffffffffffffffffffffff85168452909152902080547fffffffffffffffffffffffffffffffffffffffffffffffffffffffffffffff001660011790556113093390565b73ffffffffffffffffffffffffffffffffffffffff168173ffffffffffffffffffffffffffffffffffffffff16837f2f8788117e7eff1d82e926ec794901d17c78024a50270940304540a733656f0d60405160405180910390a45050565b60008281526020818152604080832073ffffffffffffffffffffffffffffffffffffffff8516845290915290205460ff16156107c45760008281526020818152604080832073ffffffffffffffffffffffffffffffffffffffff8516808552925280832080547fffffffffffffffffffffffffffffffffffffffffffffffffffffffffffffff0016905551339285917ff6391f5c32d9c69d2a47ea670b442974b53935d1edc7fd64eb21e047a839171b9190a45050565b6040805173ffffffffffffffffffffffffffffffffffffffff8416602482015260448082018490528251808303909101815260649091019091526020810180517bffffffffffffffffffffffffffffffffffffffffffffffffffffffff167fa9059cbb0000000000000000000000000000000000000000000000000000000017905261070b9084906119ba565b6000808251604114156114e25760208301516040840151606085015160001a6114d687828585611ac6565b94509450505050611514565b82516040141561150c5760208301516040840151611501868383611bde565b935093505050611514565b506000905060025b9250929050565b600081600481111561152f5761152f6123f4565b14156115385750565b600181600481111561154c5761154c6123f4565b14156115b4576040517f08c379a000000000000000000000000000000000000000000000000000000000815260206004820152601860248201527f45434453413a20696e76616c6964207369676e6174757265000000000000000060448201526064016107b1565b60028160048111156115c8576115c86123f4565b1415611630576040517f08c379a000000000000000000000000000000000000000000000000000000000815260206004820152601f60248201527f45434453413a20696e76616c6964207369676e6174757265206c656e6774680060448201526064016107b1565b6003816004811115611644576116446123f4565b14156116d2576040517f08c379a000000000000000000000000000000000000000000000000000000000815260206004820152602260248201527f45434453413a20696e76616c6964207369676e6174757265202773272076616c60448201527f756500000000000000000000000000000000000000000000000000000000000060648201526084016107b1565b60048160048111156116e6576116e66123f4565b1415611774576040517f08c379a000000000000000000000000000000000000000000000000000000000815260206004820152602260248201527f45434453413a20696e76616c6964207369676e6174757265202776272076616c60448201527f756500000000000000000000000000000000000000000000000000000000000060648201526084016107b1565b50565b60606000611786836002612245565b6117919060026121f4565b67ffffffffffffffff8111156117a9576117a9611e72565b6040519080825280601f01601f1916602001820160405280156117d3576020820181803683370190505b5090507f30000000000000000000000000000000000000000000000000000000000000008160008151811061180a5761180a61215d565b60200101907effffffffffffffffffffffffffffffffffffffffffffffffffffffffffffff1916908160001a9053507f78000000000000000000000000000000000000000000000000000000000000008160018151811061186d5761186d61215d565b60200101907effffffffffffffffffffffffffffffffffffffffffffffffffffffffffffff1916908160001a90535060006118a9846002612245565b6118b49060016121f4565b90505b6001811115611951577f303132333435363738396162636465660000000000000000000000000000000085600f16601081106118f5576118f561215d565b1a60f81b82828151811061190b5761190b61215d565b60200101907effffffffffffffffffffffffffffffffffffffffffffffffffffffffffffff1916908160001a90535060049490941c9361194a816122bd565b90506118b7565b5083156106de576040517f08c379a000000000000000000000000000000000000000000000000000000000815260206004820181905260248201527f537472696e67733a20686578206c656e67746820696e73756666696369656e7460448201526064016107b1565b6000611a1c826040518060400160405280602081526020017f5361666545524332303a206c6f772d6c6576656c2063616c6c206661696c65648152508573ffffffffffffffffffffffffffffffffffffffff16611c309092919063ffffffff16565b80519091501561070b5780806020019051810190611a3a919061220c565b61070b576040517f08c379a000000000000000000000000000000000000000000000000000000000815260206004820152602a60248201527f5361666545524332303a204552433230206f7065726174696f6e20646964206e60448201527f6f7420737563636565640000000000000000000000000000000000000000000060648201526084016107b1565b6000807f7fffffffffffffffffffffffffffffff5d576e7357a4501ddfe92f46681b20a0831115611afd5750600090506003611bd5565b8460ff16601b14158015611b1557508460ff16601c14155b15611b265750600090506004611bd5565b6040805160008082526020820180845289905260ff881692820192909252606081018690526080810185905260019060a0016020604051602081039080840390855afa158015611b7a573d6000803e3d6000fd5b50506040517fffffffffffffffffffffffffffffffffffffffffffffffffffffffffffffffe0015191505073ffffffffffffffffffffffffffffffffffffffff8116611bce57600060019250925050611bd5565b9150600090505b94509492505050565b6000807f7fffffffffffffffffffffffffffffffffffffffffffffffffffffffffffffff831681611c1460ff86901c601b6121f4565b9050611c2287828885611ac6565b935093505050935093915050565b6060611c3f8484600085611c47565b949350505050565b606082471015611cd9576040517f08c379a000000000000000000000000000000000000000000000000000000000815260206004820152602660248201527f416464726573733a20696e73756666696369656e742062616c616e636520666f60448201527f722063616c6c000000000000000000000000000000000000000000000000000060648201526084016107b1565b73ffffffffffffffffffffffffffffffffffffffff85163b611d57576040517f08c379a000000000000000000000000000000000000000000000000000000000815260206004820152601d60248201527f416464726573733a2063616c6c20746f206e6f6e2d636f6e747261637400000060448201526064016107b1565b6000808673ffffffffffffffffffffffffffffffffffffffff168587604051611d809190612423565b60006040518083038185875af1925050503d8060008114611dbd576040519150601f19603f3d011682016040523d82523d6000602084013e611dc2565b606091505b5091509150611dd2828286611ddd565b979650505050505050565b60608315611dec5750816106de565b825115611dfc5782518084602001fd5b816040517f08c379a00000000000000000000000000000000000000000000000000000000081526004016107b191906123a3565b600060208284031215611e4257600080fd5b81357fffffffff00000000000000000000000000000000000000000000000000000000811681146106de57600080fd5b7f4e487b7100000000000000000000000000000000000000000000000000000000600052604160045260246000fd5b600082601f830112611eb257600080fd5b813567ffffffffffffffff80821115611ecd57611ecd611e72565b604051601f83017fffffffffffffffffffffffffffffffffffffffffffffffffffffffffffffffe0908116603f01168101908282118183101715611f1357611f13611e72565b81604052838152866020858801011115611f2c57600080fd5b836020870160208301376000602085830101528094505050505092915050565b60008060408385031215611f5f57600080fd5b82359150602083013567ffffffffffffffff811115611f7d57600080fd5b611f8985828601611ea1565b9150509250929050565b600060208284031215611fa557600080fd5b5035919050565b803573ffffffffffffffffffffffffffffffffffffffff81168114611fd057600080fd5b919050565b600080600060608486031215611fea57600080fd5b611ff384611fac565b925060208401359150604084013567ffffffffffffffff81111561201657600080fd5b61202286828701611ea1565b9150509250925092565b6000806040838503121561203f57600080fd5b8235915061204f60208401611fac565b90509250929050565b60008060006060848603121561206d57600080fd5b8335925060208401359150604084013567ffffffffffffffff81111561201657600080fd5b80356fffffffffffffffffffffffffffffffff81168114611fd057600080fd5b600080604083850312156120c557600080fd5b6120ce83612092565b915061204f60208401612092565b6000806000606084860312156120f157600080fd5b8335925061210160208501612092565b915061210f60408501612092565b90509250925092565b6000806040838503121561212b57600080fd5b61213483611fac565b946020939093013593505050565b60006020828403121561215457600080fd5b6106de82611fac565b7f4e487b7100000000000000000000000000000000000000000000000000000000600052603260045260246000fd5b7f4e487b7100000000000000000000000000000000000000000000000000000000600052601160045260246000fd5b60007fffffffffffffffffffffffffffffffffffffffffffffffffffffffffffffffff8214156121ed576121ed61218c565b5060010190565b600082198211156122075761220761218c565b500190565b60006020828403121561221e57600080fd5b815180151581146106de57600080fd5b6000828210156122405761224061218c565b500390565b6000817fffffffffffffffffffffffffffffffffffffffffffffffffffffffffffffffff048311821515161561227d5761227d61218c565b500290565b6000826122b8577f4e487b7100000000000000000000000000000000000000000000000000000000600052601260045260246000fd5b500490565b6000816122cc576122cc61218c565b507fffffffffffffffffffffffffffffffffffffffffffffffffffffffffffffffff0190565b60005b8381101561230d5781810151838201526020016122f5565b8381111561231c576000848401525b50505050565b7f416363657373436f6e74726f6c3a206163636f756e742000000000000000000081526000835161235a8160178501602088016122f2565b7f206973206d697373696e6720726f6c652000000000000000000000000000000060179184019182015283516123978160288401602088016122f2565b01602801949350505050565b60208152600082518060208401526123c28160408501602087016122f2565b601f017fffffffffffffffffffffffffffffffffffffffffffffffffffffffffffffffe0169190910160400192915050565b7f4e487b7100000000000000000000000000000000000000000000000000000000600052602160045260246000fd5b600082516124358184602087016122f2565b919091019291505056fea26469706673582212205991a1940d7b36707804d36ecc54dcd3665f0cd34c4c64fd6d1ba64f46426c2464736f6c63430008090033",
  "devdoc": {
    "kind": "dev",
    "methods": {
      "getRoleAdmin(bytes32)": {
        "details": "Returns the admin role that controls `role`. See {grantRole} and {revokeRole}. To change a role's admin, use {_setRoleAdmin}."
      },
      "grantRole(bytes32,address)": {
        "details": "Grants `role` to `account`. If `account` had not been already granted `role`, emits a {RoleGranted} event. Requirements: - the caller must have ``role``'s admin role."
      },
      "hasRole(bytes32,address)": {
        "details": "Returns `true` if `account` has been granted `role`."
      },
      "renounceRole(bytes32,address)": {
        "details": "Revokes `role` from the calling account. Roles are often managed via {grantRole} and {revokeRole}: this function's purpose is to provide a mechanism for accounts to lose their privileges if they are compromised (such as when a trusted device is misplaced). If the calling account had been revoked `role`, emits a {RoleRevoked} event. Requirements: - the caller must be `account`."
      },
      "revokeRole(bytes32,address)": {
        "details": "Revokes `role` from `account`. If `account` had been granted `role`, emits a {RoleRevoked} event. Requirements: - the caller must have ``role``'s admin role."
      },
      "supportsInterface(bytes4)": {
        "details": "See {IERC165-supportsInterface}."
      }
    },
    "version": 1
  },
  "userdoc": {
    "kind": "user",
    "methods": {},
    "version": 1
  },
  "storageLayout": {
    "storage": [
      {
        "astId": 24,
        "contract": "contracts/ido/SimpleVesting.sol:SimpleVesting",
        "label": "_roles",
        "offset": 0,
        "slot": "0",
        "type": "t_mapping(t_bytes32,t_struct(RoleData)19_storage)"
      },
      {
        "astId": 3049,
        "contract": "contracts/ido/SimpleVesting.sol:SimpleVesting",
        "label": "token",
        "offset": 0,
        "slot": "1",
        "type": "t_address"
      },
      {
        "astId": 3058,
        "contract": "contracts/ido/SimpleVesting.sol:SimpleVesting",
        "label": "releaseInfos",
        "offset": 0,
        "slot": "2",
        "type": "t_array(t_struct(ReleaseInfo)3054_storage)dyn_storage"
      },
      {
        "astId": 3062,
        "contract": "contracts/ido/SimpleVesting.sol:SimpleVesting",
        "label": "released",
        "offset": 0,
        "slot": "3",
        "type": "t_mapping(t_address,t_uint256)"
      }
    ],
    "types": {
      "t_address": {
        "encoding": "inplace",
        "label": "address",
        "numberOfBytes": "20"
      },
      "t_array(t_struct(ReleaseInfo)3054_storage)dyn_storage": {
        "base": "t_struct(ReleaseInfo)3054_storage",
        "encoding": "dynamic_array",
        "label": "struct SimpleVesting.ReleaseInfo[]",
        "numberOfBytes": "32"
      },
      "t_bool": {
        "encoding": "inplace",
        "label": "bool",
        "numberOfBytes": "1"
      },
      "t_bytes32": {
        "encoding": "inplace",
        "label": "bytes32",
        "numberOfBytes": "32"
      },
      "t_mapping(t_address,t_bool)": {
        "encoding": "mapping",
        "key": "t_address",
        "label": "mapping(address => bool)",
        "numberOfBytes": "32",
        "value": "t_bool"
      },
      "t_mapping(t_address,t_uint256)": {
        "encoding": "mapping",
        "key": "t_address",
        "label": "mapping(address => uint256)",
        "numberOfBytes": "32",
        "value": "t_uint256"
      },
      "t_mapping(t_bytes32,t_struct(RoleData)19_storage)": {
        "encoding": "mapping",
        "key": "t_bytes32",
        "label": "mapping(bytes32 => struct AccessControl.RoleData)",
        "numberOfBytes": "32",
        "value": "t_struct(RoleData)19_storage"
      },
      "t_struct(ReleaseInfo)3054_storage": {
        "encoding": "inplace",
        "label": "struct SimpleVesting.ReleaseInfo",
        "members": [
          {
            "astId": 3051,
            "contract": "contracts/ido/SimpleVesting.sol:SimpleVesting",
            "label": "time",
            "offset": 0,
            "slot": "0",
            "type": "t_uint128"
          },
          {
            "astId": 3053,
            "contract": "contracts/ido/SimpleVesting.sol:SimpleVesting",
            "label": "percentage",
            "offset": 16,
            "slot": "0",
            "type": "t_uint128"
          }
        ],
        "numberOfBytes": "32"
      },
      "t_struct(RoleData)19_storage": {
        "encoding": "inplace",
        "label": "struct AccessControl.RoleData",
        "members": [
          {
            "astId": 16,
            "contract": "contracts/ido/SimpleVesting.sol:SimpleVesting",
            "label": "members",
            "offset": 0,
            "slot": "0",
            "type": "t_mapping(t_address,t_bool)"
          },
          {
            "astId": 18,
            "contract": "contracts/ido/SimpleVesting.sol:SimpleVesting",
            "label": "adminRole",
            "offset": 0,
            "slot": "1",
            "type": "t_bytes32"
          }
        ],
        "numberOfBytes": "64"
      },
      "t_uint128": {
        "encoding": "inplace",
        "label": "uint128",
        "numberOfBytes": "16"
      },
      "t_uint256": {
        "encoding": "inplace",
        "label": "uint256",
        "numberOfBytes": "32"
      }
    }
  }
}