{
  "address": "0x01024bB8Cdc150800b572a4ab547bda2b1664E81",
  "abi": [
    {
      "inputs": [
        {
          "internalType": "address",
          "name": "_token",
          "type": "address"
        },
        {
          "internalType": "address",
          "name": "_buyCurrency",
          "type": "address"
        },
        {
          "internalType": "uint256",
          "name": "_startDate",
          "type": "uint256"
        },
        {
          "internalType": "uint256",
          "name": "_whitelistEndDate",
          "type": "uint256"
        },
        {
          "internalType": "uint256",
          "name": "_endDate",
          "type": "uint256"
        },
        {
          "internalType": "uint256",
          "name": "_exchangeRate",
          "type": "uint256"
        },
        {
          "internalType": "uint256",
          "name": "_minBuyAmount",
          "type": "uint256"
        },
        {
          "internalType": "uint256",
          "name": "_maxBuyAmount",
          "type": "uint256"
        },
        {
          "internalType": "uint256",
          "name": "_maxWhitelistedBuyAmount",
          "type": "uint256"
        },
        {
          "internalType": "uint256",
          "name": "_releaseDuration",
          "type": "uint256"
        },
        {
          "internalType": "uint256",
          "name": "_releaseInterval",
          "type": "uint256"
        },
        {
          "internalType": "bytes32",
          "name": "_idoId",
          "type": "bytes32"
        }
      ],
      "stateMutability": "nonpayable",
      "type": "constructor"
    },
    {
      "anonymous": false,
      "inputs": [
        {
          "indexed": false,
          "internalType": "address",
          "name": "account",
          "type": "address"
        }
      ],
      "name": "Paused",
      "type": "event"
    },
    {
      "anonymous": false,
      "inputs": [
        {
          "indexed": true,
          "internalType": "bytes32",
          "name": "role",
          "type": "bytes32"
        },
        {
          "indexed": true,
          "internalType": "bytes32",
          "name": "previousAdminRole",
          "type": "bytes32"
        },
        {
          "indexed": true,
          "internalType": "bytes32",
          "name": "newAdminRole",
          "type": "bytes32"
        }
      ],
      "name": "RoleAdminChanged",
      "type": "event"
    },
    {
      "anonymous": false,
      "inputs": [
        {
          "indexed": true,
          "internalType": "bytes32",
          "name": "role",
          "type": "bytes32"
        },
        {
          "indexed": true,
          "internalType": "address",
          "name": "account",
          "type": "address"
        },
        {
          "indexed": true,
          "internalType": "address",
          "name": "sender",
          "type": "address"
        }
      ],
      "name": "RoleGranted",
      "type": "event"
    },
    {
      "anonymous": false,
      "inputs": [
        {
          "indexed": true,
          "internalType": "bytes32",
          "name": "role",
          "type": "bytes32"
        },
        {
          "indexed": true,
          "internalType": "address",
          "name": "account",
          "type": "address"
        },
        {
          "indexed": true,
          "internalType": "address",
          "name": "sender",
          "type": "address"
        }
      ],
      "name": "RoleRevoked",
      "type": "event"
    },
    {
      "anonymous": false,
      "inputs": [
        {
          "indexed": true,
          "internalType": "address",
          "name": "participant",
          "type": "address"
        },
        {
          "indexed": false,
          "internalType": "uint256",
          "name": "amount",
          "type": "uint256"
        }
      ],
      "name": "TokenReleased",
      "type": "event"
    },
    {
      "anonymous": false,
      "inputs": [
        {
          "indexed": false,
          "internalType": "address",
          "name": "account",
          "type": "address"
        }
      ],
      "name": "Unpaused",
      "type": "event"
    },
    {
      "inputs": [],
      "name": "DEFAULT_ADMIN_ROLE",
      "outputs": [
        {
          "internalType": "bytes32",
          "name": "",
          "type": "bytes32"
        }
      ],
      "stateMutability": "view",
      "type": "function"
    },
    {
      "inputs": [],
      "name": "PAUSER_ROLE",
      "outputs": [
        {
          "internalType": "bytes32",
          "name": "",
          "type": "bytes32"
        }
      ],
      "stateMutability": "view",
      "type": "function"
    },
    {
      "inputs": [],
      "name": "WHITELISTER_ROLE",
      "outputs": [
        {
          "internalType": "bytes32",
          "name": "",
          "type": "bytes32"
        }
      ],
      "stateMutability": "view",
      "type": "function"
    },
    {
      "inputs": [
        {
          "internalType": "uint256",
          "name": "_buyCurrencyAmount",
          "type": "uint256"
        }
      ],
      "name": "buy",
      "outputs": [
        {
          "internalType": "bool",
          "name": "sucess",
          "type": "bool"
        }
      ],
      "stateMutability": "nonpayable",
      "type": "function"
    },
    {
      "inputs": [],
      "name": "buyCurrency",
      "outputs": [
        {
          "internalType": "address",
          "name": "",
          "type": "address"
        }
      ],
      "stateMutability": "view",
      "type": "function"
    },
    {
      "inputs": [
        {
          "internalType": "uint256",
          "name": "_buyCurrencyAmount",
          "type": "uint256"
        },
        {
          "internalType": "bytes",
          "name": "_signature",
          "type": "bytes"
        }
      ],
      "name": "buyWhitelisted",
      "outputs": [
        {
          "internalType": "bool",
          "name": "sucess",
          "type": "bool"
        }
      ],
      "stateMutability": "nonpayable",
      "type": "function"
    },
    {
      "inputs": [],
      "name": "endDate",
      "outputs": [
        {
          "internalType": "uint256",
          "name": "",
          "type": "uint256"
        }
      ],
      "stateMutability": "view",
      "type": "function"
    },
    {
      "inputs": [],
      "name": "exchangeRate",
      "outputs": [
        {
          "internalType": "uint256",
          "name": "",
          "type": "uint256"
        }
      ],
      "stateMutability": "view",
      "type": "function"
    },
    {
      "inputs": [],
      "name": "getBuyCount",
      "outputs": [
        {
          "internalType": "uint256",
          "name": "",
          "type": "uint256"
        }
      ],
      "stateMutability": "view",
      "type": "function"
    },
    {
      "inputs": [
        {
          "internalType": "address",
          "name": "_participant",
          "type": "address"
        }
      ],
      "name": "getParticipantBuyAmount",
      "outputs": [
        {
          "internalType": "uint256",
          "name": "",
          "type": "uint256"
        }
      ],
      "stateMutability": "view",
      "type": "function"
    },
    {
      "inputs": [],
      "name": "getParticipantCount",
      "outputs": [
        {
          "internalType": "uint256",
          "name": "",
          "type": "uint256"
        }
      ],
      "stateMutability": "view",
      "type": "function"
    },
    {
      "inputs": [
        {
          "internalType": "address",
          "name": "participant",
          "type": "address"
        }
      ],
      "name": "getParticipantTotalTokenAmount",
      "outputs": [
        {
          "internalType": "uint256",
          "name": "",
          "type": "uint256"
        }
      ],
      "stateMutability": "view",
      "type": "function"
    },
    {
      "inputs": [
        {
          "internalType": "address",
          "name": "participant",
          "type": "address"
        }
      ],
      "name": "getParticipantUnclaimedAmount",
      "outputs": [
        {
          "internalType": "uint256",
          "name": "",
          "type": "uint256"
        }
      ],
      "stateMutability": "view",
      "type": "function"
    },
    {
      "inputs": [
        {
          "internalType": "address",
          "name": "participant",
          "type": "address"
        },
        {
          "internalType": "uint64",
          "name": "timestamp",
          "type": "uint64"
        }
      ],
      "name": "getParticipantUnlockedAmount",
      "outputs": [
        {
          "internalType": "uint256",
          "name": "",
          "type": "uint256"
        }
      ],
      "stateMutability": "view",
      "type": "function"
    },
    {
      "inputs": [
        {
          "internalType": "bytes32",
          "name": "role",
          "type": "bytes32"
        }
      ],
      "name": "getRoleAdmin",
      "outputs": [
        {
          "internalType": "bytes32",
          "name": "",
          "type": "bytes32"
        }
      ],
      "stateMutability": "view",
      "type": "function"
    },
    {
      "inputs": [],
      "name": "getTotalRaised",
      "outputs": [
        {
          "internalType": "uint256",
          "name": "",
          "type": "uint256"
        }
      ],
      "stateMutability": "view",
      "type": "function"
    },
    {
      "inputs": [
        {
          "internalType": "bytes32",
          "name": "role",
          "type": "bytes32"
        },
        {
          "internalType": "address",
          "name": "account",
          "type": "address"
        }
      ],
      "name": "grantRole",
      "outputs": [],
      "stateMutability": "nonpayable",
      "type": "function"
    },
    {
      "inputs": [
        {
          "internalType": "bytes32",
          "name": "role",
          "type": "bytes32"
        },
        {
          "internalType": "address",
          "name": "account",
          "type": "address"
        }
      ],
      "name": "hasRole",
      "outputs": [
        {
          "internalType": "bool",
          "name": "",
          "type": "bool"
        }
      ],
      "stateMutability": "view",
      "type": "function"
    },
    {
      "inputs": [],
      "name": "idoId",
      "outputs": [
        {
          "internalType": "bytes32",
          "name": "",
          "type": "bytes32"
        }
      ],
      "stateMutability": "view",
      "type": "function"
    },
    {
      "inputs": [],
      "name": "maxBuyAmount",
      "outputs": [
        {
          "internalType": "uint256",
          "name": "",
          "type": "uint256"
        }
      ],
      "stateMutability": "view",
      "type": "function"
    },
    {
      "inputs": [],
      "name": "maxWhitelistedBuyAmount",
      "outputs": [
        {
          "internalType": "uint256",
          "name": "",
          "type": "uint256"
        }
      ],
      "stateMutability": "view",
      "type": "function"
    },
    {
      "inputs": [],
      "name": "minBuyAmount",
      "outputs": [
        {
          "internalType": "uint256",
          "name": "",
          "type": "uint256"
        }
      ],
      "stateMutability": "view",
      "type": "function"
    },
    {
      "inputs": [],
      "name": "pause",
      "outputs": [],
      "stateMutability": "nonpayable",
      "type": "function"
    },
    {
      "inputs": [],
      "name": "paused",
      "outputs": [
        {
          "internalType": "bool",
          "name": "",
          "type": "bool"
        }
      ],
      "stateMutability": "view",
      "type": "function"
    },
    {
      "inputs": [],
      "name": "release",
      "outputs": [],
      "stateMutability": "nonpayable",
      "type": "function"
    },
    {
      "inputs": [
        {
          "internalType": "uint256",
          "name": "amount",
          "type": "uint256"
        }
      ],
      "name": "releaseAmount",
      "outputs": [],
      "stateMutability": "nonpayable",
      "type": "function"
    },
    {
      "inputs": [],
      "name": "releaseDuration",
      "outputs": [
        {
          "internalType": "uint256",
          "name": "",
          "type": "uint256"
        }
      ],
      "stateMutability": "view",
      "type": "function"
    },
    {
      "inputs": [],
      "name": "releaseInterval",
      "outputs": [
        {
          "internalType": "uint256",
          "name": "",
          "type": "uint256"
        }
      ],
      "stateMutability": "view",
      "type": "function"
    },
    {
      "inputs": [
        {
          "internalType": "bytes32",
          "name": "role",
          "type": "bytes32"
        },
        {
          "internalType": "address",
          "name": "account",
          "type": "address"
        }
      ],
      "name": "renounceRole",
      "outputs": [],
      "stateMutability": "nonpayable",
      "type": "function"
    },
    {
      "inputs": [
        {
          "internalType": "bytes32",
          "name": "role",
          "type": "bytes32"
        },
        {
          "internalType": "address",
          "name": "account",
          "type": "address"
        }
      ],
      "name": "revokeRole",
      "outputs": [],
      "stateMutability": "nonpayable",
      "type": "function"
    },
    {
      "inputs": [
        {
          "internalType": "uint256",
          "name": "_endDate",
          "type": "uint256"
        }
      ],
      "name": "setEndDate",
      "outputs": [],
      "stateMutability": "nonpayable",
      "type": "function"
    },
    {
      "inputs": [
        {
          "internalType": "uint256",
          "name": "_exchangeRate",
          "type": "uint256"
        }
      ],
      "name": "setExchangeRate",
      "outputs": [],
      "stateMutability": "nonpayable",
      "type": "function"
    },
    {
      "inputs": [
        {
          "internalType": "uint256",
          "name": "_maxBuyAmount",
          "type": "uint256"
        }
      ],
      "name": "setMaxBuyAmount",
      "outputs": [],
      "stateMutability": "nonpayable",
      "type": "function"
    },
    {
      "inputs": [
        {
          "internalType": "uint256",
          "name": "_maxWhitelistedBuyAmount",
          "type": "uint256"
        }
      ],
      "name": "setMaxWhitelistedBuyAmount",
      "outputs": [],
      "stateMutability": "nonpayable",
      "type": "function"
    },
    {
      "inputs": [
        {
          "internalType": "uint256",
          "name": "_minBuyAmount",
          "type": "uint256"
        }
      ],
      "name": "setMinBuyAmount",
      "outputs": [],
      "stateMutability": "nonpayable",
      "type": "function"
    },
    {
      "inputs": [
        {
          "internalType": "uint256",
          "name": "_releaseDuration",
          "type": "uint256"
        }
      ],
      "name": "setReleaseDuration",
      "outputs": [],
      "stateMutability": "nonpayable",
      "type": "function"
    },
    {
      "inputs": [
        {
          "internalType": "uint256",
          "name": "_releaseInterval",
          "type": "uint256"
        }
      ],
      "name": "setReleaseInterval",
      "outputs": [],
      "stateMutability": "nonpayable",
      "type": "function"
    },
    {
      "inputs": [
        {
          "internalType": "uint256",
          "name": "_startDate",
          "type": "uint256"
        }
      ],
      "name": "setStartDate",
      "outputs": [],
      "stateMutability": "nonpayable",
      "type": "function"
    },
    {
      "inputs": [
        {
          "internalType": "uint256",
          "name": "_whitelistEndDate",
          "type": "uint256"
        }
      ],
      "name": "setWhitelistEndDate",
      "outputs": [],
      "stateMutability": "nonpayable",
      "type": "function"
    },
    {
      "inputs": [],
      "name": "startDate",
      "outputs": [
        {
          "internalType": "uint256",
          "name": "",
          "type": "uint256"
        }
      ],
      "stateMutability": "view",
      "type": "function"
    },
    {
      "inputs": [
        {
          "internalType": "bytes4",
          "name": "interfaceId",
          "type": "bytes4"
        }
      ],
      "name": "supportsInterface",
      "outputs": [
        {
          "internalType": "bool",
          "name": "",
          "type": "bool"
        }
      ],
      "stateMutability": "view",
      "type": "function"
    },
    {
      "inputs": [],
      "name": "token",
      "outputs": [
        {
          "internalType": "address",
          "name": "",
          "type": "address"
        }
      ],
      "stateMutability": "view",
      "type": "function"
    },
    {
      "inputs": [],
      "name": "unpause",
      "outputs": [],
      "stateMutability": "nonpayable",
      "type": "function"
    },
    {
      "inputs": [],
      "name": "whitelistEndDate",
      "outputs": [
        {
          "internalType": "uint256",
          "name": "",
          "type": "uint256"
        }
      ],
      "stateMutability": "view",
      "type": "function"
    },
    {
      "inputs": [
        {
          "internalType": "address",
          "name": "to",
          "type": "address"
        },
        {
          "internalType": "address",
          "name": "_token",
          "type": "address"
        },
        {
          "internalType": "uint256",
          "name": "_amount",
          "type": "uint256"
        }
      ],
      "name": "withdraw",
      "outputs": [
        {
          "internalType": "bool",
          "name": "success",
          "type": "bool"
        }
      ],
      "stateMutability": "nonpayable",
      "type": "function"
    }
  ],
  "transactionHash": "0xf3bdd92d9404a52ecddb054f55d1b3b827f9420ae452ae3cc3821f1400f46790",
  "args": [
    "0xCB308Da9961ad4b3999A1F875faeF456aE57225F",
    "0xa4cB6c682cAeBFF9A1Da0ADCD3f947f83dA3B15d",
    1659952800,
    1659952800,
    1660075200,
    200,
    "5000000000000000000000",
    "1000000000000000000000000",
    "5000000000000000000000000",
    259200,
    600,
    "0x3af6dbb1026c5539199dd3a1db6b33fca3d1d8d369f87f022d60d972c4be27a9"
  ],
  "numDeployments": 1,
  "solcInputHash": "36670ea3eeee07a1190fc60b04ce0ab0",
  "bytecode": "0x60a06040523480156200001157600080fd5b5060405162002a6738038062002a67833981016040819052620000349162000211565b60016000819055506000600260006101000a81548160ff0219169083151502179055508b600260016101000a8154816001600160a01b0302191690836001600160a01b031602179055508a600360006101000a8154816001600160a01b0302191690836001600160a01b0316021790555089600481905550886005819055508760068190555086600781905550856008819055508460098190555083600a8190555082600b8190555081600c819055508060808181525050620001016000801b336200016b60201b60201c565b6200012d7f65d7a28e3265b37a6474929f336521b332c1681b933f6cb9f3376673440d862a336200016b565b620001597f8619cecd8b9e095ab43867f5b69d492180450fe862e6b50bfbfb24b75dd84c8a336200016b565b505050505050505050505050620002ac565b60008281526001602090815260408083206001600160a01b038516845290915290205460ff16620001f05760008281526001602081815260408084206001600160a01b0386168086529252808420805460ff19169093179092559051339285917f2f8788117e7eff1d82e926ec794901d17c78024a50270940304540a733656f0d9190a45b5050565b80516001600160a01b03811681146200020c57600080fd5b919050565b6000806000806000806000806000806000806101808d8f0312156200023557600080fd5b620002408d620001f4565b9b506200025060208e01620001f4565b9a5060408d0151995060608d0151985060808d0151975060a08d0151965060c08d0151955060e08d015194506101008d015193506101208d015192506101408d015191506101608d015190509295989b509295989b509295989b565b608051612798620002cf6000396000818161057b0152610c8901526127986000f3fe608060405234801561001057600080fd5b50600436106102ff5760003560e01c806391d148541161019c578063d88e82cf116100ee578063e63ab1e911610097578063f832997e11610071578063f832997e14610677578063f9b418911461068a578063fc0c546a1461069357600080fd5b8063e63ab1e914610634578063f34eb0b81461065b578063f66bf2291461066e57600080fd5b8063db068e0e116100c8578063db068e0e14610605578063dfb25a7d14610618578063dffac8341461062157600080fd5b8063d88e82cf146105cc578063d96a094a146105df578063d9caed12146105f257600080fd5b8063ad60572911610150578063c24a0f8b1161012a578063c24a0f8b1461059d578063d494c388146105a6578063d547741f146105b957600080fd5b8063ad60572914610529578063ad63a14514610531578063b4f0e4a71461057657600080fd5b80639f550293116101815780639f550293146105065780639fd6e40b1461050e578063a217fddf1461052157600080fd5b806391d148541461048a57806393dc05a0146104d057600080fd5b80633ba0b9a91161025557806382d95df51161020957806388e765ff116101e357806388e765ff146104665780638d5a8ccd1461046f5780638f10fd451461048257600080fd5b806382d95df5146104435780638456cb591461045657806386d1a69f1461045e57600080fd5b8063570618e11161023a578063570618e1146103fe5780635c975abb146104255780637ef825b81461043057600080fd5b80633ba0b9a9146103ed5780633f4ba83a146103f657600080fd5b8063248a9ca3116102b757806336568abe1161029157806336568abe146103be5780633784f000146103d1578063383c1ca9146103e457600080fd5b8063248a9ca314610374578063286082f8146103985780632f2ff15d146103ab57600080fd5b806312fd52c4116102e857806312fd52c4146103435780631f8db268146103585780632278f36b1461036157600080fd5b806301ffc9a7146103045780630b97bc861461032c575b600080fd5b610317610312366004612249565b6106b8565b60405190151581526020015b60405180910390f35b61033560045481565b604051908152602001610323565b61035661035136600461228b565b6106c9565b005b610335600c5481565b61035661036f36600461228b565b6106db565b61033561038236600461228b565b6000908152600160208190526040909120015490565b6103566103a636600461228b565b610937565b6103566103b93660046122cd565b610949565b6103566103cc3660046122cd565b610970565b6103566103df36600461228b565b610a23565b610335600a5481565b61033560075481565b610356610a35565b6103357f8619cecd8b9e095ab43867f5b69d492180450fe862e6b50bfbfb24b75dd84c8a81565b60025460ff16610317565b61033561043e3660046122f9565b610a6b565b61035661045136600461228b565b610aad565b610356610abf565b610356610af2565b61033560095481565b61035661047d36600461228b565b610c70565b601054610335565b6103176104983660046122cd565b600091825260016020908152604080842073ffffffffffffffffffffffffffffffffffffffff93909316845291905290205460ff1690565b6103356104de3660046122f9565b73ffffffffffffffffffffffffffffffffffffffff166000908152600d602052604090205490565b601154610335565b61031761051c366004612343565b610c82565b610335600081565b600f54610335565b6003546105519073ffffffffffffffffffffffffffffffffffffffff1681565b60405173ffffffffffffffffffffffffffffffffffffffff9091168152602001610323565b6103357f000000000000000000000000000000000000000000000000000000000000000081565b61033560065481565b6103566105b436600461228b565b610f28565b6103566105c73660046122cd565b610f3a565b6103356105da3660046122f9565b610f61565b6103176105ed36600461228b565b610ff4565b61031761060036600461241c565b6110f6565b61035661061336600461228b565b61123f565b61033560055481565b61035661062f36600461228b565b611251565b6103357f65d7a28e3265b37a6474929f336521b332c1681b933f6cb9f3376673440d862a81565b61035661066936600461228b565b611263565b61033560085481565b610335610685366004612458565b611275565b610335600b5481565b60025461055190610100900473ffffffffffffffffffffffffffffffffffffffff1681565b60006106c38261130e565b92915050565b60006106d581336113a5565b50600a55565b60006106e633610f61565b905060008111610757576040517f08c379a000000000000000000000000000000000000000000000000000000000815260206004820152601460248201527f4e6f2072656c65617361626c6520616d6f756e7400000000000000000000000060448201526064015b60405180910390fd5b600082116107c1576040517f08c379a000000000000000000000000000000000000000000000000000000000815260206004820152600a60248201527f616d6f756e74203e203000000000000000000000000000000000000000000000604482015260640161074e565b8082111561082b576040517f08c379a000000000000000000000000000000000000000000000000000000000815260206004820152601460248201527f616d6f756e74203c3d2072656c65617361626c65000000000000000000000000604482015260640161074e565b336000908152600e60205260408120805484929061084a9084906124cb565b909155505060405182815233907f9cf9e3ab58b33f06d81842ea0ad850b6640c6430d6396973312e1715792e7a919060200160405180910390a26002546040517fa9059cbb0000000000000000000000000000000000000000000000000000000081523360048201526024810184905261010090910473ffffffffffffffffffffffffffffffffffffffff169063a9059cbb90604401602060405180830381600087803b1580156108fa57600080fd5b505af115801561090e573d6000803e3d6000fd5b505050506040513d601f19601f8201168201806040525081019061093291906124e3565b505050565b600061094381336113a5565b50600555565b6000828152600160208190526040909120015461096681336113a5565b6109328383611477565b73ffffffffffffffffffffffffffffffffffffffff81163314610a15576040517f08c379a000000000000000000000000000000000000000000000000000000000815260206004820152602f60248201527f416363657373436f6e74726f6c3a2063616e206f6e6c792072656e6f756e636560448201527f20726f6c657320666f722073656c660000000000000000000000000000000000606482015260840161074e565b610a1f8282611536565b5050565b6000610a2f81336113a5565b50600655565b7f65d7a28e3265b37a6474929f336521b332c1681b933f6cb9f3376673440d862a610a6081336113a5565b610a686115f1565b50565b60075473ffffffffffffffffffffffffffffffffffffffff82166000908152600d60205260408120549091606491610aa39190612505565b6106c39190612542565b6000610ab981336113a5565b50600455565b7f65d7a28e3265b37a6474929f336521b332c1681b933f6cb9f3376673440d862a610aea81336113a5565b610a686116d2565b6000610afd33610f61565b905060008111610b69576040517f08c379a000000000000000000000000000000000000000000000000000000000815260206004820152601460248201527f4e6f2072656c65617361626c6520616d6f756e74000000000000000000000000604482015260640161074e565b336000908152600e602052604081208054839290610b889084906124cb565b909155505060405181815233907f9cf9e3ab58b33f06d81842ea0ad850b6640c6430d6396973312e1715792e7a919060200160405180910390a26002546040517fa9059cbb0000000000000000000000000000000000000000000000000000000081523360048201526024810183905261010090910473ffffffffffffffffffffffffffffffffffffffff169063a9059cbb90604401602060405180830381600087803b158015610c3857600080fd5b505af1158015610c4c573d6000803e3d6000fd5b505050506040513d601f19601f82011682018060405250810190610a1f91906124e3565b6000610c7c81336113a5565b50600b55565b60008160007f000000000000000000000000000000000000000000000000000000000000000033604051602001610ce892919091825260601b7fffffffffffffffffffffffffffffffffffffffff00000000000000000000000016602082015260340190565b604080518083037fffffffffffffffffffffffffffffffffffffffffffffffffffffffffffffffe001815282825280516020918201207f19457468657265756d205369676e6564204d6573736167653a0a33320000000082850152603c8085019190915282518085039091018152605c909301909152815191012090506000610d718284611792565b73ffffffffffffffffffffffffffffffffffffffff811660009081527f08d673bc4b8299a5cdd351c219cdb635f369c087506fa10ff5c326a992094efc602052604090205490915060ff16610e22576040517f08c379a000000000000000000000000000000000000000000000000000000000815260206004820152601760248201527f596f7520617265206e6f742077686974656c6973746564000000000000000000604482015260640161074e565b60026000541415610e8f576040517f08c379a000000000000000000000000000000000000000000000000000000000815260206004820152601f60248201527f5265656e7472616e637947756172643a207265656e7472616e742063616c6c00604482015260640161074e565b6002600055610ea060025460ff1690565b15610f07576040517f08c379a000000000000000000000000000000000000000000000000000000000815260206004820152601060248201527f5061757361626c653a2070617573656400000000000000000000000000000000604482015260640161074e565b610f1686600454600a546117ae565b60019350505060016000555092915050565b6000610f3481336113a5565b50600855565b60008281526001602081905260409091200154610f5781336113a5565b6109328383611536565b60075473ffffffffffffffffffffffffffffffffffffffff82166000908152600d60205260408120549091829161271091610f9b91612505565b610fa690605a612505565b610fb09190612542565b73ffffffffffffffffffffffffffffffffffffffff84166000908152600e6020526040902054909150610fe38242611b28565b610fed919061257d565b9392505050565b600060026000541415611063576040517f08c379a000000000000000000000000000000000000000000000000000000000815260206004820152601f60248201527f5265656e7472616e637947756172643a207265656e7472616e742063616c6c00604482015260640161074e565b600260005561107460025460ff1690565b156110db576040517f08c379a000000000000000000000000000000000000000000000000000000000815260206004820152601060248201527f5061757361626c653a2070617573656400000000000000000000000000000000604482015260640161074e565b6110ea826005546009546117ae565b50600180600055919050565b60008061110381336113a5565b73ffffffffffffffffffffffffffffffffffffffff84166111895760008573ffffffffffffffffffffffffffffffffffffffff168460405160006040518083038185875af1925050503d8060008114611178576040519150601f19603f3d011682016040523d82523d6000602084013e61117d565b606091505b50909350611237915050565b6040517fa9059cbb00000000000000000000000000000000000000000000000000000000815273ffffffffffffffffffffffffffffffffffffffff86811660048301526024820185905285169063a9059cbb90604401602060405180830381600087803b1580156111f957600080fd5b505af115801561120d573d6000803e3d6000fd5b505050506040513d601f19601f8201168201806040525081019061123191906124e3565b50600191505b509392505050565b600061124b81336113a5565b50600755565b600061125d81336113a5565b50600c55565b600061126f81336113a5565b50600955565b73ffffffffffffffffffffffffffffffffffffffff82166000908152600d60205260408120546007548290612710906112ae9084612505565b6112b990600a612505565b6112c39190612542565b90506000612710600754846112d89190612505565b6112e390605a612505565b6112ed9190612542565b9050816112fa8287611b28565b61130491906124cb565b9695505050505050565b60007fffffffff0000000000000000000000000000000000000000000000000000000082167f7965db0b0000000000000000000000000000000000000000000000000000000014806106c357507f01ffc9a7000000000000000000000000000000000000000000000000000000007fffffffff000000000000000000000000000000000000000000000000000000008316146106c3565b600082815260016020908152604080832073ffffffffffffffffffffffffffffffffffffffff8516845290915290205460ff16610a1f576113fd8173ffffffffffffffffffffffffffffffffffffffff166014611bd3565b611408836020611bd3565b6040516020016114199291906125c4565b604080517fffffffffffffffffffffffffffffffffffffffffffffffffffffffffffffffe0818403018152908290527f08c379a000000000000000000000000000000000000000000000000000000000825261074e91600401612645565b600082815260016020908152604080832073ffffffffffffffffffffffffffffffffffffffff8516845290915290205460ff16610a1f57600082815260016020818152604080842073ffffffffffffffffffffffffffffffffffffffff8616808652925280842080547fffffffffffffffffffffffffffffffffffffffffffffffffffffffffffffff00169093179092559051339285917f2f8788117e7eff1d82e926ec794901d17c78024a50270940304540a733656f0d9190a45050565b600082815260016020908152604080832073ffffffffffffffffffffffffffffffffffffffff8516845290915290205460ff1615610a1f57600082815260016020908152604080832073ffffffffffffffffffffffffffffffffffffffff8516808552925280832080547fffffffffffffffffffffffffffffffffffffffffffffffffffffffffffffff0016905551339285917ff6391f5c32d9c69d2a47ea670b442974b53935d1edc7fd64eb21e047a839171b9190a45050565b60025460ff1661165d576040517f08c379a000000000000000000000000000000000000000000000000000000000815260206004820152601460248201527f5061757361626c653a206e6f7420706175736564000000000000000000000000604482015260640161074e565b600280547fffffffffffffffffffffffffffffffffffffffffffffffffffffffffffffff001690557f5db9ee0a495bf2e6ff9c91a7834c1ba4fdd244a5e8aa4e537bd38aeae4b073aa335b60405173ffffffffffffffffffffffffffffffffffffffff909116815260200160405180910390a1565b60025460ff161561173f576040517f08c379a000000000000000000000000000000000000000000000000000000000815260206004820152601060248201527f5061757361626c653a2070617573656400000000000000000000000000000000604482015260640161074e565b600280547fffffffffffffffffffffffffffffffffffffffffffffffffffffffffffffff001660011790557f62e78cea01bee320cd4e420270b5ea74000d11b0c9f74754ebdbfc544b05a2586116a83390565b60008060006117a18585611e16565b9150915061123781611e86565b8142101580156117c057506006544211155b611826576040517f08c379a000000000000000000000000000000000000000000000000000000000815260206004820152601860248201527f546f6b656e2073616c65206973206e6f74206163746976650000000000000000604482015260640161074e565b600854831015611892576040517f08c379a000000000000000000000000000000000000000000000000000000000815260206004820181905260248201527f6d75737420626520626967676572207468616e206d696e427579416d6f756e74604482015260640161074e565b336000908152600d6020526040812054906118ad85836124cb565b90508281111561193f576040517f08c379a000000000000000000000000000000000000000000000000000000000815260206004820152603260248201527f746f74616c2062757920616d6f756e74206d75737420626520736d616c6c657260448201527f207468616e206d6178427579416d6f756e740000000000000000000000000000606482015260840161074e565b8161195a57600f805490600061195483612696565b91905055505b336000908152600d60205260408120829055601080549161197a83612696565b9190505550846011600082825461199191906124cb565b90915550506003546040517f23b872dd0000000000000000000000000000000000000000000000000000000081523360048201523060248201526044810187905273ffffffffffffffffffffffffffffffffffffffff909116906323b872dd90606401602060405180830381600087803b158015611a0e57600080fd5b505af1158015611a22573d6000803e3d6000fd5b505050506040513d601f19601f82011682018060405250810190611a4691906124e3565b50600061271060075487611a5a9190612505565b611a6590600a612505565b611a6f9190612542565b6002546040517fa9059cbb00000000000000000000000000000000000000000000000000000000815233600482015260248101839052919250610100900473ffffffffffffffffffffffffffffffffffffffff169063a9059cbb90604401602060405180830381600087803b158015611ae757600080fd5b505af1158015611afb573d6000803e3d6000fd5b505050506040513d601f19601f82011682018060405250810190611b1f91906124e3565b50505050505050565b60006006548267ffffffffffffffff161015611b46575060006106c3565b600b54600654611b5691906124cb565b8267ffffffffffffffff161115611b6e5750816106c3565b60006006548367ffffffffffffffff16611b88919061257d565b90506000600c54600b54611b9c9190612542565b90506000611baa8287612542565b90506000600c5484611bbc9190612542565b9050611bc88282612505565b9450505050506106c3565b60606000611be2836002612505565b611bed9060026124cb565b67ffffffffffffffff811115611c0557611c05612314565b6040519080825280601f01601f191660200182016040528015611c2f576020820181803683370190505b5090507f300000000000000000000000000000000000000000000000000000000000000081600081518110611c6657611c666126cf565b60200101907effffffffffffffffffffffffffffffffffffffffffffffffffffffffffffff1916908160001a9053507f780000000000000000000000000000000000000000000000000000000000000081600181518110611cc957611cc96126cf565b60200101907effffffffffffffffffffffffffffffffffffffffffffffffffffffffffffff1916908160001a9053506000611d05846002612505565b611d109060016124cb565b90505b6001811115611dad577f303132333435363738396162636465660000000000000000000000000000000085600f1660108110611d5157611d516126cf565b1a60f81b828281518110611d6757611d676126cf565b60200101907effffffffffffffffffffffffffffffffffffffffffffffffffffffffffffff1916908160001a90535060049490941c93611da6816126fe565b9050611d13565b508315610fed576040517f08c379a000000000000000000000000000000000000000000000000000000000815260206004820181905260248201527f537472696e67733a20686578206c656e67746820696e73756666696369656e74604482015260640161074e565b600080825160411415611e4d5760208301516040840151606085015160001a611e41878285856120df565b94509450505050611e7f565b825160401415611e775760208301516040840151611e6c8683836121f7565b935093505050611e7f565b506000905060025b9250929050565b6000816004811115611e9a57611e9a612733565b1415611ea35750565b6001816004811115611eb757611eb7612733565b1415611f1f576040517f08c379a000000000000000000000000000000000000000000000000000000000815260206004820152601860248201527f45434453413a20696e76616c6964207369676e61747572650000000000000000604482015260640161074e565b6002816004811115611f3357611f33612733565b1415611f9b576040517f08c379a000000000000000000000000000000000000000000000000000000000815260206004820152601f60248201527f45434453413a20696e76616c6964207369676e6174757265206c656e67746800604482015260640161074e565b6003816004811115611faf57611faf612733565b141561203d576040517f08c379a000000000000000000000000000000000000000000000000000000000815260206004820152602260248201527f45434453413a20696e76616c6964207369676e6174757265202773272076616c60448201527f7565000000000000000000000000000000000000000000000000000000000000606482015260840161074e565b600481600481111561205157612051612733565b1415610a68576040517f08c379a000000000000000000000000000000000000000000000000000000000815260206004820152602260248201527f45434453413a20696e76616c6964207369676e6174757265202776272076616c60448201527f7565000000000000000000000000000000000000000000000000000000000000606482015260840161074e565b6000807f7fffffffffffffffffffffffffffffff5d576e7357a4501ddfe92f46681b20a083111561211657506000905060036121ee565b8460ff16601b1415801561212e57508460ff16601c14155b1561213f57506000905060046121ee565b6040805160008082526020820180845289905260ff881692820192909252606081018690526080810185905260019060a0016020604051602081039080840390855afa158015612193573d6000803e3d6000fd5b50506040517fffffffffffffffffffffffffffffffffffffffffffffffffffffffffffffffe0015191505073ffffffffffffffffffffffffffffffffffffffff81166121e7576000600192509250506121ee565b9150600090505b94509492505050565b6000807f7fffffffffffffffffffffffffffffffffffffffffffffffffffffffffffffff83168161222d60ff86901c601b6124cb565b905061223b878288856120df565b935093505050935093915050565b60006020828403121561225b57600080fd5b81357fffffffff0000000000000000000000000000000000000000000000000000000081168114610fed57600080fd5b60006020828403121561229d57600080fd5b5035919050565b803573ffffffffffffffffffffffffffffffffffffffff811681146122c857600080fd5b919050565b600080604083850312156122e057600080fd5b823591506122f0602084016122a4565b90509250929050565b60006020828403121561230b57600080fd5b610fed826122a4565b7f4e487b7100000000000000000000000000000000000000000000000000000000600052604160045260246000fd5b6000806040838503121561235657600080fd5b82359150602083013567ffffffffffffffff8082111561237557600080fd5b818501915085601f83011261238957600080fd5b81358181111561239b5761239b612314565b604051601f82017fffffffffffffffffffffffffffffffffffffffffffffffffffffffffffffffe0908116603f011681019083821181831017156123e1576123e1612314565b816040528281528860208487010111156123fa57600080fd5b8260208601602083013760006020848301015280955050505050509250929050565b60008060006060848603121561243157600080fd5b61243a846122a4565b9250612448602085016122a4565b9150604084013590509250925092565b6000806040838503121561246b57600080fd5b612474836122a4565b9150602083013567ffffffffffffffff8116811461249157600080fd5b809150509250929050565b7f4e487b7100000000000000000000000000000000000000000000000000000000600052601160045260246000fd5b600082198211156124de576124de61249c565b500190565b6000602082840312156124f557600080fd5b81518015158114610fed57600080fd5b6000817fffffffffffffffffffffffffffffffffffffffffffffffffffffffffffffffff048311821515161561253d5761253d61249c565b500290565b600082612578577f4e487b7100000000000000000000000000000000000000000000000000000000600052601260045260246000fd5b500490565b60008282101561258f5761258f61249c565b500390565b60005b838110156125af578181015183820152602001612597565b838111156125be576000848401525b50505050565b7f416363657373436f6e74726f6c3a206163636f756e74200000000000000000008152600083516125fc816017850160208801612594565b7f206973206d697373696e6720726f6c65200000000000000000000000000000006017918401918201528351612639816028840160208801612594565b01602801949350505050565b6020815260008251806020840152612664816040850160208701612594565b601f017fffffffffffffffffffffffffffffffffffffffffffffffffffffffffffffffe0169190910160400192915050565b60007fffffffffffffffffffffffffffffffffffffffffffffffffffffffffffffffff8214156126c8576126c861249c565b5060010190565b7f4e487b7100000000000000000000000000000000000000000000000000000000600052603260045260246000fd5b60008161270d5761270d61249c565b507fffffffffffffffffffffffffffffffffffffffffffffffffffffffffffffffff0190565b7f4e487b7100000000000000000000000000000000000000000000000000000000600052602160045260246000fdfea264697066735822122053794a3c99d8b5d319ae471280b320f19aabac7ab9975385b40f6c1603f57fe064736f6c63430008090033",
  "devdoc": {
    "kind": "dev",
    "methods": {
      "buy(uint256)": {
        "details": "function to buy token with buyCurrency",
        "params": {
          "_buyCurrencyAmount": "(type uint256) amount of buyCurrency to buy tokens"
        }
      },
      "buyWhitelisted(uint256,bytes)": {
        "details": "function to buy token with buyCurrency",
        "params": {
          "_buyCurrencyAmount": "(type uint256) amount of buyCurrency to buy tokens",
          "_signature": "(type bytes) signature that proves that the caller is whitelisted"
        }
      },
      "getRoleAdmin(bytes32)": {
        "details": "Returns the admin role that controls `role`. See {grantRole} and {revokeRole}. To change a role's admin, use {_setRoleAdmin}."
      },
      "grantRole(bytes32,address)": {
        "details": "Grants `role` to `account`. If `account` had not been already granted `role`, emits a {RoleGranted} event. Requirements: - the caller must have ``role``'s admin role."
      },
      "hasRole(bytes32,address)": {
        "details": "Returns `true` if `account` has been granted `role`."
      },
      "paused()": {
        "details": "Returns true if the contract is paused, and false otherwise."
      },
      "renounceRole(bytes32,address)": {
        "details": "Revokes `role` from the calling account. Roles are often managed via {grantRole} and {revokeRole}: this function's purpose is to provide a mechanism for accounts to lose their privileges if they are compromised (such as when a trusted device is misplaced). If the calling account had been revoked `role`, emits a {RoleRevoked} event. Requirements: - the caller must be `account`."
      },
      "revokeRole(bytes32,address)": {
        "details": "Revokes `role` from `account`. If `account` had been granted `role`, emits a {RoleRevoked} event. Requirements: - the caller must have ``role``'s admin role."
      },
      "supportsInterface(bytes4)": {
        "details": "See {IERC165-supportsInterface}."
      },
      "withdraw(address,address,uint256)": {
        "params": {
          "_amount": "(type uint256) amount of buyCurrency",
          "_token": "(type address) ERC20 token address (can be buyCurrency)"
        }
      }
    },
    "version": 1
  },
  "userdoc": {
    "kind": "user",
    "methods": {},
    "version": 1
  },
  "storageLayout": {
    "storage": [
      {
        "astId": 484,
        "contract": "contracts/ido/TokenPublicSale.sol:TokenPublicSale",
        "label": "_status",
        "offset": 0,
        "slot": "0",
        "type": "t_uint256"
      },
      {
        "astId": 24,
        "contract": "contracts/ido/TokenPublicSale.sol:TokenPublicSale",
        "label": "_roles",
        "offset": 0,
        "slot": "1",
        "type": "t_mapping(t_bytes32,t_struct(RoleData)19_storage)"
      },
      {
        "astId": 399,
        "contract": "contracts/ido/TokenPublicSale.sol:TokenPublicSale",
        "label": "_paused",
        "offset": 0,
        "slot": "2",
        "type": "t_bool"
      },
      {
        "astId": 3279,
        "contract": "contracts/ido/TokenPublicSale.sol:TokenPublicSale",
        "label": "token",
        "offset": 1,
        "slot": "2",
        "type": "t_address"
      },
      {
        "astId": 3281,
        "contract": "contracts/ido/TokenPublicSale.sol:TokenPublicSale",
        "label": "buyCurrency",
        "offset": 0,
        "slot": "3",
        "type": "t_address"
      },
      {
        "astId": 3283,
        "contract": "contracts/ido/TokenPublicSale.sol:TokenPublicSale",
        "label": "startDate",
        "offset": 0,
        "slot": "4",
        "type": "t_uint256"
      },
      {
        "astId": 3285,
        "contract": "contracts/ido/TokenPublicSale.sol:TokenPublicSale",
        "label": "whitelistEndDate",
        "offset": 0,
        "slot": "5",
        "type": "t_uint256"
      },
      {
        "astId": 3287,
        "contract": "contracts/ido/TokenPublicSale.sol:TokenPublicSale",
        "label": "endDate",
        "offset": 0,
        "slot": "6",
        "type": "t_uint256"
      },
      {
        "astId": 3289,
        "contract": "contracts/ido/TokenPublicSale.sol:TokenPublicSale",
        "label": "exchangeRate",
        "offset": 0,
        "slot": "7",
        "type": "t_uint256"
      },
      {
        "astId": 3291,
        "contract": "contracts/ido/TokenPublicSale.sol:TokenPublicSale",
        "label": "minBuyAmount",
        "offset": 0,
        "slot": "8",
        "type": "t_uint256"
      },
      {
        "astId": 3293,
        "contract": "contracts/ido/TokenPublicSale.sol:TokenPublicSale",
        "label": "maxBuyAmount",
        "offset": 0,
        "slot": "9",
        "type": "t_uint256"
      },
      {
        "astId": 3295,
        "contract": "contracts/ido/TokenPublicSale.sol:TokenPublicSale",
        "label": "maxWhitelistedBuyAmount",
        "offset": 0,
        "slot": "10",
        "type": "t_uint256"
      },
      {
        "astId": 3297,
        "contract": "contracts/ido/TokenPublicSale.sol:TokenPublicSale",
        "label": "releaseDuration",
        "offset": 0,
        "slot": "11",
        "type": "t_uint256"
      },
      {
        "astId": 3299,
        "contract": "contracts/ido/TokenPublicSale.sol:TokenPublicSale",
        "label": "releaseInterval",
        "offset": 0,
        "slot": "12",
        "type": "t_uint256"
      },
      {
        "astId": 3303,
        "contract": "contracts/ido/TokenPublicSale.sol:TokenPublicSale",
        "label": "_participantToBuyAmount",
        "offset": 0,
        "slot": "13",
        "type": "t_mapping(t_address,t_uint256)"
      },
      {
        "astId": 3307,
        "contract": "contracts/ido/TokenPublicSale.sol:TokenPublicSale",
        "label": "_releasedAmounts",
        "offset": 0,
        "slot": "14",
        "type": "t_mapping(t_address,t_uint256)"
      },
      {
        "astId": 3309,
        "contract": "contracts/ido/TokenPublicSale.sol:TokenPublicSale",
        "label": "_participantCount",
        "offset": 0,
        "slot": "15",
        "type": "t_uint256"
      },
      {
        "astId": 3311,
        "contract": "contracts/ido/TokenPublicSale.sol:TokenPublicSale",
        "label": "_buyCount",
        "offset": 0,
        "slot": "16",
        "type": "t_uint256"
      },
      {
        "astId": 3313,
        "contract": "contracts/ido/TokenPublicSale.sol:TokenPublicSale",
        "label": "_totalRaised",
        "offset": 0,
        "slot": "17",
        "type": "t_uint256"
      }
    ],
    "types": {
      "t_address": {
        "encoding": "inplace",
        "label": "address",
        "numberOfBytes": "20"
      },
      "t_bool": {
        "encoding": "inplace",
        "label": "bool",
        "numberOfBytes": "1"
      },
      "t_bytes32": {
        "encoding": "inplace",
        "label": "bytes32",
        "numberOfBytes": "32"
      },
      "t_mapping(t_address,t_bool)": {
        "encoding": "mapping",
        "key": "t_address",
        "label": "mapping(address => bool)",
        "numberOfBytes": "32",
        "value": "t_bool"
      },
      "t_mapping(t_address,t_uint256)": {
        "encoding": "mapping",
        "key": "t_address",
        "label": "mapping(address => uint256)",
        "numberOfBytes": "32",
        "value": "t_uint256"
      },
      "t_mapping(t_bytes32,t_struct(RoleData)19_storage)": {
        "encoding": "mapping",
        "key": "t_bytes32",
        "label": "mapping(bytes32 => struct AccessControl.RoleData)",
        "numberOfBytes": "32",
        "value": "t_struct(RoleData)19_storage"
      },
      "t_struct(RoleData)19_storage": {
        "encoding": "inplace",
        "label": "struct AccessControl.RoleData",
        "members": [
          {
            "astId": 16,
            "contract": "contracts/ido/TokenPublicSale.sol:TokenPublicSale",
            "label": "members",
            "offset": 0,
            "slot": "0",
            "type": "t_mapping(t_address,t_bool)"
          },
          {
            "astId": 18,
            "contract": "contracts/ido/TokenPublicSale.sol:TokenPublicSale",
            "label": "adminRole",
            "offset": 0,
            "slot": "1",
            "type": "t_bytes32"
          }
        ],
        "numberOfBytes": "64"
      },
      "t_uint256": {
        "encoding": "inplace",
        "label": "uint256",
        "numberOfBytes": "32"
      }
    }
  }
}