{
  "address": "0x76D099c7DEf748053715387E7Ff72A21e9252249",
  "abi": [
    {
      "inputs": [
        {
          "internalType": "address",
          "name": "_token",
          "type": "address"
        },
        {
          "internalType": "address",
          "name": "_buyCurrency",
          "type": "address"
        },
        {
          "internalType": "uint256",
          "name": "_startDate",
          "type": "uint256"
        },
        {
          "internalType": "uint256",
          "name": "_whitelistEndDate",
          "type": "uint256"
        },
        {
          "internalType": "uint256",
          "name": "_endDate",
          "type": "uint256"
        },
        {
          "internalType": "uint256",
          "name": "_exchangeRate",
          "type": "uint256"
        },
        {
          "internalType": "uint256",
          "name": "_minBuyAmount",
          "type": "uint256"
        },
        {
          "internalType": "uint256",
          "name": "_maxBuyAmount",
          "type": "uint256"
        },
        {
          "internalType": "uint256",
          "name": "_maxWhitelistedBuyAmount",
          "type": "uint256"
        }
      ],
      "stateMutability": "nonpayable",
      "type": "constructor"
    },
    {
      "anonymous": false,
      "inputs": [
        {
          "indexed": false,
          "internalType": "address",
          "name": "account",
          "type": "address"
        }
      ],
      "name": "Paused",
      "type": "event"
    },
    {
      "anonymous": false,
      "inputs": [
        {
          "indexed": true,
          "internalType": "bytes32",
          "name": "role",
          "type": "bytes32"
        },
        {
          "indexed": true,
          "internalType": "bytes32",
          "name": "previousAdminRole",
          "type": "bytes32"
        },
        {
          "indexed": true,
          "internalType": "bytes32",
          "name": "newAdminRole",
          "type": "bytes32"
        }
      ],
      "name": "RoleAdminChanged",
      "type": "event"
    },
    {
      "anonymous": false,
      "inputs": [
        {
          "indexed": true,
          "internalType": "bytes32",
          "name": "role",
          "type": "bytes32"
        },
        {
          "indexed": true,
          "internalType": "address",
          "name": "account",
          "type": "address"
        },
        {
          "indexed": true,
          "internalType": "address",
          "name": "sender",
          "type": "address"
        }
      ],
      "name": "RoleGranted",
      "type": "event"
    },
    {
      "anonymous": false,
      "inputs": [
        {
          "indexed": true,
          "internalType": "bytes32",
          "name": "role",
          "type": "bytes32"
        },
        {
          "indexed": true,
          "internalType": "address",
          "name": "account",
          "type": "address"
        },
        {
          "indexed": true,
          "internalType": "address",
          "name": "sender",
          "type": "address"
        }
      ],
      "name": "RoleRevoked",
      "type": "event"
    },
    {
      "anonymous": false,
      "inputs": [
        {
          "indexed": false,
          "internalType": "address",
          "name": "account",
          "type": "address"
        }
      ],
      "name": "Unpaused",
      "type": "event"
    },
    {
      "inputs": [],
      "name": "DEFAULT_ADMIN_ROLE",
      "outputs": [
        {
          "internalType": "bytes32",
          "name": "",
          "type": "bytes32"
        }
      ],
      "stateMutability": "view",
      "type": "function"
    },
    {
      "inputs": [],
      "name": "PAUSER_ROLE",
      "outputs": [
        {
          "internalType": "bytes32",
          "name": "",
          "type": "bytes32"
        }
      ],
      "stateMutability": "view",
      "type": "function"
    },
    {
      "inputs": [],
      "name": "WHITELISTER_ROLE",
      "outputs": [
        {
          "internalType": "bytes32",
          "name": "",
          "type": "bytes32"
        }
      ],
      "stateMutability": "view",
      "type": "function"
    },
    {
      "inputs": [
        {
          "internalType": "uint256",
          "name": "_buyCurrencyAmount",
          "type": "uint256"
        }
      ],
      "name": "buy",
      "outputs": [
        {
          "internalType": "bool",
          "name": "sucess",
          "type": "bool"
        }
      ],
      "stateMutability": "nonpayable",
      "type": "function"
    },
    {
      "inputs": [],
      "name": "buyCurrency",
      "outputs": [
        {
          "internalType": "address",
          "name": "",
          "type": "address"
        }
      ],
      "stateMutability": "view",
      "type": "function"
    },
    {
      "inputs": [
        {
          "internalType": "uint256",
          "name": "_buyCurrencyAmount",
          "type": "uint256"
        },
        {
          "internalType": "bytes",
          "name": "_signature",
          "type": "bytes"
        }
      ],
      "name": "buyWhitelisted",
      "outputs": [
        {
          "internalType": "bool",
          "name": "sucess",
          "type": "bool"
        }
      ],
      "stateMutability": "nonpayable",
      "type": "function"
    },
    {
      "inputs": [],
      "name": "endDate",
      "outputs": [
        {
          "internalType": "uint256",
          "name": "",
          "type": "uint256"
        }
      ],
      "stateMutability": "view",
      "type": "function"
    },
    {
      "inputs": [],
      "name": "exchangeRate",
      "outputs": [
        {
          "internalType": "uint256",
          "name": "",
          "type": "uint256"
        }
      ],
      "stateMutability": "view",
      "type": "function"
    },
    {
      "inputs": [],
      "name": "getBuyCount",
      "outputs": [
        {
          "internalType": "uint256",
          "name": "",
          "type": "uint256"
        }
      ],
      "stateMutability": "view",
      "type": "function"
    },
    {
      "inputs": [
        {
          "internalType": "address",
          "name": "_participant",
          "type": "address"
        }
      ],
      "name": "getParticipantBuyAmount",
      "outputs": [
        {
          "internalType": "uint256",
          "name": "",
          "type": "uint256"
        }
      ],
      "stateMutability": "view",
      "type": "function"
    },
    {
      "inputs": [],
      "name": "getParticipantCount",
      "outputs": [
        {
          "internalType": "uint256",
          "name": "",
          "type": "uint256"
        }
      ],
      "stateMutability": "view",
      "type": "function"
    },
    {
      "inputs": [
        {
          "internalType": "bytes32",
          "name": "role",
          "type": "bytes32"
        }
      ],
      "name": "getRoleAdmin",
      "outputs": [
        {
          "internalType": "bytes32",
          "name": "",
          "type": "bytes32"
        }
      ],
      "stateMutability": "view",
      "type": "function"
    },
    {
      "inputs": [],
      "name": "getTotalRaised",
      "outputs": [
        {
          "internalType": "uint256",
          "name": "",
          "type": "uint256"
        }
      ],
      "stateMutability": "view",
      "type": "function"
    },
    {
      "inputs": [
        {
          "internalType": "bytes32",
          "name": "role",
          "type": "bytes32"
        },
        {
          "internalType": "address",
          "name": "account",
          "type": "address"
        }
      ],
      "name": "grantRole",
      "outputs": [],
      "stateMutability": "nonpayable",
      "type": "function"
    },
    {
      "inputs": [
        {
          "internalType": "bytes32",
          "name": "role",
          "type": "bytes32"
        },
        {
          "internalType": "address",
          "name": "account",
          "type": "address"
        }
      ],
      "name": "hasRole",
      "outputs": [
        {
          "internalType": "bool",
          "name": "",
          "type": "bool"
        }
      ],
      "stateMutability": "view",
      "type": "function"
    },
    {
      "inputs": [],
      "name": "maxBuyAmount",
      "outputs": [
        {
          "internalType": "uint256",
          "name": "",
          "type": "uint256"
        }
      ],
      "stateMutability": "view",
      "type": "function"
    },
    {
      "inputs": [],
      "name": "maxWhitelistedBuyAmount",
      "outputs": [
        {
          "internalType": "uint256",
          "name": "",
          "type": "uint256"
        }
      ],
      "stateMutability": "view",
      "type": "function"
    },
    {
      "inputs": [],
      "name": "minBuyAmount",
      "outputs": [
        {
          "internalType": "uint256",
          "name": "",
          "type": "uint256"
        }
      ],
      "stateMutability": "view",
      "type": "function"
    },
    {
      "inputs": [],
      "name": "pause",
      "outputs": [],
      "stateMutability": "nonpayable",
      "type": "function"
    },
    {
      "inputs": [],
      "name": "paused",
      "outputs": [
        {
          "internalType": "bool",
          "name": "",
          "type": "bool"
        }
      ],
      "stateMutability": "view",
      "type": "function"
    },
    {
      "inputs": [
        {
          "internalType": "bytes32",
          "name": "role",
          "type": "bytes32"
        },
        {
          "internalType": "address",
          "name": "account",
          "type": "address"
        }
      ],
      "name": "renounceRole",
      "outputs": [],
      "stateMutability": "nonpayable",
      "type": "function"
    },
    {
      "inputs": [
        {
          "internalType": "bytes32",
          "name": "role",
          "type": "bytes32"
        },
        {
          "internalType": "address",
          "name": "account",
          "type": "address"
        }
      ],
      "name": "revokeRole",
      "outputs": [],
      "stateMutability": "nonpayable",
      "type": "function"
    },
    {
      "inputs": [
        {
          "internalType": "uint256",
          "name": "_endDate",
          "type": "uint256"
        }
      ],
      "name": "setEndDate",
      "outputs": [],
      "stateMutability": "nonpayable",
      "type": "function"
    },
    {
      "inputs": [
        {
          "internalType": "uint256",
          "name": "_exchangeRate",
          "type": "uint256"
        }
      ],
      "name": "setExchangeRate",
      "outputs": [],
      "stateMutability": "nonpayable",
      "type": "function"
    },
    {
      "inputs": [
        {
          "internalType": "uint256",
          "name": "_maxBuyAmount",
          "type": "uint256"
        }
      ],
      "name": "setMaxBuyAmount",
      "outputs": [],
      "stateMutability": "nonpayable",
      "type": "function"
    },
    {
      "inputs": [
        {
          "internalType": "uint256",
          "name": "_maxWhitelistedBuyAmount",
          "type": "uint256"
        }
      ],
      "name": "setMaxWhitelistedBuyAmount",
      "outputs": [],
      "stateMutability": "nonpayable",
      "type": "function"
    },
    {
      "inputs": [
        {
          "internalType": "uint256",
          "name": "_minBuyAmount",
          "type": "uint256"
        }
      ],
      "name": "setMinBuyAmount",
      "outputs": [],
      "stateMutability": "nonpayable",
      "type": "function"
    },
    {
      "inputs": [
        {
          "internalType": "uint256",
          "name": "_startDate",
          "type": "uint256"
        }
      ],
      "name": "setStartDate",
      "outputs": [],
      "stateMutability": "nonpayable",
      "type": "function"
    },
    {
      "inputs": [
        {
          "internalType": "uint256",
          "name": "_whitelistEndDate",
          "type": "uint256"
        }
      ],
      "name": "setWhitelistEndDate",
      "outputs": [],
      "stateMutability": "nonpayable",
      "type": "function"
    },
    {
      "inputs": [],
      "name": "startDate",
      "outputs": [
        {
          "internalType": "uint256",
          "name": "",
          "type": "uint256"
        }
      ],
      "stateMutability": "view",
      "type": "function"
    },
    {
      "inputs": [
        {
          "internalType": "bytes4",
          "name": "interfaceId",
          "type": "bytes4"
        }
      ],
      "name": "supportsInterface",
      "outputs": [
        {
          "internalType": "bool",
          "name": "",
          "type": "bool"
        }
      ],
      "stateMutability": "view",
      "type": "function"
    },
    {
      "inputs": [],
      "name": "token",
      "outputs": [
        {
          "internalType": "address",
          "name": "",
          "type": "address"
        }
      ],
      "stateMutability": "view",
      "type": "function"
    },
    {
      "inputs": [],
      "name": "unpause",
      "outputs": [],
      "stateMutability": "nonpayable",
      "type": "function"
    },
    {
      "inputs": [],
      "name": "whitelistEndDate",
      "outputs": [
        {
          "internalType": "uint256",
          "name": "",
          "type": "uint256"
        }
      ],
      "stateMutability": "view",
      "type": "function"
    },
    {
      "inputs": [
        {
          "internalType": "address",
          "name": "_token",
          "type": "address"
        },
        {
          "internalType": "uint256",
          "name": "_amount",
          "type": "uint256"
        }
      ],
      "name": "withdraw",
      "outputs": [
        {
          "internalType": "bool",
          "name": "success",
          "type": "bool"
        }
      ],
      "stateMutability": "nonpayable",
      "type": "function"
    }
  ],
  "transactionHash": "0xd356675f958c567509e189ba537497d86b9b59aed4eb8187971a7276f7570d02",
  "args": [
    "0xa4cB6c682cAeBFF9A1Da0ADCD3f947f83dA3B15d",
    "0x6355099bE12B10c3b4cc0b2df722edB3bB67a63e",
    1655478000,
    1655564400,
    1658070000,
    200,
    "1000000000000000000000",
    "1000000000000000000000000",
    "2000000000000000000000000"
  ],
  "numDeployments": 1,
  "solcInputHash": "a0e877c644d37148dc649750647f40d4",
  "bytecode": "0x60806040523480156200001157600080fd5b5060405162002512380380620025128339810160408190526200003491620001b5565b60016000908155600280546001600160a81b0319166101006001600160a01b038d81169190910291909117909155600380546001600160a01b031916918b16919091179055600488905560058790556006869055600785905560088490556009839055600a829055620000a890336200010f565b620000d47f65d7a28e3265b37a6474929f336521b332c1681b933f6cb9f3376673440d862a336200010f565b620001007f8619cecd8b9e095ab43867f5b69d492180450fe862e6b50bfbfb24b75dd84c8a336200010f565b50505050505050505062000231565b60008281526001602090815260408083206001600160a01b038516845290915290205460ff16620001945760008281526001602081815260408084206001600160a01b0386168086529252808420805460ff19169093179092559051339285917f2f8788117e7eff1d82e926ec794901d17c78024a50270940304540a733656f0d9190a45b5050565b80516001600160a01b0381168114620001b057600080fd5b919050565b60008060008060008060008060006101208a8c031215620001d557600080fd5b620001e08a62000198565b9850620001f060208b0162000198565b975060408a0151965060608a0151955060808a0151945060a08a0151935060c08a0151925060e08a015191506101008a015190509295985092959850929598565b6122d180620002416000396000f3fe608060405234801561001057600080fd5b50600436106102415760003560e01c806391d1485411610145578063d547741f116100bd578063e63ab1e91161008c578063f3fef3a311610071578063f3fef3a314610506578063f66bf22914610519578063fc0c546a1461052257600080fd5b8063e63ab1e9146104cc578063f34eb0b8146104f357600080fd5b8063d547741f1461048a578063d96a094a1461049d578063db068e0e146104b0578063dfb25a7d146104c357600080fd5b8063a217fddf11610114578063ad63a145116100f9578063ad63a14514610429578063c24a0f8b1461046e578063d494c3881461047757600080fd5b8063a217fddf14610419578063ad6057291461042157600080fd5b806391d148541461038257806393dc05a0146103c85780639f550293146103fe5780639fd6e40b1461040657600080fd5b8063383c1ca9116101d85780635c975abb116101a75780638456cb591161018c5780638456cb591461036957806388e765ff146103715780638f10fd451461037a57600080fd5b80635c975abb1461034b57806382d95df51461035657600080fd5b8063383c1ca91461030a5780633ba0b9a9146103135780633f4ba83a1461031c578063570618e11461032457600080fd5b8063286082f811610214578063286082f8146102be5780632f2ff15d146102d157806336568abe146102e45780633784f000146102f757600080fd5b806301ffc9a7146102465780630b97bc861461026e57806312fd52c414610285578063248a9ca31461029a575b600080fd5b610259610254366004611def565b610547565b60405190151581526020015b60405180910390f35b61027760045481565b604051908152602001610265565b610298610293366004611e31565b610558565b005b6102776102a8366004611e31565b6000908152600160208190526040909120015490565b6102986102cc366004611e31565b61056a565b6102986102df366004611e73565b61057c565b6102986102f2366004611e73565b6105a8565b610298610305366004611e31565b610660565b610277600a5481565b61027760075481565b610298610672565b6102777f8619cecd8b9e095ab43867f5b69d492180450fe862e6b50bfbfb24b75dd84c8a81565b60025460ff16610259565b610298610364366004611e31565b6106a8565b6102986106ba565b61027760095481565b600d54610277565b610259610390366004611e73565b600091825260016020908152604080842073ffffffffffffffffffffffffffffffffffffffff93909316845291905290205460ff1690565b6102776103d6366004611e9f565b73ffffffffffffffffffffffffffffffffffffffff166000908152600b602052604090205490565b600e54610277565b610259610414366004611ee9565b6106ed565b610277600081565b600c54610277565b6003546104499073ffffffffffffffffffffffffffffffffffffffff1681565b60405173ffffffffffffffffffffffffffffffffffffffff9091168152602001610265565b61027760065481565b610298610485366004611e31565b610cc7565b610298610498366004611e73565b610cd9565b6102596104ab366004611e31565b610d00565b6102986104be366004611e31565b611178565b61027760055481565b6102777f65d7a28e3265b37a6474929f336521b332c1681b933f6cb9f3376673440d862a81565b610298610501366004611e31565b61118a565b610259610514366004611fc2565b61119c565b61027760085481565b60025461044990610100900473ffffffffffffffffffffffffffffffffffffffff1681565b6000610552826112ca565b92915050565b60006105648133611361565b50600a55565b60006105768133611361565b50600555565b600082815260016020819052604090912001546105998133611361565b6105a38383611433565b505050565b73ffffffffffffffffffffffffffffffffffffffff81163314610652576040517f08c379a000000000000000000000000000000000000000000000000000000000815260206004820152602f60248201527f416363657373436f6e74726f6c3a2063616e206f6e6c792072656e6f756e636560448201527f20726f6c657320666f722073656c66000000000000000000000000000000000060648201526084015b60405180910390fd5b61065c82826114f2565b5050565b600061066c8133611361565b50600655565b7f65d7a28e3265b37a6474929f336521b332c1681b933f6cb9f3376673440d862a61069d8133611361565b6106a56115ad565b50565b60006106b48133611361565b50600455565b7f65d7a28e3265b37a6474929f336521b332c1681b933f6cb9f3376673440d862a6106e58133611361565b6106a561168e565b6040805130606090811b7fffffffffffffffffffffffffffffffffffffffff0000000000000000000000009081166020808501919091523390921b166034830152825160288184030181526048830184528051908201207f19457468657265756d205369676e6564204d6573736167653a0a333200000000606884015260848084018290528451808503909101815260a4909301909352815191012060009183919050600061079c828461174e565b73ffffffffffffffffffffffffffffffffffffffff811660009081527f08d673bc4b8299a5cdd351c219cdb635f369c087506fa10ff5c326a992094efc602052604090205490915060ff1661084d576040517f08c379a000000000000000000000000000000000000000000000000000000000815260206004820152601760248201527f596f7520617265206e6f742077686974656c69737465640000000000000000006044820152606401610649565b600260005414156108ba576040517f08c379a000000000000000000000000000000000000000000000000000000000815260206004820152601f60248201527f5265656e7472616e637947756172643a207265656e7472616e742063616c6c006044820152606401610649565b60026000556108cb60025460ff1690565b15610932576040517f08c379a000000000000000000000000000000000000000000000000000000000815260206004820152601060248201527f5061757361626c653a20706175736564000000000000000000000000000000006044820152606401610649565b600454421015801561094657506006544211155b6109ac576040517f08c379a000000000000000000000000000000000000000000000000000000000815260206004820152601860248201527f546f6b656e2073616c65206973206e6f742061637469766500000000000000006044820152606401610649565b600854861015610a18576040517f08c379a000000000000000000000000000000000000000000000000000000000815260206004820181905260248201527f6d75737420626520626967676572207468616e206d696e427579416d6f756e746044820152606401610649565b336000908152600b602052604081205490610a33888361201b565b9050600a54811115610ac7576040517f08c379a000000000000000000000000000000000000000000000000000000000815260206004820152603260248201527f746f74616c2062757920616d6f756e74206d75737420626520736d616c6c657260448201527f207468616e206d6178427579416d6f756e7400000000000000000000000000006064820152608401610649565b81610ae257600c8054906000610adc83612033565b91905055505b336000908152600b60205260408120829055600d805491610b0283612033565b919050555087600e6000828254610b19919061201b565b90915550506003546040517f23b872dd000000000000000000000000000000000000000000000000000000008152336004820152306024820152604481018a905273ffffffffffffffffffffffffffffffffffffffff909116906323b872dd90606401602060405180830381600087803b158015610b9657600080fd5b505af1158015610baa573d6000803e3d6000fd5b505050506040513d601f19601f82011682018060405250810190610bce919061206c565b5060025460075461010090910473ffffffffffffffffffffffffffffffffffffffff169063a9059cbb903390610c0560648d61208e565b610c0f91906120c9565b6040517fffffffff0000000000000000000000000000000000000000000000000000000060e085901b16815273ffffffffffffffffffffffffffffffffffffffff90921660048301526024820152604401602060405180830381600087803b158015610c7a57600080fd5b505af1158015610c8e573d6000803e3d6000fd5b505050506040513d601f19601f82011682018060405250810190610cb2919061206c565b50600195505050505060016000555092915050565b6000610cd38133611361565b50600855565b60008281526001602081905260409091200154610cf68133611361565b6105a383836114f2565b600060026000541415610d6f576040517f08c379a000000000000000000000000000000000000000000000000000000000815260206004820152601f60248201527f5265656e7472616e637947756172643a207265656e7472616e742063616c6c006044820152606401610649565b6002600055610d8060025460ff1690565b15610de7576040517f08c379a000000000000000000000000000000000000000000000000000000000815260206004820152601060248201527f5061757361626c653a20706175736564000000000000000000000000000000006044820152606401610649565b6005544210158015610dfb57506006544211155b610e61576040517f08c379a000000000000000000000000000000000000000000000000000000000815260206004820152601860248201527f546f6b656e2073616c65206973206e6f742061637469766500000000000000006044820152606401610649565b600854821015610ecd576040517f08c379a000000000000000000000000000000000000000000000000000000000815260206004820181905260248201527f6d75737420626520626967676572207468616e206d696e427579416d6f756e746044820152606401610649565b336000908152600b602052604081205490610ee8848361201b565b9050600954811115610f7c576040517f08c379a000000000000000000000000000000000000000000000000000000000815260206004820152603260248201527f746f74616c2062757920616d6f756e74206d75737420626520736d616c6c657260448201527f207468616e206d6178427579416d6f756e7400000000000000000000000000006064820152608401610649565b81610f9757600c8054906000610f9183612033565b91905055505b336000908152600b60205260408120829055600d805491610fb783612033565b919050555083600e6000828254610fce919061201b565b90915550506003546040517f23b872dd0000000000000000000000000000000000000000000000000000000081523360048201523060248201526044810186905273ffffffffffffffffffffffffffffffffffffffff909116906323b872dd90606401602060405180830381600087803b15801561104b57600080fd5b505af115801561105f573d6000803e3d6000fd5b505050506040513d601f19601f82011682018060405250810190611083919061206c565b5060025460075461010090910473ffffffffffffffffffffffffffffffffffffffff169063a9059cbb9033906110ba60648961208e565b6110c491906120c9565b6040517fffffffff0000000000000000000000000000000000000000000000000000000060e085901b16815273ffffffffffffffffffffffffffffffffffffffff90921660048301526024820152604401602060405180830381600087803b15801561112f57600080fd5b505af1158015611143573d6000803e3d6000fd5b505050506040513d601f19601f82011682018060405250810190611167919061206c565b506001925050506001600055919050565b60006111848133611361565b50600755565b60006111968133611361565b50600955565b6000806111a98133611361565b73ffffffffffffffffffffffffffffffffffffffff841661121757604051600090339085908381818185875af1925050503d8060008114611206576040519150601f19603f3d011682016040523d82523d6000602084013e61120b565b606091505b509093506112c3915050565b6040517fa9059cbb0000000000000000000000000000000000000000000000000000000081523360048201526024810184905273ffffffffffffffffffffffffffffffffffffffff85169063a9059cbb90604401602060405180830381600087803b15801561128557600080fd5b505af1158015611299573d6000803e3d6000fd5b505050506040513d601f19601f820116820180604052508101906112bd919061206c565b50600191505b5092915050565b60007fffffffff0000000000000000000000000000000000000000000000000000000082167f7965db0b00000000000000000000000000000000000000000000000000000000148061055257507f01ffc9a7000000000000000000000000000000000000000000000000000000007fffffffff00000000000000000000000000000000000000000000000000000000831614610552565b600082815260016020908152604080832073ffffffffffffffffffffffffffffffffffffffff8516845290915290205460ff1661065c576113b98173ffffffffffffffffffffffffffffffffffffffff166014611772565b6113c4836020611772565b6040516020016113d5929190612136565b604080517fffffffffffffffffffffffffffffffffffffffffffffffffffffffffffffffe0818403018152908290527f08c379a0000000000000000000000000000000000000000000000000000000008252610649916004016121b7565b600082815260016020908152604080832073ffffffffffffffffffffffffffffffffffffffff8516845290915290205460ff1661065c57600082815260016020818152604080842073ffffffffffffffffffffffffffffffffffffffff8616808652925280842080547fffffffffffffffffffffffffffffffffffffffffffffffffffffffffffffff00169093179092559051339285917f2f8788117e7eff1d82e926ec794901d17c78024a50270940304540a733656f0d9190a45050565b600082815260016020908152604080832073ffffffffffffffffffffffffffffffffffffffff8516845290915290205460ff161561065c57600082815260016020908152604080832073ffffffffffffffffffffffffffffffffffffffff8516808552925280832080547fffffffffffffffffffffffffffffffffffffffffffffffffffffffffffffff0016905551339285917ff6391f5c32d9c69d2a47ea670b442974b53935d1edc7fd64eb21e047a839171b9190a45050565b60025460ff16611619576040517f08c379a000000000000000000000000000000000000000000000000000000000815260206004820152601460248201527f5061757361626c653a206e6f74207061757365640000000000000000000000006044820152606401610649565b600280547fffffffffffffffffffffffffffffffffffffffffffffffffffffffffffffff001690557f5db9ee0a495bf2e6ff9c91a7834c1ba4fdd244a5e8aa4e537bd38aeae4b073aa335b60405173ffffffffffffffffffffffffffffffffffffffff909116815260200160405180910390a1565b60025460ff16156116fb576040517f08c379a000000000000000000000000000000000000000000000000000000000815260206004820152601060248201527f5061757361626c653a20706175736564000000000000000000000000000000006044820152606401610649565b600280547fffffffffffffffffffffffffffffffffffffffffffffffffffffffffffffff001660011790557f62e78cea01bee320cd4e420270b5ea74000d11b0c9f74754ebdbfc544b05a2586116643390565b600080600061175d85856119bc565b9150915061176a81611a2c565b509392505050565b606060006117818360026120c9565b61178c90600261201b565b67ffffffffffffffff8111156117a4576117a4611eba565b6040519080825280601f01601f1916602001820160405280156117ce576020820181803683370190505b5090507f30000000000000000000000000000000000000000000000000000000000000008160008151811061180557611805612208565b60200101907effffffffffffffffffffffffffffffffffffffffffffffffffffffffffffff1916908160001a9053507f78000000000000000000000000000000000000000000000000000000000000008160018151811061186857611868612208565b60200101907effffffffffffffffffffffffffffffffffffffffffffffffffffffffffffff1916908160001a90535060006118a48460026120c9565b6118af90600161201b565b90505b600181111561194c577f303132333435363738396162636465660000000000000000000000000000000085600f16601081106118f0576118f0612208565b1a60f81b82828151811061190657611906612208565b60200101907effffffffffffffffffffffffffffffffffffffffffffffffffffffffffffff1916908160001a90535060049490941c9361194581612237565b90506118b2565b5083156119b5576040517f08c379a000000000000000000000000000000000000000000000000000000000815260206004820181905260248201527f537472696e67733a20686578206c656e67746820696e73756666696369656e746044820152606401610649565b9392505050565b6000808251604114156119f35760208301516040840151606085015160001a6119e787828585611c85565b94509450505050611a25565b825160401415611a1d5760208301516040840151611a12868383611d9d565b935093505050611a25565b506000905060025b9250929050565b6000816004811115611a4057611a4061226c565b1415611a495750565b6001816004811115611a5d57611a5d61226c565b1415611ac5576040517f08c379a000000000000000000000000000000000000000000000000000000000815260206004820152601860248201527f45434453413a20696e76616c6964207369676e617475726500000000000000006044820152606401610649565b6002816004811115611ad957611ad961226c565b1415611b41576040517f08c379a000000000000000000000000000000000000000000000000000000000815260206004820152601f60248201527f45434453413a20696e76616c6964207369676e6174757265206c656e677468006044820152606401610649565b6003816004811115611b5557611b5561226c565b1415611be3576040517f08c379a000000000000000000000000000000000000000000000000000000000815260206004820152602260248201527f45434453413a20696e76616c6964207369676e6174757265202773272076616c60448201527f75650000000000000000000000000000000000000000000000000000000000006064820152608401610649565b6004816004811115611bf757611bf761226c565b14156106a5576040517f08c379a000000000000000000000000000000000000000000000000000000000815260206004820152602260248201527f45434453413a20696e76616c6964207369676e6174757265202776272076616c60448201527f75650000000000000000000000000000000000000000000000000000000000006064820152608401610649565b6000807f7fffffffffffffffffffffffffffffff5d576e7357a4501ddfe92f46681b20a0831115611cbc5750600090506003611d94565b8460ff16601b14158015611cd457508460ff16601c14155b15611ce55750600090506004611d94565b6040805160008082526020820180845289905260ff881692820192909252606081018690526080810185905260019060a0016020604051602081039080840390855afa158015611d39573d6000803e3d6000fd5b50506040517fffffffffffffffffffffffffffffffffffffffffffffffffffffffffffffffe0015191505073ffffffffffffffffffffffffffffffffffffffff8116611d8d57600060019250925050611d94565b9150600090505b94509492505050565b6000807f7fffffffffffffffffffffffffffffffffffffffffffffffffffffffffffffff831681611dd360ff86901c601b61201b565b9050611de187828885611c85565b935093505050935093915050565b600060208284031215611e0157600080fd5b81357fffffffff00000000000000000000000000000000000000000000000000000000811681146119b557600080fd5b600060208284031215611e4357600080fd5b5035919050565b803573ffffffffffffffffffffffffffffffffffffffff81168114611e6e57600080fd5b919050565b60008060408385031215611e8657600080fd5b82359150611e9660208401611e4a565b90509250929050565b600060208284031215611eb157600080fd5b6119b582611e4a565b7f4e487b7100000000000000000000000000000000000000000000000000000000600052604160045260246000fd5b60008060408385031215611efc57600080fd5b82359150602083013567ffffffffffffffff80821115611f1b57600080fd5b818501915085601f830112611f2f57600080fd5b813581811115611f4157611f41611eba565b604051601f82017fffffffffffffffffffffffffffffffffffffffffffffffffffffffffffffffe0908116603f01168101908382118183101715611f8757611f87611eba565b81604052828152886020848701011115611fa057600080fd5b8260208601602083013760006020848301015280955050505050509250929050565b60008060408385031215611fd557600080fd5b611fde83611e4a565b946020939093013593505050565b7f4e487b7100000000000000000000000000000000000000000000000000000000600052601160045260246000fd5b6000821982111561202e5761202e611fec565b500190565b60007fffffffffffffffffffffffffffffffffffffffffffffffffffffffffffffffff82141561206557612065611fec565b5060010190565b60006020828403121561207e57600080fd5b815180151581146119b557600080fd5b6000826120c4577f4e487b7100000000000000000000000000000000000000000000000000000000600052601260045260246000fd5b500490565b6000817fffffffffffffffffffffffffffffffffffffffffffffffffffffffffffffffff048311821515161561210157612101611fec565b500290565b60005b83811015612121578181015183820152602001612109565b83811115612130576000848401525b50505050565b7f416363657373436f6e74726f6c3a206163636f756e742000000000000000000081526000835161216e816017850160208801612106565b7f206973206d697373696e6720726f6c652000000000000000000000000000000060179184019182015283516121ab816028840160208801612106565b01602801949350505050565b60208152600082518060208401526121d6816040850160208701612106565b601f017fffffffffffffffffffffffffffffffffffffffffffffffffffffffffffffffe0169190910160400192915050565b7f4e487b7100000000000000000000000000000000000000000000000000000000600052603260045260246000fd5b60008161224657612246611fec565b507fffffffffffffffffffffffffffffffffffffffffffffffffffffffffffffffff0190565b7f4e487b7100000000000000000000000000000000000000000000000000000000600052602160045260246000fdfea264697066735822122088c782d04cee33440e653e3da1c89f7ead92d7e65335433a5785fef1723d51bb64736f6c63430008090033",
  "devdoc": {
    "kind": "dev",
    "methods": {
      "buy(uint256)": {
        "details": "function to buy token with buyCurrency",
        "params": {
          "_buyCurrencyAmount": "(type uint256) amount of buyCurrency to buy tokens"
        }
      },
      "buyWhitelisted(uint256,bytes)": {
        "details": "function to buy token with buyCurrency",
        "params": {
          "_buyCurrencyAmount": "(type uint256) amount of buyCurrency to buy tokens",
          "_signature": "(type bytes) signature that proves that the caller is whitelisted"
        }
      },
      "getRoleAdmin(bytes32)": {
        "details": "Returns the admin role that controls `role`. See {grantRole} and {revokeRole}. To change a role's admin, use {_setRoleAdmin}."
      },
      "grantRole(bytes32,address)": {
        "details": "Grants `role` to `account`. If `account` had not been already granted `role`, emits a {RoleGranted} event. Requirements: - the caller must have ``role``'s admin role."
      },
      "hasRole(bytes32,address)": {
        "details": "Returns `true` if `account` has been granted `role`."
      },
      "paused()": {
        "details": "Returns true if the contract is paused, and false otherwise."
      },
      "renounceRole(bytes32,address)": {
        "details": "Revokes `role` from the calling account. Roles are often managed via {grantRole} and {revokeRole}: this function's purpose is to provide a mechanism for accounts to lose their privileges if they are compromised (such as when a trusted device is misplaced). If the calling account had been revoked `role`, emits a {RoleRevoked} event. Requirements: - the caller must be `account`."
      },
      "revokeRole(bytes32,address)": {
        "details": "Revokes `role` from `account`. If `account` had been granted `role`, emits a {RoleRevoked} event. Requirements: - the caller must have ``role``'s admin role."
      },
      "supportsInterface(bytes4)": {
        "details": "See {IERC165-supportsInterface}."
      },
      "withdraw(address,uint256)": {
        "params": {
          "_amount": "(type uint256) amount of buyCurrency",
          "_token": "(type address) ERC20 token address (can be buyCurrency)"
        }
      }
    },
    "version": 1
  },
  "userdoc": {
    "kind": "user",
    "methods": {},
    "version": 1
  },
  "storageLayout": {
    "storage": [
      {
        "astId": 484,
        "contract": "contracts/ido/TegistoSaleRound1.sol:TegistoSaleRound1",
        "label": "_status",
        "offset": 0,
        "slot": "0",
        "type": "t_uint256"
      },
      {
        "astId": 24,
        "contract": "contracts/ido/TegistoSaleRound1.sol:TegistoSaleRound1",
        "label": "_roles",
        "offset": 0,
        "slot": "1",
        "type": "t_mapping(t_bytes32,t_struct(RoleData)19_storage)"
      },
      {
        "astId": 399,
        "contract": "contracts/ido/TegistoSaleRound1.sol:TegistoSaleRound1",
        "label": "_paused",
        "offset": 0,
        "slot": "2",
        "type": "t_bool"
      },
      {
        "astId": 1941,
        "contract": "contracts/ido/TegistoSaleRound1.sol:TegistoSaleRound1",
        "label": "token",
        "offset": 1,
        "slot": "2",
        "type": "t_address"
      },
      {
        "astId": 1943,
        "contract": "contracts/ido/TegistoSaleRound1.sol:TegistoSaleRound1",
        "label": "buyCurrency",
        "offset": 0,
        "slot": "3",
        "type": "t_address"
      },
      {
        "astId": 1945,
        "contract": "contracts/ido/TegistoSaleRound1.sol:TegistoSaleRound1",
        "label": "startDate",
        "offset": 0,
        "slot": "4",
        "type": "t_uint256"
      },
      {
        "astId": 1947,
        "contract": "contracts/ido/TegistoSaleRound1.sol:TegistoSaleRound1",
        "label": "whitelistEndDate",
        "offset": 0,
        "slot": "5",
        "type": "t_uint256"
      },
      {
        "astId": 1949,
        "contract": "contracts/ido/TegistoSaleRound1.sol:TegistoSaleRound1",
        "label": "endDate",
        "offset": 0,
        "slot": "6",
        "type": "t_uint256"
      },
      {
        "astId": 1951,
        "contract": "contracts/ido/TegistoSaleRound1.sol:TegistoSaleRound1",
        "label": "exchangeRate",
        "offset": 0,
        "slot": "7",
        "type": "t_uint256"
      },
      {
        "astId": 1953,
        "contract": "contracts/ido/TegistoSaleRound1.sol:TegistoSaleRound1",
        "label": "minBuyAmount",
        "offset": 0,
        "slot": "8",
        "type": "t_uint256"
      },
      {
        "astId": 1955,
        "contract": "contracts/ido/TegistoSaleRound1.sol:TegistoSaleRound1",
        "label": "maxBuyAmount",
        "offset": 0,
        "slot": "9",
        "type": "t_uint256"
      },
      {
        "astId": 1957,
        "contract": "contracts/ido/TegistoSaleRound1.sol:TegistoSaleRound1",
        "label": "maxWhitelistedBuyAmount",
        "offset": 0,
        "slot": "10",
        "type": "t_uint256"
      },
      {
        "astId": 1961,
        "contract": "contracts/ido/TegistoSaleRound1.sol:TegistoSaleRound1",
        "label": "_participantToBuyAmount",
        "offset": 0,
        "slot": "11",
        "type": "t_mapping(t_address,t_uint256)"
      },
      {
        "astId": 1963,
        "contract": "contracts/ido/TegistoSaleRound1.sol:TegistoSaleRound1",
        "label": "_participantCount",
        "offset": 0,
        "slot": "12",
        "type": "t_uint256"
      },
      {
        "astId": 1965,
        "contract": "contracts/ido/TegistoSaleRound1.sol:TegistoSaleRound1",
        "label": "_buyCount",
        "offset": 0,
        "slot": "13",
        "type": "t_uint256"
      },
      {
        "astId": 1967,
        "contract": "contracts/ido/TegistoSaleRound1.sol:TegistoSaleRound1",
        "label": "_totalRaised",
        "offset": 0,
        "slot": "14",
        "type": "t_uint256"
      }
    ],
    "types": {
      "t_address": {
        "encoding": "inplace",
        "label": "address",
        "numberOfBytes": "20"
      },
      "t_bool": {
        "encoding": "inplace",
        "label": "bool",
        "numberOfBytes": "1"
      },
      "t_bytes32": {
        "encoding": "inplace",
        "label": "bytes32",
        "numberOfBytes": "32"
      },
      "t_mapping(t_address,t_bool)": {
        "encoding": "mapping",
        "key": "t_address",
        "label": "mapping(address => bool)",
        "numberOfBytes": "32",
        "value": "t_bool"
      },
      "t_mapping(t_address,t_uint256)": {
        "encoding": "mapping",
        "key": "t_address",
        "label": "mapping(address => uint256)",
        "numberOfBytes": "32",
        "value": "t_uint256"
      },
      "t_mapping(t_bytes32,t_struct(RoleData)19_storage)": {
        "encoding": "mapping",
        "key": "t_bytes32",
        "label": "mapping(bytes32 => struct AccessControl.RoleData)",
        "numberOfBytes": "32",
        "value": "t_struct(RoleData)19_storage"
      },
      "t_struct(RoleData)19_storage": {
        "encoding": "inplace",
        "label": "struct AccessControl.RoleData",
        "members": [
          {
            "astId": 16,
            "contract": "contracts/ido/TegistoSaleRound1.sol:TegistoSaleRound1",
            "label": "members",
            "offset": 0,
            "slot": "0",
            "type": "t_mapping(t_address,t_bool)"
          },
          {
            "astId": 18,
            "contract": "contracts/ido/TegistoSaleRound1.sol:TegistoSaleRound1",
            "label": "adminRole",
            "offset": 0,
            "slot": "1",
            "type": "t_bytes32"
          }
        ],
        "numberOfBytes": "64"
      },
      "t_uint256": {
        "encoding": "inplace",
        "label": "uint256",
        "numberOfBytes": "32"
      }
    }
  }
}