{
  "address": "0x652ae512325648A723d18AE4Deee8CA560349C5C",
  "abi": [
    {
      "inputs": [
        {
          "internalType": "address",
          "name": "tokenAddress",
          "type": "address"
        },
        {
          "internalType": "string",
          "name": "idoName",
          "type": "string"
        }
      ],
      "stateMutability": "nonpayable",
      "type": "constructor"
    },
    {
      "anonymous": false,
      "inputs": [
        {
          "indexed": true,
          "internalType": "bytes32",
          "name": "role",
          "type": "bytes32"
        },
        {
          "indexed": true,
          "internalType": "bytes32",
          "name": "previousAdminRole",
          "type": "bytes32"
        },
        {
          "indexed": true,
          "internalType": "bytes32",
          "name": "newAdminRole",
          "type": "bytes32"
        }
      ],
      "name": "RoleAdminChanged",
      "type": "event"
    },
    {
      "anonymous": false,
      "inputs": [
        {
          "indexed": true,
          "internalType": "bytes32",
          "name": "role",
          "type": "bytes32"
        },
        {
          "indexed": true,
          "internalType": "address",
          "name": "account",
          "type": "address"
        },
        {
          "indexed": true,
          "internalType": "address",
          "name": "sender",
          "type": "address"
        }
      ],
      "name": "RoleGranted",
      "type": "event"
    },
    {
      "anonymous": false,
      "inputs": [
        {
          "indexed": true,
          "internalType": "bytes32",
          "name": "role",
          "type": "bytes32"
        },
        {
          "indexed": true,
          "internalType": "address",
          "name": "account",
          "type": "address"
        },
        {
          "indexed": true,
          "internalType": "address",
          "name": "sender",
          "type": "address"
        }
      ],
      "name": "RoleRevoked",
      "type": "event"
    },
    {
      "anonymous": false,
      "inputs": [
        {
          "indexed": true,
          "internalType": "address",
          "name": "account",
          "type": "address"
        },
        {
          "indexed": false,
          "internalType": "uint256",
          "name": "amount",
          "type": "uint256"
        }
      ],
      "name": "TokenReleased",
      "type": "event"
    },
    {
      "inputs": [],
      "name": "BACKEND_ROLE",
      "outputs": [
        {
          "internalType": "bytes32",
          "name": "",
          "type": "bytes32"
        }
      ],
      "stateMutability": "view",
      "type": "function"
    },
    {
      "inputs": [],
      "name": "DEFAULT_ADMIN_ROLE",
      "outputs": [
        {
          "internalType": "bytes32",
          "name": "",
          "type": "bytes32"
        }
      ],
      "stateMutability": "view",
      "type": "function"
    },
    {
      "inputs": [
        {
          "internalType": "uint128",
          "name": "time",
          "type": "uint128"
        },
        {
          "internalType": "uint128",
          "name": "percentage",
          "type": "uint128"
        }
      ],
      "name": "addReleaseInfo",
      "outputs": [],
      "stateMutability": "nonpayable",
      "type": "function"
    },
    {
      "inputs": [],
      "name": "getNextReleaseInfo",
      "outputs": [
        {
          "components": [
            {
              "internalType": "uint128",
              "name": "time",
              "type": "uint128"
            },
            {
              "internalType": "uint128",
              "name": "percentage",
              "type": "uint128"
            }
          ],
          "internalType": "struct SimpleVesting.ReleaseInfo",
          "name": "",
          "type": "tuple"
        }
      ],
      "stateMutability": "view",
      "type": "function"
    },
    {
      "inputs": [
        {
          "internalType": "address",
          "name": "participant",
          "type": "address"
        },
        {
          "internalType": "uint256",
          "name": "totalAmount",
          "type": "uint256"
        }
      ],
      "name": "getParticipantClaimInfo",
      "outputs": [
        {
          "internalType": "uint256",
          "name": "unclaimed",
          "type": "uint256"
        },
        {
          "internalType": "uint256",
          "name": "claimed",
          "type": "uint256"
        }
      ],
      "stateMutability": "view",
      "type": "function"
    },
    {
      "inputs": [
        {
          "internalType": "address",
          "name": "participant",
          "type": "address"
        },
        {
          "internalType": "uint256",
          "name": "totalAmount",
          "type": "uint256"
        }
      ],
      "name": "getParticipantUnclaimedAmount",
      "outputs": [
        {
          "internalType": "uint256",
          "name": "",
          "type": "uint256"
        }
      ],
      "stateMutability": "view",
      "type": "function"
    },
    {
      "inputs": [
        {
          "internalType": "uint256",
          "name": "totalAmount",
          "type": "uint256"
        }
      ],
      "name": "getParticipantUnlockedAmount",
      "outputs": [
        {
          "internalType": "uint256",
          "name": "",
          "type": "uint256"
        }
      ],
      "stateMutability": "view",
      "type": "function"
    },
    {
      "inputs": [],
      "name": "getReleaseInfos",
      "outputs": [
        {
          "components": [
            {
              "internalType": "uint128",
              "name": "time",
              "type": "uint128"
            },
            {
              "internalType": "uint128",
              "name": "percentage",
              "type": "uint128"
            }
          ],
          "internalType": "struct SimpleVesting.ReleaseInfo[]",
          "name": "",
          "type": "tuple[]"
        }
      ],
      "stateMutability": "view",
      "type": "function"
    },
    {
      "inputs": [],
      "name": "getReleaseInfosLength",
      "outputs": [
        {
          "internalType": "uint256",
          "name": "",
          "type": "uint256"
        }
      ],
      "stateMutability": "view",
      "type": "function"
    },
    {
      "inputs": [
        {
          "internalType": "bytes32",
          "name": "role",
          "type": "bytes32"
        }
      ],
      "name": "getRoleAdmin",
      "outputs": [
        {
          "internalType": "bytes32",
          "name": "",
          "type": "bytes32"
        }
      ],
      "stateMutability": "view",
      "type": "function"
    },
    {
      "inputs": [
        {
          "internalType": "address",
          "name": "account",
          "type": "address"
        },
        {
          "internalType": "uint256",
          "name": "totalAmount",
          "type": "uint256"
        },
        {
          "internalType": "bytes",
          "name": "signature",
          "type": "bytes"
        }
      ],
      "name": "getSignerAcc",
      "outputs": [
        {
          "internalType": "address",
          "name": "",
          "type": "address"
        }
      ],
      "stateMutability": "view",
      "type": "function"
    },
    {
      "inputs": [
        {
          "internalType": "bytes32",
          "name": "role",
          "type": "bytes32"
        },
        {
          "internalType": "address",
          "name": "account",
          "type": "address"
        }
      ],
      "name": "grantRole",
      "outputs": [],
      "stateMutability": "nonpayable",
      "type": "function"
    },
    {
      "inputs": [
        {
          "internalType": "bytes32",
          "name": "role",
          "type": "bytes32"
        },
        {
          "internalType": "address",
          "name": "account",
          "type": "address"
        }
      ],
      "name": "hasRole",
      "outputs": [
        {
          "internalType": "bool",
          "name": "",
          "type": "bool"
        }
      ],
      "stateMutability": "view",
      "type": "function"
    },
    {
      "inputs": [],
      "name": "idoId",
      "outputs": [
        {
          "internalType": "bytes32",
          "name": "",
          "type": "bytes32"
        }
      ],
      "stateMutability": "view",
      "type": "function"
    },
    {
      "inputs": [
        {
          "internalType": "uint256",
          "name": "totalAmount",
          "type": "uint256"
        },
        {
          "internalType": "bytes",
          "name": "signature",
          "type": "bytes"
        }
      ],
      "name": "release",
      "outputs": [],
      "stateMutability": "nonpayable",
      "type": "function"
    },
    {
      "inputs": [
        {
          "internalType": "uint256",
          "name": "totalAmount",
          "type": "uint256"
        },
        {
          "internalType": "uint256",
          "name": "amount",
          "type": "uint256"
        },
        {
          "internalType": "bytes",
          "name": "signature",
          "type": "bytes"
        }
      ],
      "name": "releaseAmount",
      "outputs": [],
      "stateMutability": "nonpayable",
      "type": "function"
    },
    {
      "inputs": [
        {
          "internalType": "uint256",
          "name": "",
          "type": "uint256"
        }
      ],
      "name": "releaseInfos",
      "outputs": [
        {
          "internalType": "uint128",
          "name": "time",
          "type": "uint128"
        },
        {
          "internalType": "uint128",
          "name": "percentage",
          "type": "uint128"
        }
      ],
      "stateMutability": "view",
      "type": "function"
    },
    {
      "inputs": [
        {
          "internalType": "address",
          "name": "",
          "type": "address"
        }
      ],
      "name": "released",
      "outputs": [
        {
          "internalType": "uint256",
          "name": "",
          "type": "uint256"
        }
      ],
      "stateMutability": "view",
      "type": "function"
    },
    {
      "inputs": [
        {
          "internalType": "bytes32",
          "name": "role",
          "type": "bytes32"
        },
        {
          "internalType": "address",
          "name": "account",
          "type": "address"
        }
      ],
      "name": "renounceRole",
      "outputs": [],
      "stateMutability": "nonpayable",
      "type": "function"
    },
    {
      "inputs": [
        {
          "internalType": "bytes32",
          "name": "role",
          "type": "bytes32"
        },
        {
          "internalType": "address",
          "name": "account",
          "type": "address"
        }
      ],
      "name": "revokeRole",
      "outputs": [],
      "stateMutability": "nonpayable",
      "type": "function"
    },
    {
      "inputs": [
        {
          "internalType": "uint256",
          "name": "index",
          "type": "uint256"
        },
        {
          "internalType": "uint128",
          "name": "time",
          "type": "uint128"
        },
        {
          "internalType": "uint128",
          "name": "percentage",
          "type": "uint128"
        }
      ],
      "name": "setReleaseInfo",
      "outputs": [],
      "stateMutability": "nonpayable",
      "type": "function"
    },
    {
      "inputs": [
        {
          "internalType": "bytes4",
          "name": "interfaceId",
          "type": "bytes4"
        }
      ],
      "name": "supportsInterface",
      "outputs": [
        {
          "internalType": "bool",
          "name": "",
          "type": "bool"
        }
      ],
      "stateMutability": "view",
      "type": "function"
    },
    {
      "inputs": [],
      "name": "token",
      "outputs": [
        {
          "internalType": "address",
          "name": "",
          "type": "address"
        }
      ],
      "stateMutability": "view",
      "type": "function"
    }
  ],
  "transactionHash": "0xe6b2aea1a8201cb74729cac0e529eca5a30b05a76c5035ac990279a9bf8368bc",
  "args": [
    "0x87F1E00d6bcD3712031e5edD26DFcdB0FEd35D20",
    "SimpleVestingAltava2"
  ],
  "numDeployments": 3,
  "solcInputHash": "a7d7304ec5f988ed4eae3aa5700108cd",
  "bytecode": "0x60a06040523480156200001157600080fd5b5060405162001f5038038062001f50833981016040819052620000349162000203565b6001600160a01b0382166200008f5760405162461bcd60e51b815260206004820152601560248201527f696e76616c696420746f6b656e20616464726573730000000000000000000000604482015260640160405180910390fd5b600180546001600160a01b0319166001600160a01b038416179055604051620000bd908290602001620002de565b60408051601f198184030181529190528051602090910120608052620000e560003362000119565b620001117f25cf2b509f2a7f322675b2a5322b182f44ad2c03ac941a0af17c9b178f5d5d5f3362000119565b505062000313565b6000828152602081815260408083206001600160a01b038516845290915290205460ff16620001b6576000828152602081815260408083206001600160a01b03851684529091529020805460ff19166001179055620001753390565b6001600160a01b0316816001600160a01b0316837f2f8788117e7eff1d82e926ec794901d17c78024a50270940304540a733656f0d60405160405180910390a45b5050565b634e487b7160e01b600052604160045260246000fd5b60005b83811015620001ed578181015183820152602001620001d3565b83811115620001fd576000848401525b50505050565b600080604083850312156200021757600080fd5b82516001600160a01b03811681146200022f57600080fd5b60208401519092506001600160401b03808211156200024d57600080fd5b818501915085601f8301126200026257600080fd5b815181811115620002775762000277620001ba565b604051601f8201601f19908116603f01168101908382118183101715620002a257620002a2620001ba565b81604052828152886020848701011115620002bc57600080fd5b620002cf836020830160208801620001d0565b80955050505050509250929050565b6020815260008251806020840152620002ff816040850160208701620001d0565b601f01601f19169190910160400192915050565b608051611c0c6200034460003960008181610329015281816104b1015281816105d301526109200152611c0c6000f3fe608060405234801561001057600080fd5b506004361061014d5760003560e01c806388b45234116100c3578063a217fddf1161007c578063a217fddf1461031c578063b4f0e4a714610324578063c6fe840c1461034b578063d547741f14610353578063eb6905e214610366578063fc0c546a1461039957600080fd5b806388b452341461028757806390910e9a1461029c57806391d14854146102af57806392c2becc146102c257806395458ab1146102e95780639852595c146102fc57600080fd5b806336568abe1161011557806336568abe14610200578063427a740c14610213578063534db92d146102265780636b4de0c51461023957806374fed147146102615780637ef4052c1461027457600080fd5b806301ffc9a714610152578063030e55811461017a578063248a9ca31461018f578063283856d6146101c05780632f2ff15d146101eb575b600080fd5b610165610160366004611665565b6103ac565b60405190151581526020015b60405180910390f35b6101826103e3565b604051610171919061168f565b6101b261019d3660046116b3565b60009081526020819052604090206001015490565b604051908152602001610171565b6101d36101ce36600461178b565b6104ac565b6040516001600160a01b039091168152602001610171565b6101fe6101f93660046117e2565b61051f565b005b6101fe61020e3660046117e2565b61054a565b6101fe61022136600461180e565b6105cd565b6101fe61023436600461185f565b610868565b61024c610247366004611889565b6108df565b60408051928352602083019190915201610171565b6101fe61026f3660046118b3565b61091a565b6101fe6102823660046118fa565b610ac2565b61028f610b3a565b6040516101719190611936565b6101b26102aa366004611889565b610bb0565b6101656102bd3660046117e2565b610bdc565b6101b27f25cf2b509f2a7f322675b2a5322b182f44ad2c03ac941a0af17c9b178f5d5d5f81565b6101b26102f73660046116b3565b610c05565b6101b261030a366004611999565b60036020526000908152604090205481565b6101b2600081565b6101b27f000000000000000000000000000000000000000000000000000000000000000081565b6002546101b2565b6101fe6103613660046117e2565b610cb4565b6103796103743660046116b3565b610cda565b604080516001600160801b03938416815292909116602083015201610171565b6001546101d3906001600160a01b031681565b60006001600160e01b03198216637965db0b60e01b14806103dd57506301ffc9a760e01b6001600160e01b03198316145b92915050565b604080518082019091526000808252602082015260005b600254811015610493574260028281548110610418576104186119b4565b6000918252602090912001546001600160801b031611156104815760028181548110610446576104466119b4565b6000918252602091829020604080518082019091529101546001600160801b038082168352600160801b909104169181019190915292915050565b8061048b816119e0565b9150506103fa565b5050604080518082019091526000808252602082015290565b6000807f000000000000000000000000000000000000000000000000000000000000000085856040516020016104e4939291906119fb565b60405160208183030381529060405280519060200120905061050581610d0f565b905060006105138285610d62565b925050505b9392505050565b60008281526020819052604090206001015461053b8133610d86565b6105458383610dea565b505050565b6001600160a01b03811633146105bf5760405162461bcd60e51b815260206004820152602f60248201527f416363657373436f6e74726f6c3a2063616e206f6e6c792072656e6f756e636560448201526e103937b632b9903337b91039b2b63360891b60648201526084015b60405180910390fd5b6105c98282610e6e565b5050565b828160007f00000000000000000000000000000000000000000000000000000000000000003384604051602001610606939291906119fb565b60405160208183030381529060405280519060200120905061062781610d0f565b905060006106358284610d62565b90506106617f25cf2b509f2a7f322675b2a5322b182f44ad2c03ac941a0af17c9b178f5d5d5f82610bdc565b6106a75760405162461bcd60e51b8152602060048201526017602482015276165bdd48185c99481b9bdd081dda1a5d195b1a5cdd1959604a1b60448201526064016105b6565b60006106b33389610bb0565b9050600081116106fc5760405162461bcd60e51b8152602060048201526014602482015273139bc81c995b19585cd8589b1948185b5bdd5b9d60621b60448201526064016105b6565b600087116107395760405162461bcd60e51b815260206004820152600a6024820152690616d6f756e74203e20360b41b60448201526064016105b6565b808711156107805760405162461bcd60e51b8152602060048201526014602482015273616d6f756e74203c3d2072656c65617361626c6560601b60448201526064016105b6565b336000908152600360205260408120805489929061079f908490611a23565b909155505060405187815233907f9cf9e3ab58b33f06d81842ea0ad850b6640c6430d6396973312e1715792e7a919060200160405180910390a260015460405163a9059cbb60e01b8152336004820152602481018990526001600160a01b039091169063a9059cbb90604401602060405180830381600087803b15801561082557600080fd5b505af1158015610839573d6000803e3d6000fd5b505050506040513d601f19601f8201168201806040525081019061085d9190611a3b565b505050505050505050565b60006108748133610d86565b50604080518082019091526001600160801b0392831681529082166020820190815260028054600181018255600091909152915190518316600160801b029216919091177f405787fa12a823e0f2b7631cc41b3ba8828b3321ca811111fa75cd3aa3bb5ace90910155565b6001600160a01b03821660009081526003602052604081205481908061090485610c05565b61090e9190611a5d565b925090505b9250929050565b818160007f00000000000000000000000000000000000000000000000000000000000000003384604051602001610953939291906119fb565b60405160208183030381529060405280519060200120905061097481610d0f565b905060006109828284610d62565b90506109ae7f25cf2b509f2a7f322675b2a5322b182f44ad2c03ac941a0af17c9b178f5d5d5f82610bdc565b6109f45760405162461bcd60e51b8152602060048201526017602482015276165bdd48185c99481b9bdd081dda1a5d195b1a5cdd1959604a1b60448201526064016105b6565b6000610a003388610bb0565b905060008111610a495760405162461bcd60e51b8152602060048201526014602482015273139bc81c995b19585cd8589b1948185b5bdd5b9d60621b60448201526064016105b6565b3360009081526003602052604081208054839290610a68908490611a23565b909155505060405181815233907f9cf9e3ab58b33f06d81842ea0ad850b6640c6430d6396973312e1715792e7a919060200160405180910390a2600154610ab9906001600160a01b03163383610ed3565b50505050505050565b6000610ace8133610d86565b6040518060400160405280846001600160801b03168152602001836001600160801b031681525060028581548110610b0857610b086119b4565b6000918252602091829020835193909201516001600160801b03908116600160801b0293169290921791015550505050565b60606002805480602002602001604051908101604052809291908181526020016000905b82821015610ba757600084815260209081902060408051808201909152908401546001600160801b038082168352600160801b9091041681830152825260019092019101610b5e565b50505050905090565b6001600160a01b038216600090815260036020526040812054610bd283610c05565b6105189190611a5d565b6000918252602082815260408084206001600160a01b0393909316845291905290205460ff1690565b6002546000905b8015610cab57426002610c20600184611a5d565b81548110610c3057610c306119b4565b6000918252602090912001546001600160801b031611610c995760646002610c59600184611a5d565b81548110610c6957610c696119b4565b600091825260209091200154610c8f90600160801b90046001600160801b031685611a74565b6105189190611a93565b80610ca381611ab5565b915050610c0c565b50600092915050565b600082815260208190526040902060010154610cd08133610d86565b6105458383610e6e565b60028181548110610cea57600080fd5b6000918252602090912001546001600160801b038082169250600160801b9091041682565b6040517f19457468657265756d205369676e6564204d6573736167653a0a3332000000006020820152603c8101829052600090605c01604051602081830303815290604052805190602001209050919050565b6000806000610d718585610f25565b91509150610d7e81610f92565b509392505050565b610d908282610bdc565b6105c957610da8816001600160a01b03166014611150565b610db3836020611150565b604051602001610dc4929190611afc565b60408051601f198184030181529082905262461bcd60e51b82526105b691600401611b71565b610df48282610bdc565b6105c9576000828152602081815260408083206001600160a01b03851684529091529020805460ff19166001179055610e2a3390565b6001600160a01b0316816001600160a01b0316837f2f8788117e7eff1d82e926ec794901d17c78024a50270940304540a733656f0d60405160405180910390a45050565b610e788282610bdc565b156105c9576000828152602081815260408083206001600160a01b0385168085529252808320805460ff1916905551339285917ff6391f5c32d9c69d2a47ea670b442974b53935d1edc7fd64eb21e047a839171b9190a45050565b604080516001600160a01b038416602482015260448082018490528251808303909101815260649091019091526020810180516001600160e01b031663a9059cbb60e01b1790526105459084906112ec565b600080825160411415610f5c5760208301516040840151606085015160001a610f50878285856113be565b94509450505050610913565b825160401415610f865760208301516040840151610f7b8683836114ab565b935093505050610913565b50600090506002610913565b6000816004811115610fa657610fa6611ba4565b1415610faf5750565b6001816004811115610fc357610fc3611ba4565b14156110115760405162461bcd60e51b815260206004820152601860248201527f45434453413a20696e76616c6964207369676e6174757265000000000000000060448201526064016105b6565b600281600481111561102557611025611ba4565b14156110735760405162461bcd60e51b815260206004820152601f60248201527f45434453413a20696e76616c6964207369676e6174757265206c656e6774680060448201526064016105b6565b600381600481111561108757611087611ba4565b14156110e05760405162461bcd60e51b815260206004820152602260248201527f45434453413a20696e76616c6964207369676e6174757265202773272076616c604482015261756560f01b60648201526084016105b6565b60048160048111156110f4576110f4611ba4565b141561114d5760405162461bcd60e51b815260206004820152602260248201527f45434453413a20696e76616c6964207369676e6174757265202776272076616c604482015261756560f01b60648201526084016105b6565b50565b6060600061115f836002611a74565b61116a906002611a23565b67ffffffffffffffff811115611182576111826116e8565b6040519080825280601f01601f1916602001820160405280156111ac576020820181803683370190505b509050600360fc1b816000815181106111c7576111c76119b4565b60200101906001600160f81b031916908160001a905350600f60fb1b816001815181106111f6576111f66119b4565b60200101906001600160f81b031916908160001a905350600061121a846002611a74565b611225906001611a23565b90505b600181111561129d576f181899199a1a9b1b9c1cb0b131b232b360811b85600f1660108110611259576112596119b4565b1a60f81b82828151811061126f5761126f6119b4565b60200101906001600160f81b031916908160001a90535060049490941c9361129681611ab5565b9050611228565b5083156105185760405162461bcd60e51b815260206004820181905260248201527f537472696e67733a20686578206c656e67746820696e73756666696369656e7460448201526064016105b6565b6000611341826040518060400160405280602081526020017f5361666545524332303a206c6f772d6c6576656c2063616c6c206661696c6564815250856001600160a01b03166114e49092919063ffffffff16565b805190915015610545578080602001905181019061135f9190611a3b565b6105455760405162461bcd60e51b815260206004820152602a60248201527f5361666545524332303a204552433230206f7065726174696f6e20646964206e6044820152691bdd081cdd58d8d9595960b21b60648201526084016105b6565b6000807f7fffffffffffffffffffffffffffffff5d576e7357a4501ddfe92f46681b20a08311156113f557506000905060036114a2565b8460ff16601b1415801561140d57508460ff16601c14155b1561141e57506000905060046114a2565b6040805160008082526020820180845289905260ff881692820192909252606081018690526080810185905260019060a0016020604051602081039080840390855afa158015611472573d6000803e3d6000fd5b5050604051601f1901519150506001600160a01b03811661149b576000600192509250506114a2565b9150600090505b94509492505050565b6000806001600160ff1b038316816114c860ff86901c601b611a23565b90506114d6878288856113be565b935093505050935093915050565b60606114f384846000856114fb565b949350505050565b60608247101561155c5760405162461bcd60e51b815260206004820152602660248201527f416464726573733a20696e73756666696369656e742062616c616e636520666f6044820152651c8818d85b1b60d21b60648201526084016105b6565b6001600160a01b0385163b6115b35760405162461bcd60e51b815260206004820152601d60248201527f416464726573733a2063616c6c20746f206e6f6e2d636f6e747261637400000060448201526064016105b6565b600080866001600160a01b031685876040516115cf9190611bba565b60006040518083038185875af1925050503d806000811461160c576040519150601f19603f3d011682016040523d82523d6000602084013e611611565b606091505b509150915061162182828661162c565b979650505050505050565b6060831561163b575081610518565b82511561164b5782518084602001fd5b8160405162461bcd60e51b81526004016105b69190611b71565b60006020828403121561167757600080fd5b81356001600160e01b03198116811461051857600080fd5b604081016103dd828480516001600160801b03908116835260209182015116910152565b6000602082840312156116c557600080fd5b5035919050565b80356001600160a01b03811681146116e357600080fd5b919050565b634e487b7160e01b600052604160045260246000fd5b600082601f83011261170f57600080fd5b813567ffffffffffffffff8082111561172a5761172a6116e8565b604051601f8301601f19908116603f01168101908282118183101715611752576117526116e8565b8160405283815286602085880101111561176b57600080fd5b836020870160208301376000602085830101528094505050505092915050565b6000806000606084860312156117a057600080fd5b6117a9846116cc565b925060208401359150604084013567ffffffffffffffff8111156117cc57600080fd5b6117d8868287016116fe565b9150509250925092565b600080604083850312156117f557600080fd5b82359150611805602084016116cc565b90509250929050565b60008060006060848603121561182357600080fd5b8335925060208401359150604084013567ffffffffffffffff8111156117cc57600080fd5b80356001600160801b03811681146116e357600080fd5b6000806040838503121561187257600080fd5b61187b83611848565b915061180560208401611848565b6000806040838503121561189c57600080fd5b6118a5836116cc565b946020939093013593505050565b600080604083850312156118c657600080fd5b82359150602083013567ffffffffffffffff8111156118e457600080fd5b6118f0858286016116fe565b9150509250929050565b60008060006060848603121561190f57600080fd5b8335925061191f60208501611848565b915061192d60408501611848565b90509250925092565b602080825282518282018190526000919060409081850190868401855b8281101561198c5761197c84835180516001600160801b03908116835260209182015116910152565b9284019290850190600101611953565b5091979650505050505050565b6000602082840312156119ab57600080fd5b610518826116cc565b634e487b7160e01b600052603260045260246000fd5b634e487b7160e01b600052601160045260246000fd5b60006000198214156119f4576119f46119ca565b5060010190565b92835260609190911b6bffffffffffffffffffffffff19166020830152603482015260540190565b60008219821115611a3657611a366119ca565b500190565b600060208284031215611a4d57600080fd5b8151801515811461051857600080fd5b600082821015611a6f57611a6f6119ca565b500390565b6000816000190483118215151615611a8e57611a8e6119ca565b500290565b600082611ab057634e487b7160e01b600052601260045260246000fd5b500490565b600081611ac457611ac46119ca565b506000190190565b60005b83811015611ae7578181015183820152602001611acf565b83811115611af6576000848401525b50505050565b7f416363657373436f6e74726f6c3a206163636f756e7420000000000000000000815260008351611b34816017850160208801611acc565b7001034b99036b4b9b9b4b733903937b6329607d1b6017918401918201528351611b65816028840160208801611acc565b01602801949350505050565b6020815260008251806020840152611b90816040850160208701611acc565b601f01601f19169190910160400192915050565b634e487b7160e01b600052602160045260246000fd5b60008251611bcc818460208701611acc565b919091019291505056fea2646970667358221220150315307ae124a3b7463b8bcfb64091cf19498aa7d9958e4564b08380f15e2064736f6c63430008090033",
  "devdoc": {
    "kind": "dev",
    "methods": {
      "getRoleAdmin(bytes32)": {
        "details": "Returns the admin role that controls `role`. See {grantRole} and {revokeRole}. To change a role's admin, use {_setRoleAdmin}."
      },
      "grantRole(bytes32,address)": {
        "details": "Grants `role` to `account`. If `account` had not been already granted `role`, emits a {RoleGranted} event. Requirements: - the caller must have ``role``'s admin role."
      },
      "hasRole(bytes32,address)": {
        "details": "Returns `true` if `account` has been granted `role`."
      },
      "renounceRole(bytes32,address)": {
        "details": "Revokes `role` from the calling account. Roles are often managed via {grantRole} and {revokeRole}: this function's purpose is to provide a mechanism for accounts to lose their privileges if they are compromised (such as when a trusted device is misplaced). If the calling account had been revoked `role`, emits a {RoleRevoked} event. Requirements: - the caller must be `account`."
      },
      "revokeRole(bytes32,address)": {
        "details": "Revokes `role` from `account`. If `account` had been granted `role`, emits a {RoleRevoked} event. Requirements: - the caller must have ``role``'s admin role."
      },
      "supportsInterface(bytes4)": {
        "details": "See {IERC165-supportsInterface}."
      }
    },
    "version": 1
  },
  "userdoc": {
    "kind": "user",
    "methods": {},
    "version": 1
  },
  "storageLayout": {
    "storage": [
      {
        "astId": 24,
        "contract": "contracts/ido/SimpleVesting.sol:SimpleVesting",
        "label": "_roles",
        "offset": 0,
        "slot": "0",
        "type": "t_mapping(t_bytes32,t_struct(RoleData)19_storage)"
      },
      {
        "astId": 3049,
        "contract": "contracts/ido/SimpleVesting.sol:SimpleVesting",
        "label": "token",
        "offset": 0,
        "slot": "1",
        "type": "t_address"
      },
      {
        "astId": 3058,
        "contract": "contracts/ido/SimpleVesting.sol:SimpleVesting",
        "label": "releaseInfos",
        "offset": 0,
        "slot": "2",
        "type": "t_array(t_struct(ReleaseInfo)3054_storage)dyn_storage"
      },
      {
        "astId": 3062,
        "contract": "contracts/ido/SimpleVesting.sol:SimpleVesting",
        "label": "released",
        "offset": 0,
        "slot": "3",
        "type": "t_mapping(t_address,t_uint256)"
      }
    ],
    "types": {
      "t_address": {
        "encoding": "inplace",
        "label": "address",
        "numberOfBytes": "20"
      },
      "t_array(t_struct(ReleaseInfo)3054_storage)dyn_storage": {
        "base": "t_struct(ReleaseInfo)3054_storage",
        "encoding": "dynamic_array",
        "label": "struct SimpleVesting.ReleaseInfo[]",
        "numberOfBytes": "32"
      },
      "t_bool": {
        "encoding": "inplace",
        "label": "bool",
        "numberOfBytes": "1"
      },
      "t_bytes32": {
        "encoding": "inplace",
        "label": "bytes32",
        "numberOfBytes": "32"
      },
      "t_mapping(t_address,t_bool)": {
        "encoding": "mapping",
        "key": "t_address",
        "label": "mapping(address => bool)",
        "numberOfBytes": "32",
        "value": "t_bool"
      },
      "t_mapping(t_address,t_uint256)": {
        "encoding": "mapping",
        "key": "t_address",
        "label": "mapping(address => uint256)",
        "numberOfBytes": "32",
        "value": "t_uint256"
      },
      "t_mapping(t_bytes32,t_struct(RoleData)19_storage)": {
        "encoding": "mapping",
        "key": "t_bytes32",
        "label": "mapping(bytes32 => struct AccessControl.RoleData)",
        "numberOfBytes": "32",
        "value": "t_struct(RoleData)19_storage"
      },
      "t_struct(ReleaseInfo)3054_storage": {
        "encoding": "inplace",
        "label": "struct SimpleVesting.ReleaseInfo",
        "members": [
          {
            "astId": 3051,
            "contract": "contracts/ido/SimpleVesting.sol:SimpleVesting",
            "label": "time",
            "offset": 0,
            "slot": "0",
            "type": "t_uint128"
          },
          {
            "astId": 3053,
            "contract": "contracts/ido/SimpleVesting.sol:SimpleVesting",
            "label": "percentage",
            "offset": 16,
            "slot": "0",
            "type": "t_uint128"
          }
        ],
        "numberOfBytes": "32"
      },
      "t_struct(RoleData)19_storage": {
        "encoding": "inplace",
        "label": "struct AccessControl.RoleData",
        "members": [
          {
            "astId": 16,
            "contract": "contracts/ido/SimpleVesting.sol:SimpleVesting",
            "label": "members",
            "offset": 0,
            "slot": "0",
            "type": "t_mapping(t_address,t_bool)"
          },
          {
            "astId": 18,
            "contract": "contracts/ido/SimpleVesting.sol:SimpleVesting",
            "label": "adminRole",
            "offset": 0,
            "slot": "1",
            "type": "t_bytes32"
          }
        ],
        "numberOfBytes": "64"
      },
      "t_uint128": {
        "encoding": "inplace",
        "label": "uint128",
        "numberOfBytes": "16"
      },
      "t_uint256": {
        "encoding": "inplace",
        "label": "uint256",
        "numberOfBytes": "32"
      }
    }
  }
}